{
	"contracts/Voting.sol": {
		"SecureVoting": {
			"abi": [
				{
					"inputs": [],
					"stateMutability": "nonpayable",
					"type": "constructor"
				},
				{
					"anonymous": false,
					"inputs": [
						{
							"indexed": true,
							"internalType": "address",
							"name": "voter",
							"type": "address"
						},
						{
							"indexed": true,
							"internalType": "uint256",
							"name": "votingId",
							"type": "uint256"
						},
						{
							"indexed": true,
							"internalType": "uint256",
							"name": "candidateId",
							"type": "uint256"
						},
						{
							"indexed": false,
							"internalType": "uint256",
							"name": "timestamp",
							"type": "uint256"
						}
					],
					"name": "Voted",
					"type": "event"
				},
				{
					"anonymous": false,
					"inputs": [
						{
							"indexed": true,
							"internalType": "address",
							"name": "voter",
							"type": "address"
						}
					],
					"name": "VoterRegistered",
					"type": "event"
				},
				{
					"anonymous": false,
					"inputs": [
						{
							"indexed": true,
							"internalType": "uint256",
							"name": "votingId",
							"type": "uint256"
						}
					],
					"name": "VotingEnded",
					"type": "event"
				},
				{
					"anonymous": false,
					"inputs": [
						{
							"indexed": true,
							"internalType": "uint256",
							"name": "votingId",
							"type": "uint256"
						}
					],
					"name": "VotingStarted",
					"type": "event"
				},
				{
					"inputs": [],
					"name": "admin",
					"outputs": [
						{
							"internalType": "address",
							"name": "",
							"type": "address"
						}
					],
					"stateMutability": "view",
					"type": "function"
				},
				{
					"inputs": [
						{
							"internalType": "string[]",
							"name": "candidateNames",
							"type": "string[]"
						}
					],
					"name": "createVoting",
					"outputs": [],
					"stateMutability": "nonpayable",
					"type": "function"
				},
				{
					"inputs": [
						{
							"internalType": "uint256",
							"name": "votingId",
							"type": "uint256"
						}
					],
					"name": "endVoting",
					"outputs": [],
					"stateMutability": "nonpayable",
					"type": "function"
				},
				{
					"inputs": [
						{
							"internalType": "uint256",
							"name": "votingId",
							"type": "uint256"
						}
					],
					"name": "getCandidates",
					"outputs": [
						{
							"components": [
								{
									"internalType": "uint256",
									"name": "id",
									"type": "uint256"
								},
								{
									"internalType": "string",
									"name": "name",
									"type": "string"
								},
								{
									"internalType": "uint256",
									"name": "voteCount",
									"type": "uint256"
								}
							],
							"internalType": "struct SecureVoting.Candidate[]",
							"name": "",
							"type": "tuple[]"
						}
					],
					"stateMutability": "view",
					"type": "function"
				},
				{
					"inputs": [
						{
							"internalType": "uint256",
							"name": "votingId",
							"type": "uint256"
						},
						{
							"internalType": "uint256",
							"name": "candidateId",
							"type": "uint256"
						}
					],
					"name": "getVoteCount",
					"outputs": [
						{
							"internalType": "uint256",
							"name": "",
							"type": "uint256"
						}
					],
					"stateMutability": "view",
					"type": "function"
				},
				{
					"inputs": [
						{
							"internalType": "uint256",
							"name": "votingId",
							"type": "uint256"
						},
						{
							"internalType": "address",
							"name": "voter",
							"type": "address"
						}
					],
					"name": "getVoteTimestamp",
					"outputs": [
						{
							"internalType": "uint256",
							"name": "",
							"type": "uint256"
						}
					],
					"stateMutability": "view",
					"type": "function"
				},
				{
					"inputs": [
						{
							"internalType": "address",
							"name": "voter",
							"type": "address"
						}
					],
					"name": "registerVoter",
					"outputs": [],
					"stateMutability": "nonpayable",
					"type": "function"
				},
				{
					"inputs": [
						{
							"internalType": "address",
							"name": "",
							"type": "address"
						}
					],
					"name": "registeredVoters",
					"outputs": [
						{
							"internalType": "bool",
							"name": "",
							"type": "bool"
						}
					],
					"stateMutability": "view",
					"type": "function"
				},
				{
					"inputs": [
						{
							"internalType": "uint256",
							"name": "votingId",
							"type": "uint256"
						}
					],
					"name": "startVoting",
					"outputs": [],
					"stateMutability": "nonpayable",
					"type": "function"
				},
				{
					"inputs": [
						{
							"internalType": "uint256",
							"name": "votingId",
							"type": "uint256"
						},
						{
							"internalType": "uint256",
							"name": "candidateId",
							"type": "uint256"
						}
					],
					"name": "vote",
					"outputs": [],
					"stateMutability": "nonpayable",
					"type": "function"
				},
				{
					"inputs": [],
					"name": "votingCount",
					"outputs": [
						{
							"internalType": "uint256",
							"name": "",
							"type": "uint256"
						}
					],
					"stateMutability": "view",
					"type": "function"
				},
				{
					"inputs": [
						{
							"internalType": "uint256",
							"name": "",
							"type": "uint256"
						}
					],
					"name": "votings",
					"outputs": [
						{
							"internalType": "uint256",
							"name": "candidatesCount",
							"type": "uint256"
						},
						{
							"internalType": "bool",
							"name": "active",
							"type": "bool"
						}
					],
					"stateMutability": "view",
					"type": "function"
				}
			],
			"devdoc": {
				"kind": "dev",
				"methods": {},
				"version": 1
			},
			"evm": {
				"assembly": "    /* \"contracts/Voting.sol\":60:4075  contract SecureVoting {... */\n  mstore(0x40, 0x80)\n    /* \"contracts/Voting.sol\":1242:1294  constructor() {... */\n  callvalue\n  dup1\n  iszero\n  tag_1\n  jumpi\n  0x00\n  dup1\n  revert\ntag_1:\n  pop\n    /* \"contracts/Voting.sol\":1275:1285  msg.sender */\n  caller\n    /* \"contracts/Voting.sol\":1267:1272  admin */\n  0x03\n  0x00\n    /* \"contracts/Voting.sol\":1267:1285  admin = msg.sender */\n  0x0100\n  exp\n  dup2\n  sload\n  dup2\n  0xffffffffffffffffffffffffffffffffffffffff\n  mul\n  not\n  and\n  swap1\n  dup4\n  0xffffffffffffffffffffffffffffffffffffffff\n  and\n  mul\n  or\n  swap1\n  sstore\n  pop\n    /* \"contracts/Voting.sol\":60:4075  contract SecureVoting {... */\n  dataSize(sub_0)\n  dup1\n  dataOffset(sub_0)\n  0x00\n  codecopy\n  0x00\n  return\nstop\n\nsub_0: assembly {\n        /* \"contracts/Voting.sol\":60:4075  contract SecureVoting {... */\n      mstore(0x40, 0x80)\n      callvalue\n      dup1\n      iszero\n      tag_1\n      jumpi\n      0x00\n      dup1\n      revert\n    tag_1:\n      pop\n      jumpi(tag_2, lt(calldatasize, 0x04))\n      shr(0xe0, calldataload(0x00))\n      dup1\n      0xa9ff6df1\n      gt\n      tag_15\n      jumpi\n      dup1\n      0xa9ff6df1\n      eq\n      tag_9\n      jumpi\n      dup1\n      0xb384abef\n      eq\n      tag_10\n      jumpi\n      dup1\n      0xb424ab84\n      eq\n      tag_11\n      jumpi\n      dup1\n      0xba538043\n      eq\n      tag_12\n      jumpi\n      dup1\n      0xde2e19a0\n      eq\n      tag_13\n      jumpi\n      dup1\n      0xf851a440\n      eq\n      tag_14\n      jumpi\n      jump(tag_2)\n    tag_15:\n      dup1\n      0x38db6dd3\n      eq\n      tag_3\n      jumpi\n      dup1\n      0x3d2f5bda\n      eq\n      tag_4\n      jumpi\n      dup1\n      0x3e39a7a5\n      eq\n      tag_5\n      jumpi\n      dup1\n      0x464fcbc3\n      eq\n      tag_6\n      jumpi\n      dup1\n      0x649f89a5\n      eq\n      tag_7\n      jumpi\n      dup1\n      0xa598d03c\n      eq\n      tag_8\n      jumpi\n    tag_2:\n      0x00\n      dup1\n      revert\n        /* \"contracts/Voting.sol\":1846:2064  function registerVoter(address voter) public onlyAdmin {... */\n    tag_3:\n      tag_16\n      0x04\n      dup1\n      calldatasize\n      sub\n      dup2\n      add\n      swap1\n      tag_17\n      swap2\n      swap1\n      tag_18\n      jump\t// in\n    tag_17:\n      tag_19\n      jump\t// in\n    tag_16:\n      stop\n        /* \"contracts/Voting.sol\":2668:2884  function startVoting(uint votingId) public onlyAdmin {... */\n    tag_4:\n      tag_20\n      0x04\n      dup1\n      calldatasize\n      sub\n      dup2\n      add\n      swap1\n      tag_21\n      swap2\n      swap1\n      tag_22\n      jump\t// in\n    tag_21:\n      tag_23\n      jump\t// in\n    tag_20:\n      stop\n        /* \"contracts/Voting.sol\":3118:3507  function getCandidates(uint votingId) public view returns (Candidate[] memory) {... */\n    tag_5:\n      tag_24\n      0x04\n      dup1\n      calldatasize\n      sub\n      dup2\n      add\n      swap1\n      tag_25\n      swap2\n      swap1\n      tag_22\n      jump\t// in\n    tag_25:\n      tag_26\n      jump\t// in\n    tag_24:\n      mload(0x40)\n      tag_27\n      swap2\n      swap1\n      tag_28\n      jump\t// in\n    tag_27:\n      mload(0x40)\n      dup1\n      swap2\n      sub\n      swap1\n      return\n        /* \"contracts/Voting.sol\":3796:4072  function getVoteTimestamp(uint votingId, address voter) public view returns (uint256) {... */\n    tag_6:\n      tag_29\n      0x04\n      dup1\n      calldatasize\n      sub\n      dup2\n      add\n      swap1\n      tag_30\n      swap2\n      swap1\n      tag_31\n      jump\t// in\n    tag_30:\n      tag_32\n      jump\t// in\n    tag_29:\n      mload(0x40)\n      tag_33\n      swap2\n      swap1\n      tag_34\n      jump\t// in\n    tag_33:\n      mload(0x40)\n      dup1\n      swap2\n      sub\n      swap1\n      return\n        /* \"contracts/Voting.sol\":2892:3110  function endVoting(uint votingId) public onlyAdmin {... */\n    tag_7:\n      tag_35\n      0x04\n      dup1\n      calldatasize\n      sub\n      dup2\n      add\n      swap1\n      tag_36\n      swap2\n      swap1\n      tag_22\n      jump\t// in\n    tag_36:\n      tag_37\n      jump\t// in\n    tag_35:\n      stop\n        /* \"contracts/Voting.sol\":413:451  mapping(uint => Voting) public votings */\n    tag_8:\n      tag_38\n      0x04\n      dup1\n      calldatasize\n      sub\n      dup2\n      add\n      swap1\n      tag_39\n      swap2\n      swap1\n      tag_22\n      jump\t// in\n    tag_39:\n      tag_40\n      jump\t// in\n    tag_38:\n      mload(0x40)\n      tag_41\n      swap3\n      swap2\n      swap1\n      tag_42\n      jump\t// in\n    tag_41:\n      mload(0x40)\n      dup1\n      swap2\n      sub\n      swap1\n      return\n        /* \"contracts/Voting.sol\":458:506  mapping(address => bool) public registeredVoters */\n    tag_9:\n      tag_43\n      0x04\n      dup1\n      calldatasize\n      sub\n      dup2\n      add\n      swap1\n      tag_44\n      swap2\n      swap1\n      tag_18\n      jump\t// in\n    tag_44:\n      tag_45\n      jump\t// in\n    tag_43:\n      mload(0x40)\n      tag_46\n      swap2\n      swap1\n      tag_47\n      jump\t// in\n    tag_46:\n      mload(0x40)\n      dup1\n      swap2\n      sub\n      swap1\n      return\n        /* \"contracts/Voting.sol\":2072:2660  function vote(uint votingId, uint candidateId) public onlyRegisteredVoter votingOpen(votingId) {... */\n    tag_10:\n      tag_48\n      0x04\n      dup1\n      calldatasize\n      sub\n      dup2\n      add\n      swap1\n      tag_49\n      swap2\n      swap1\n      tag_50\n      jump\t// in\n    tag_49:\n      tag_51\n      jump\t// in\n    tag_48:\n      stop\n        /* \"contracts/Voting.sol\":515:538  uint public votingCount */\n    tag_11:\n      tag_52\n      tag_53\n      jump\t// in\n    tag_52:\n      mload(0x40)\n      tag_54\n      swap2\n      swap1\n      tag_34\n      jump\t// in\n    tag_54:\n      mload(0x40)\n      dup1\n      swap2\n      sub\n      swap1\n      return\n        /* \"contracts/Voting.sol\":1302:1617  function createVoting(string[] memory candidateNames) public onlyAdmin {... */\n    tag_12:\n      tag_55\n      0x04\n      dup1\n      calldatasize\n      sub\n      dup2\n      add\n      swap1\n      tag_56\n      swap2\n      swap1\n      tag_57\n      jump\t// in\n    tag_56:\n      tag_58\n      jump\t// in\n    tag_55:\n      stop\n        /* \"contracts/Voting.sol\":3517:3788  function getVoteCount(uint votingId, uint candidateId) public view returns (uint) {... */\n    tag_13:\n      tag_59\n      0x04\n      dup1\n      calldatasize\n      sub\n      dup2\n      add\n      swap1\n      tag_60\n      swap2\n      swap1\n      tag_50\n      jump\t// in\n    tag_60:\n      tag_61\n      jump\t// in\n    tag_59:\n      mload(0x40)\n      tag_62\n      swap2\n      swap1\n      tag_34\n      jump\t// in\n    tag_62:\n      mload(0x40)\n      dup1\n      swap2\n      sub\n      swap1\n      return\n        /* \"contracts/Voting.sol\":545:565  address public admin */\n    tag_14:\n      tag_63\n      tag_64\n      jump\t// in\n    tag_63:\n      mload(0x40)\n      tag_65\n      swap2\n      swap1\n      tag_66\n      jump\t// in\n    tag_65:\n      mload(0x40)\n      dup1\n      swap2\n      sub\n      swap1\n      return\n        /* \"contracts/Voting.sol\":1846:2064  function registerVoter(address voter) public onlyAdmin {... */\n    tag_19:\n        /* \"contracts/Voting.sol\":886:891  admin */\n      0x03\n      0x00\n      swap1\n      sload\n      swap1\n      0x0100\n      exp\n      swap1\n      div\n      0xffffffffffffffffffffffffffffffffffffffff\n      and\n        /* \"contracts/Voting.sol\":872:891  msg.sender == admin */\n      0xffffffffffffffffffffffffffffffffffffffff\n      and\n        /* \"contracts/Voting.sol\":872:882  msg.sender */\n      caller\n        /* \"contracts/Voting.sol\":872:891  msg.sender == admin */\n      0xffffffffffffffffffffffffffffffffffffffff\n      and\n      eq\n        /* \"contracts/Voting.sol\":864:930  require(msg.sender == admin, \"Only admin can call this function.\") */\n      tag_68\n      jumpi\n      mload(0x40)\n      0x08c379a000000000000000000000000000000000000000000000000000000000\n      dup2\n      mstore\n      0x04\n      add\n      tag_69\n      swap1\n      tag_70\n      jump\t// in\n    tag_69:\n      mload(0x40)\n      dup1\n      swap2\n      sub\n      swap1\n      revert\n    tag_68:\n        /* \"contracts/Voting.sol\":1921:1937  registeredVoters */\n      0x01\n        /* \"contracts/Voting.sol\":1921:1944  registeredVoters[voter] */\n      0x00\n        /* \"contracts/Voting.sol\":1938:1943  voter */\n      dup3\n        /* \"contracts/Voting.sol\":1921:1944  registeredVoters[voter] */\n      0xffffffffffffffffffffffffffffffffffffffff\n      and\n      0xffffffffffffffffffffffffffffffffffffffff\n      and\n      dup2\n      mstore\n      0x20\n      add\n      swap1\n      dup2\n      mstore\n      0x20\n      add\n      0x00\n      keccak256\n      0x00\n      swap1\n      sload\n      swap1\n      0x0100\n      exp\n      swap1\n      div\n      0xff\n      and\n        /* \"contracts/Voting.sol\":1920:1944  !registeredVoters[voter] */\n      iszero\n        /* \"contracts/Voting.sol\":1912:1977  require(!registeredVoters[voter], \"Voter is already registered.\") */\n      tag_72\n      jumpi\n      mload(0x40)\n      0x08c379a000000000000000000000000000000000000000000000000000000000\n      dup2\n      mstore\n      0x04\n      add\n      tag_73\n      swap1\n      tag_74\n      jump\t// in\n    tag_73:\n      mload(0x40)\n      dup1\n      swap2\n      sub\n      swap1\n      revert\n    tag_72:\n        /* \"contracts/Voting.sol\":2014:2018  true */\n      0x01\n        /* \"contracts/Voting.sol\":1988:2004  registeredVoters */\n      dup1\n        /* \"contracts/Voting.sol\":1988:2011  registeredVoters[voter] */\n      0x00\n        /* \"contracts/Voting.sol\":2005:2010  voter */\n      dup4\n        /* \"contracts/Voting.sol\":1988:2011  registeredVoters[voter] */\n      0xffffffffffffffffffffffffffffffffffffffff\n      and\n      0xffffffffffffffffffffffffffffffffffffffff\n      and\n      dup2\n      mstore\n      0x20\n      add\n      swap1\n      dup2\n      mstore\n      0x20\n      add\n      0x00\n      keccak256\n      0x00\n        /* \"contracts/Voting.sol\":1988:2018  registeredVoters[voter] = true */\n      0x0100\n      exp\n      dup2\n      sload\n      dup2\n      0xff\n      mul\n      not\n      and\n      swap1\n      dup4\n      iszero\n      iszero\n      mul\n      or\n      swap1\n      sstore\n      pop\n        /* \"contracts/Voting.sol\":2050:2055  voter */\n      dup1\n        /* \"contracts/Voting.sol\":2034:2056  VoterRegistered(voter) */\n      0xffffffffffffffffffffffffffffffffffffffff\n      and\n      0xb6be2187d059cc2a55fe29e0e503b566e1e0f8c8780096e185429350acffd3dd\n      mload(0x40)\n      mload(0x40)\n      dup1\n      swap2\n      sub\n      swap1\n      log2\n        /* \"contracts/Voting.sol\":1846:2064  function registerVoter(address voter) public onlyAdmin {... */\n      pop\n      jump\t// out\n        /* \"contracts/Voting.sol\":2668:2884  function startVoting(uint votingId) public onlyAdmin {... */\n    tag_23:\n        /* \"contracts/Voting.sol\":886:891  admin */\n      0x03\n      0x00\n      swap1\n      sload\n      swap1\n      0x0100\n      exp\n      swap1\n      div\n      0xffffffffffffffffffffffffffffffffffffffff\n      and\n        /* \"contracts/Voting.sol\":872:891  msg.sender == admin */\n      0xffffffffffffffffffffffffffffffffffffffff\n      and\n        /* \"contracts/Voting.sol\":872:882  msg.sender */\n      caller\n        /* \"contracts/Voting.sol\":872:891  msg.sender == admin */\n      0xffffffffffffffffffffffffffffffffffffffff\n      and\n      eq\n        /* \"contracts/Voting.sol\":864:930  require(msg.sender == admin, \"Only admin can call this function.\") */\n      tag_76\n      jumpi\n      mload(0x40)\n      0x08c379a000000000000000000000000000000000000000000000000000000000\n      dup2\n      mstore\n      0x04\n      add\n      tag_77\n      swap1\n      tag_70\n      jump\t// in\n    tag_77:\n      mload(0x40)\n      dup1\n      swap2\n      sub\n      swap1\n      revert\n    tag_76:\n        /* \"contracts/Voting.sol\":2741:2748  votings */\n      0x00\n        /* \"contracts/Voting.sol\":2741:2758  votings[votingId] */\n      dup1\n        /* \"contracts/Voting.sol\":2749:2757  votingId */\n      dup3\n        /* \"contracts/Voting.sol\":2741:2758  votings[votingId] */\n      dup2\n      mstore\n      0x20\n      add\n      swap1\n      dup2\n      mstore\n      0x20\n      add\n      0x00\n      keccak256\n        /* \"contracts/Voting.sol\":2741:2765  votings[votingId].active */\n      0x04\n      add\n      0x00\n      swap1\n      sload\n      swap1\n      0x0100\n      exp\n      swap1\n      div\n      0xff\n      and\n        /* \"contracts/Voting.sol\":2740:2765  !votings[votingId].active */\n      iszero\n        /* \"contracts/Voting.sol\":2732:2795  require(!votings[votingId].active, \"Voting is already active.\") */\n      tag_79\n      jumpi\n      mload(0x40)\n      0x08c379a000000000000000000000000000000000000000000000000000000000\n      dup2\n      mstore\n      0x04\n      add\n      tag_80\n      swap1\n      tag_81\n      jump\t// in\n    tag_80:\n      mload(0x40)\n      dup1\n      swap2\n      sub\n      swap1\n      revert\n    tag_79:\n        /* \"contracts/Voting.sol\":2833:2837  true */\n      0x01\n        /* \"contracts/Voting.sol\":2806:2813  votings */\n      0x00\n        /* \"contracts/Voting.sol\":2806:2823  votings[votingId] */\n      dup1\n        /* \"contracts/Voting.sol\":2814:2822  votingId */\n      dup4\n        /* \"contracts/Voting.sol\":2806:2823  votings[votingId] */\n      dup2\n      mstore\n      0x20\n      add\n      swap1\n      dup2\n      mstore\n      0x20\n      add\n      0x00\n      keccak256\n        /* \"contracts/Voting.sol\":2806:2830  votings[votingId].active */\n      0x04\n      add\n      0x00\n        /* \"contracts/Voting.sol\":2806:2837  votings[votingId].active = true */\n      0x0100\n      exp\n      dup2\n      sload\n      dup2\n      0xff\n      mul\n      not\n      and\n      swap1\n      dup4\n      iszero\n      iszero\n      mul\n      or\n      swap1\n      sstore\n      pop\n        /* \"contracts/Voting.sol\":2867:2875  votingId */\n      dup1\n        /* \"contracts/Voting.sol\":2853:2876  VotingStarted(votingId) */\n      0xcf33babc496bb6dc2942b39cb7b75766bbbadf7da50d176ff8c513e991140239\n      mload(0x40)\n      mload(0x40)\n      dup1\n      swap2\n      sub\n      swap1\n      log2\n        /* \"contracts/Voting.sol\":2668:2884  function startVoting(uint votingId) public onlyAdmin {... */\n      pop\n      jump\t// out\n        /* \"contracts/Voting.sol\":3118:3507  function getCandidates(uint votingId) public view returns (Candidate[] memory) {... */\n    tag_26:\n        /* \"contracts/Voting.sol\":3177:3195  Candidate[] memory */\n      0x60\n        /* \"contracts/Voting.sol\":3208:3229  Voting storage voting */\n      0x00\n        /* \"contracts/Voting.sol\":3232:3239  votings */\n      dup1\n        /* \"contracts/Voting.sol\":3232:3249  votings[votingId] */\n      0x00\n        /* \"contracts/Voting.sol\":3240:3248  votingId */\n      dup5\n        /* \"contracts/Voting.sol\":3232:3249  votings[votingId] */\n      dup2\n      mstore\n      0x20\n      add\n      swap1\n      dup2\n      mstore\n      0x20\n      add\n      0x00\n      keccak256\n        /* \"contracts/Voting.sol\":3208:3249  Voting storage voting = votings[votingId] */\n      swap1\n      pop\n        /* \"contracts/Voting.sol\":3260:3293  Candidate[] memory candidateArray */\n      0x00\n        /* \"contracts/Voting.sol\":3312:3318  voting */\n      dup2\n        /* \"contracts/Voting.sol\":3312:3334  voting.candidatesCount */\n      0x03\n      add\n      sload\n        /* \"contracts/Voting.sol\":3296:3335  new Candidate[](voting.candidatesCount) */\n      0xffffffffffffffff\n      dup2\n      gt\n      iszero\n      tag_83\n      jumpi\n      tag_84\n      tag_85\n      jump\t// in\n    tag_84:\n    tag_83:\n      mload(0x40)\n      swap1\n      dup1\n      dup3\n      mstore\n      dup1\n      0x20\n      mul\n      0x20\n      add\n      dup3\n      add\n      0x40\n      mstore\n      dup1\n      iszero\n      tag_86\n      jumpi\n      dup2\n      0x20\n      add\n    tag_87:\n      tag_88\n      tag_89\n      jump\t// in\n    tag_88:\n      dup2\n      mstore\n      0x20\n      add\n      swap1\n      0x01\n      swap1\n      sub\n      swap1\n      dup2\n      tag_87\n      jumpi\n      swap1\n      pop\n    tag_86:\n      pop\n        /* \"contracts/Voting.sol\":3260:3335  Candidate[] memory candidateArray = new Candidate[](voting.candidatesCount) */\n      swap1\n      pop\n        /* \"contracts/Voting.sol\":3351:3357  uint i */\n      0x00\n        /* \"contracts/Voting.sol\":3360:3361  1 */\n      0x01\n        /* \"contracts/Voting.sol\":3351:3361  uint i = 1 */\n      swap1\n      pop\n        /* \"contracts/Voting.sol\":3346:3468  for (uint i = 1; i <= voting.candidatesCount; i++) {... */\n    tag_90:\n        /* \"contracts/Voting.sol\":3368:3374  voting */\n      dup3\n        /* \"contracts/Voting.sol\":3368:3390  voting.candidatesCount */\n      0x03\n      add\n      sload\n        /* \"contracts/Voting.sol\":3363:3364  i */\n      dup2\n        /* \"contracts/Voting.sol\":3363:3390  i <= voting.candidatesCount */\n      gt\n        /* \"contracts/Voting.sol\":3346:3468  for (uint i = 1; i <= voting.candidatesCount; i++) {... */\n      tag_91\n      jumpi\n        /* \"contracts/Voting.sol\":3436:3442  voting */\n      dup3\n        /* \"contracts/Voting.sol\":3436:3453  voting.candidates */\n      0x00\n      add\n        /* \"contracts/Voting.sol\":3436:3456  voting.candidates[i] */\n      0x00\n        /* \"contracts/Voting.sol\":3454:3455  i */\n      dup3\n        /* \"contracts/Voting.sol\":3436:3456  voting.candidates[i] */\n      dup2\n      mstore\n      0x20\n      add\n      swap1\n      dup2\n      mstore\n      0x20\n      add\n      0x00\n      keccak256\n        /* \"contracts/Voting.sol\":3412:3456  candidateArray[i - 1] = voting.candidates[i] */\n      mload(0x40)\n      dup1\n      0x60\n      add\n      0x40\n      mstore\n      swap1\n      dup2\n      0x00\n      dup3\n      add\n      sload\n      dup2\n      mstore\n      0x20\n      add\n      0x01\n      dup3\n      add\n      dup1\n      sload\n      tag_93\n      swap1\n      tag_94\n      jump\t// in\n    tag_93:\n      dup1\n      0x1f\n      add\n      0x20\n      dup1\n      swap2\n      div\n      mul\n      0x20\n      add\n      mload(0x40)\n      swap1\n      dup2\n      add\n      0x40\n      mstore\n      dup1\n      swap3\n      swap2\n      swap1\n      dup2\n      dup2\n      mstore\n      0x20\n      add\n      dup3\n      dup1\n      sload\n      tag_95\n      swap1\n      tag_94\n      jump\t// in\n    tag_95:\n      dup1\n      iszero\n      tag_96\n      jumpi\n      dup1\n      0x1f\n      lt\n      tag_97\n      jumpi\n      0x0100\n      dup1\n      dup4\n      sload\n      div\n      mul\n      dup4\n      mstore\n      swap2\n      0x20\n      add\n      swap2\n      jump(tag_96)\n    tag_97:\n      dup3\n      add\n      swap2\n      swap1\n      0x00\n      mstore\n      keccak256(0x00, 0x20)\n      swap1\n    tag_98:\n      dup2\n      sload\n      dup2\n      mstore\n      swap1\n      0x01\n      add\n      swap1\n      0x20\n      add\n      dup1\n      dup4\n      gt\n      tag_98\n      jumpi\n      dup3\n      swap1\n      sub\n      0x1f\n      and\n      dup3\n      add\n      swap2\n    tag_96:\n      pop\n      pop\n      pop\n      pop\n      pop\n      dup2\n      mstore\n      0x20\n      add\n      0x02\n      dup3\n      add\n      sload\n      dup2\n      mstore\n      pop\n      pop\n        /* \"contracts/Voting.sol\":3412:3426  candidateArray */\n      dup3\n        /* \"contracts/Voting.sol\":3431:3432  1 */\n      0x01\n        /* \"contracts/Voting.sol\":3427:3428  i */\n      dup4\n        /* \"contracts/Voting.sol\":3427:3432  i - 1 */\n      tag_99\n      swap2\n      swap1\n      tag_100\n      jump\t// in\n    tag_99:\n        /* \"contracts/Voting.sol\":3412:3433  candidateArray[i - 1] */\n      dup2\n      mload\n      dup2\n      lt\n      tag_101\n      jumpi\n      tag_102\n      tag_103\n      jump\t// in\n    tag_102:\n    tag_101:\n      0x20\n      mul\n      0x20\n      add\n      add\n        /* \"contracts/Voting.sol\":3412:3456  candidateArray[i - 1] = voting.candidates[i] */\n      dup2\n      swap1\n      mstore\n      pop\n        /* \"contracts/Voting.sol\":3392:3395  i++ */\n      dup1\n      dup1\n      tag_104\n      swap1\n      tag_105\n      jump\t// in\n    tag_104:\n      swap2\n      pop\n      pop\n        /* \"contracts/Voting.sol\":3346:3468  for (uint i = 1; i <= voting.candidatesCount; i++) {... */\n      jump(tag_90)\n    tag_91:\n      pop\n        /* \"contracts/Voting.sol\":3485:3499  candidateArray */\n      dup1\n        /* \"contracts/Voting.sol\":3478:3499  return candidateArray */\n      swap3\n      pop\n      pop\n      pop\n        /* \"contracts/Voting.sol\":3118:3507  function getCandidates(uint votingId) public view returns (Candidate[] memory) {... */\n      swap2\n      swap1\n      pop\n      jump\t// out\n        /* \"contracts/Voting.sol\":3796:4072  function getVoteTimestamp(uint votingId, address voter) public view returns (uint256) {... */\n    tag_32:\n        /* \"contracts/Voting.sol\":3873:3880  uint256 */\n      0x00\n        /* \"contracts/Voting.sol\":3893:3914  Voting storage voting */\n      dup1\n        /* \"contracts/Voting.sol\":3917:3924  votings */\n      0x00\n        /* \"contracts/Voting.sol\":3917:3934  votings[votingId] */\n      dup1\n        /* \"contracts/Voting.sol\":3925:3933  votingId */\n      dup6\n        /* \"contracts/Voting.sol\":3917:3934  votings[votingId] */\n      dup2\n      mstore\n      0x20\n      add\n      swap1\n      dup2\n      mstore\n      0x20\n      add\n      0x00\n      keccak256\n        /* \"contracts/Voting.sol\":3893:3934  Voting storage voting = votings[votingId] */\n      swap1\n      pop\n        /* \"contracts/Voting.sol\":3953:3959  voting */\n      dup1\n        /* \"contracts/Voting.sol\":3953:3966  voting.voters */\n      0x01\n      add\n        /* \"contracts/Voting.sol\":3953:3973  voting.voters[voter] */\n      0x00\n        /* \"contracts/Voting.sol\":3967:3972  voter */\n      dup5\n        /* \"contracts/Voting.sol\":3953:3973  voting.voters[voter] */\n      0xffffffffffffffffffffffffffffffffffffffff\n      and\n      0xffffffffffffffffffffffffffffffffffffffff\n      and\n      dup2\n      mstore\n      0x20\n      add\n      swap1\n      dup2\n      mstore\n      0x20\n      add\n      0x00\n      keccak256\n      0x00\n      swap1\n      sload\n      swap1\n      0x0100\n      exp\n      swap1\n      div\n      0xff\n      and\n        /* \"contracts/Voting.sol\":3945:4018  require(voting.voters[voter], \"This voter has not voted in this voting.\") */\n      tag_107\n      jumpi\n      mload(0x40)\n      0x08c379a000000000000000000000000000000000000000000000000000000000\n      dup2\n      mstore\n      0x04\n      add\n      tag_108\n      swap1\n      tag_109\n      jump\t// in\n    tag_108:\n      mload(0x40)\n      dup1\n      swap2\n      sub\n      swap1\n      revert\n    tag_107:\n        /* \"contracts/Voting.sol\":4036:4042  voting */\n      dup1\n        /* \"contracts/Voting.sol\":4036:4057  voting.voteTimestamps */\n      0x02\n      add\n        /* \"contracts/Voting.sol\":4036:4064  voting.voteTimestamps[voter] */\n      0x00\n        /* \"contracts/Voting.sol\":4058:4063  voter */\n      dup5\n        /* \"contracts/Voting.sol\":4036:4064  voting.voteTimestamps[voter] */\n      0xffffffffffffffffffffffffffffffffffffffff\n      and\n      0xffffffffffffffffffffffffffffffffffffffff\n      and\n      dup2\n      mstore\n      0x20\n      add\n      swap1\n      dup2\n      mstore\n      0x20\n      add\n      0x00\n      keccak256\n      sload\n        /* \"contracts/Voting.sol\":4029:4064  return voting.voteTimestamps[voter] */\n      swap2\n      pop\n      pop\n        /* \"contracts/Voting.sol\":3796:4072  function getVoteTimestamp(uint votingId, address voter) public view returns (uint256) {... */\n      swap3\n      swap2\n      pop\n      pop\n      jump\t// out\n        /* \"contracts/Voting.sol\":2892:3110  function endVoting(uint votingId) public onlyAdmin {... */\n    tag_37:\n        /* \"contracts/Voting.sol\":886:891  admin */\n      0x03\n      0x00\n      swap1\n      sload\n      swap1\n      0x0100\n      exp\n      swap1\n      div\n      0xffffffffffffffffffffffffffffffffffffffff\n      and\n        /* \"contracts/Voting.sol\":872:891  msg.sender == admin */\n      0xffffffffffffffffffffffffffffffffffffffff\n      and\n        /* \"contracts/Voting.sol\":872:882  msg.sender */\n      caller\n        /* \"contracts/Voting.sol\":872:891  msg.sender == admin */\n      0xffffffffffffffffffffffffffffffffffffffff\n      and\n      eq\n        /* \"contracts/Voting.sol\":864:930  require(msg.sender == admin, \"Only admin can call this function.\") */\n      tag_111\n      jumpi\n      mload(0x40)\n      0x08c379a000000000000000000000000000000000000000000000000000000000\n      dup2\n      mstore\n      0x04\n      add\n      tag_112\n      swap1\n      tag_70\n      jump\t// in\n    tag_112:\n      mload(0x40)\n      dup1\n      swap2\n      sub\n      swap1\n      revert\n    tag_111:\n        /* \"contracts/Voting.sol\":2962:2969  votings */\n      0x00\n        /* \"contracts/Voting.sol\":2962:2979  votings[votingId] */\n      dup1\n        /* \"contracts/Voting.sol\":2970:2978  votingId */\n      dup3\n        /* \"contracts/Voting.sol\":2962:2979  votings[votingId] */\n      dup2\n      mstore\n      0x20\n      add\n      swap1\n      dup2\n      mstore\n      0x20\n      add\n      0x00\n      keccak256\n        /* \"contracts/Voting.sol\":2962:2986  votings[votingId].active */\n      0x04\n      add\n      0x00\n      swap1\n      sload\n      swap1\n      0x0100\n      exp\n      swap1\n      div\n      0xff\n      and\n        /* \"contracts/Voting.sol\":2954:3022  require(votings[votingId].active, \"Voting is not currently active.\") */\n      tag_114\n      jumpi\n      mload(0x40)\n      0x08c379a000000000000000000000000000000000000000000000000000000000\n      dup2\n      mstore\n      0x04\n      add\n      tag_115\n      swap1\n      tag_116\n      jump\t// in\n    tag_115:\n      mload(0x40)\n      dup1\n      swap2\n      sub\n      swap1\n      revert\n    tag_114:\n        /* \"contracts/Voting.sol\":3060:3065  false */\n      0x00\n        /* \"contracts/Voting.sol\":3033:3040  votings */\n      dup1\n        /* \"contracts/Voting.sol\":3033:3050  votings[votingId] */\n      0x00\n        /* \"contracts/Voting.sol\":3041:3049  votingId */\n      dup4\n        /* \"contracts/Voting.sol\":3033:3050  votings[votingId] */\n      dup2\n      mstore\n      0x20\n      add\n      swap1\n      dup2\n      mstore\n      0x20\n      add\n      0x00\n      keccak256\n        /* \"contracts/Voting.sol\":3033:3057  votings[votingId].active */\n      0x04\n      add\n      0x00\n        /* \"contracts/Voting.sol\":3033:3065  votings[votingId].active = false */\n      0x0100\n      exp\n      dup2\n      sload\n      dup2\n      0xff\n      mul\n      not\n      and\n      swap1\n      dup4\n      iszero\n      iszero\n      mul\n      or\n      swap1\n      sstore\n      pop\n        /* \"contracts/Voting.sol\":3093:3101  votingId */\n      dup1\n        /* \"contracts/Voting.sol\":3081:3102  VotingEnded(votingId) */\n      0x81eb7415440ff8e6c8e92606fd3b0e5e6a5c99ea90cdb63b41aec54e897312b3\n      mload(0x40)\n      mload(0x40)\n      dup1\n      swap2\n      sub\n      swap1\n      log2\n        /* \"contracts/Voting.sol\":2892:3110  function endVoting(uint votingId) public onlyAdmin {... */\n      pop\n      jump\t// out\n        /* \"contracts/Voting.sol\":413:451  mapping(uint => Voting) public votings */\n    tag_40:\n      mstore(0x20, 0x00)\n      dup1\n      0x00\n      mstore\n      keccak256(0x00, 0x40)\n      0x00\n      swap2\n      pop\n      swap1\n      pop\n      dup1\n      0x03\n      add\n      sload\n      swap1\n      dup1\n      0x04\n      add\n      0x00\n      swap1\n      sload\n      swap1\n      0x0100\n      exp\n      swap1\n      div\n      0xff\n      and\n      swap1\n      pop\n      dup3\n      jump\t// out\n        /* \"contracts/Voting.sol\":458:506  mapping(address => bool) public registeredVoters */\n    tag_45:\n      mstore(0x20, 0x01)\n      dup1\n      0x00\n      mstore\n      keccak256(0x00, 0x40)\n      0x00\n      swap2\n      pop\n      sload\n      swap1\n      0x0100\n      exp\n      swap1\n      div\n      0xff\n      and\n      dup2\n      jump\t// out\n        /* \"contracts/Voting.sol\":2072:2660  function vote(uint votingId, uint candidateId) public onlyRegisteredVoter votingOpen(votingId) {... */\n    tag_51:\n        /* \"contracts/Voting.sol\":1008:1024  registeredVoters */\n      0x01\n        /* \"contracts/Voting.sol\":1008:1036  registeredVoters[msg.sender] */\n      0x00\n        /* \"contracts/Voting.sol\":1025:1035  msg.sender */\n      caller\n        /* \"contracts/Voting.sol\":1008:1036  registeredVoters[msg.sender] */\n      0xffffffffffffffffffffffffffffffffffffffff\n      and\n      0xffffffffffffffffffffffffffffffffffffffff\n      and\n      dup2\n      mstore\n      0x20\n      add\n      swap1\n      dup2\n      mstore\n      0x20\n      add\n      0x00\n      keccak256\n      0x00\n      swap1\n      sload\n      swap1\n      0x0100\n      exp\n      swap1\n      div\n      0xff\n      and\n        /* \"contracts/Voting.sol\":1000:1072  require(registeredVoters[msg.sender], \"You must be a registered voter.\") */\n      tag_118\n      jumpi\n      mload(0x40)\n      0x08c379a000000000000000000000000000000000000000000000000000000000\n      dup2\n      mstore\n      0x04\n      add\n      tag_119\n      swap1\n      tag_120\n      jump\t// in\n    tag_119:\n      mload(0x40)\n      dup1\n      swap2\n      sub\n      swap1\n      revert\n    tag_118:\n        /* \"contracts/Voting.sol\":2157:2165  votingId */\n      dup2\n        /* \"contracts/Voting.sol\":1154:1161  votings */\n      0x00\n        /* \"contracts/Voting.sol\":1154:1171  votings[votingId] */\n      dup1\n        /* \"contracts/Voting.sol\":1162:1170  votingId */\n      dup3\n        /* \"contracts/Voting.sol\":1154:1171  votings[votingId] */\n      dup2\n      mstore\n      0x20\n      add\n      swap1\n      dup2\n      mstore\n      0x20\n      add\n      0x00\n      keccak256\n        /* \"contracts/Voting.sol\":1154:1178  votings[votingId].active */\n      0x04\n      add\n      0x00\n      swap1\n      sload\n      swap1\n      0x0100\n      exp\n      swap1\n      div\n      0xff\n      and\n        /* \"contracts/Voting.sol\":1146:1214  require(votings[votingId].active, \"Voting is not currently active.\") */\n      tag_122\n      jumpi\n      mload(0x40)\n      0x08c379a000000000000000000000000000000000000000000000000000000000\n      dup2\n      mstore\n      0x04\n      add\n      tag_123\n      swap1\n      tag_116\n      jump\t// in\n    tag_123:\n      mload(0x40)\n      dup1\n      swap2\n      sub\n      swap1\n      revert\n    tag_122:\n        /* \"contracts/Voting.sol\":2178:2199  Voting storage voting */\n      0x00\n        /* \"contracts/Voting.sol\":2202:2209  votings */\n      dup1\n        /* \"contracts/Voting.sol\":2202:2219  votings[votingId] */\n      0x00\n        /* \"contracts/Voting.sol\":2210:2218  votingId */\n      dup6\n        /* \"contracts/Voting.sol\":2202:2219  votings[votingId] */\n      dup2\n      mstore\n      0x20\n      add\n      swap1\n      dup2\n      mstore\n      0x20\n      add\n      0x00\n      keccak256\n        /* \"contracts/Voting.sol\":2178:2219  Voting storage voting = votings[votingId] */\n      swap1\n      pop\n        /* \"contracts/Voting.sol\":2239:2245  voting */\n      dup1\n        /* \"contracts/Voting.sol\":2239:2252  voting.voters */\n      0x01\n      add\n        /* \"contracts/Voting.sol\":2239:2264  voting.voters[msg.sender] */\n      0x00\n        /* \"contracts/Voting.sol\":2253:2263  msg.sender */\n      caller\n        /* \"contracts/Voting.sol\":2239:2264  voting.voters[msg.sender] */\n      0xffffffffffffffffffffffffffffffffffffffff\n      and\n      0xffffffffffffffffffffffffffffffffffffffff\n      and\n      dup2\n      mstore\n      0x20\n      add\n      swap1\n      dup2\n      mstore\n      0x20\n      add\n      0x00\n      keccak256\n      0x00\n      swap1\n      sload\n      swap1\n      0x0100\n      exp\n      swap1\n      div\n      0xff\n      and\n        /* \"contracts/Voting.sol\":2238:2264  !voting.voters[msg.sender] */\n      iszero\n        /* \"contracts/Voting.sol\":2230:2307  require(!voting.voters[msg.sender], \"You have already voted in this voting.\") */\n      tag_125\n      jumpi\n      mload(0x40)\n      0x08c379a000000000000000000000000000000000000000000000000000000000\n      dup2\n      mstore\n      0x04\n      add\n      tag_126\n      swap1\n      tag_127\n      jump\t// in\n    tag_126:\n      mload(0x40)\n      dup1\n      swap2\n      sub\n      swap1\n      revert\n    tag_125:\n        /* \"contracts/Voting.sol\":2340:2341  0 */\n      0x00\n        /* \"contracts/Voting.sol\":2326:2337  candidateId */\n      dup4\n        /* \"contracts/Voting.sol\":2326:2341  candidateId > 0 */\n      gt\n        /* \"contracts/Voting.sol\":2326:2382  candidateId > 0 && candidateId <= voting.candidatesCount */\n      dup1\n      iszero\n      tag_128\n      jumpi\n      pop\n        /* \"contracts/Voting.sol\":2360:2366  voting */\n      dup1\n        /* \"contracts/Voting.sol\":2360:2382  voting.candidatesCount */\n      0x03\n      add\n      sload\n        /* \"contracts/Voting.sol\":2345:2356  candidateId */\n      dup4\n        /* \"contracts/Voting.sol\":2345:2382  candidateId <= voting.candidatesCount */\n      gt\n      iszero\n        /* \"contracts/Voting.sol\":2326:2382  candidateId > 0 && candidateId <= voting.candidatesCount */\n    tag_128:\n        /* \"contracts/Voting.sol\":2318:2408  require(candidateId > 0 && candidateId <= voting.candidatesCount, \"Invalid candidate ID.\") */\n      tag_129\n      jumpi\n      mload(0x40)\n      0x08c379a000000000000000000000000000000000000000000000000000000000\n      dup2\n      mstore\n      0x04\n      add\n      tag_130\n      swap1\n      tag_131\n      jump\t// in\n    tag_130:\n      mload(0x40)\n      dup1\n      swap2\n      sub\n      swap1\n      revert\n    tag_129:\n        /* \"contracts/Voting.sol\":2457:2461  true */\n      0x01\n        /* \"contracts/Voting.sol\":2429:2435  voting */\n      dup2\n        /* \"contracts/Voting.sol\":2429:2442  voting.voters */\n      0x01\n      add\n        /* \"contracts/Voting.sol\":2429:2454  voting.voters[msg.sender] */\n      0x00\n        /* \"contracts/Voting.sol\":2443:2453  msg.sender */\n      caller\n        /* \"contracts/Voting.sol\":2429:2454  voting.voters[msg.sender] */\n      0xffffffffffffffffffffffffffffffffffffffff\n      and\n      0xffffffffffffffffffffffffffffffffffffffff\n      and\n      dup2\n      mstore\n      0x20\n      add\n      swap1\n      dup2\n      mstore\n      0x20\n      add\n      0x00\n      keccak256\n      0x00\n        /* \"contracts/Voting.sol\":2429:2461  voting.voters[msg.sender] = true */\n      0x0100\n      exp\n      dup2\n      sload\n      dup2\n      0xff\n      mul\n      not\n      and\n      swap1\n      dup4\n      iszero\n      iszero\n      mul\n      or\n      swap1\n      sstore\n      pop\n        /* \"contracts/Voting.sol\":2473:2479  voting */\n      dup1\n        /* \"contracts/Voting.sol\":2473:2490  voting.candidates */\n      0x00\n      add\n        /* \"contracts/Voting.sol\":2473:2503  voting.candidates[candidateId] */\n      0x00\n        /* \"contracts/Voting.sol\":2491:2502  candidateId */\n      dup5\n        /* \"contracts/Voting.sol\":2473:2503  voting.candidates[candidateId] */\n      dup2\n      mstore\n      0x20\n      add\n      swap1\n      dup2\n      mstore\n      0x20\n      add\n      0x00\n      keccak256\n        /* \"contracts/Voting.sol\":2473:2513  voting.candidates[candidateId].voteCount */\n      0x02\n      add\n      0x00\n        /* \"contracts/Voting.sol\":2473:2515  voting.candidates[candidateId].voteCount++ */\n      dup2\n      sload\n      dup1\n      swap3\n      swap2\n      swap1\n      tag_132\n      swap1\n      tag_105\n      jump\t// in\n    tag_132:\n      swap2\n      swap1\n      pop\n      sstore\n      pop\n        /* \"contracts/Voting.sol\":2562:2577  block.timestamp */\n      timestamp\n        /* \"contracts/Voting.sol\":2526:2532  voting */\n      dup2\n        /* \"contracts/Voting.sol\":2526:2547  voting.voteTimestamps */\n      0x02\n      add\n        /* \"contracts/Voting.sol\":2526:2559  voting.voteTimestamps[msg.sender] */\n      0x00\n        /* \"contracts/Voting.sol\":2548:2558  msg.sender */\n      caller\n        /* \"contracts/Voting.sol\":2526:2559  voting.voteTimestamps[msg.sender] */\n      0xffffffffffffffffffffffffffffffffffffffff\n      and\n      0xffffffffffffffffffffffffffffffffffffffff\n      and\n      dup2\n      mstore\n      0x20\n      add\n      swap1\n      dup2\n      mstore\n      0x20\n      add\n      0x00\n      keccak256\n        /* \"contracts/Voting.sol\":2526:2577  voting.voteTimestamps[msg.sender] = block.timestamp */\n      dup2\n      swap1\n      sstore\n      pop\n        /* \"contracts/Voting.sol\":2623:2634  candidateId */\n      dup3\n        /* \"contracts/Voting.sol\":2613:2621  votingId */\n      dup5\n        /* \"contracts/Voting.sol\":2601:2611  msg.sender */\n      caller\n        /* \"contracts/Voting.sol\":2595:2652  Voted(msg.sender, votingId, candidateId, block.timestamp) */\n      0xffffffffffffffffffffffffffffffffffffffff\n      and\n      0xc32b42768a47a585121e9b8d7a2ab9d3f34c326a192dee11ee1732e3d18313f3\n        /* \"contracts/Voting.sol\":2636:2651  block.timestamp */\n      timestamp\n        /* \"contracts/Voting.sol\":2595:2652  Voted(msg.sender, votingId, candidateId, block.timestamp) */\n      mload(0x40)\n      tag_133\n      swap2\n      swap1\n      tag_34\n      jump\t// in\n    tag_133:\n      mload(0x40)\n      dup1\n      swap2\n      sub\n      swap1\n      log4\n        /* \"contracts/Voting.sol\":2167:2660  {... */\n      pop\n        /* \"contracts/Voting.sol\":1083:1084  _ */\n      pop\n        /* \"contracts/Voting.sol\":2072:2660  function vote(uint votingId, uint candidateId) public onlyRegisteredVoter votingOpen(votingId) {... */\n      pop\n      pop\n      jump\t// out\n        /* \"contracts/Voting.sol\":515:538  uint public votingCount */\n    tag_53:\n      sload(0x02)\n      dup2\n      jump\t// out\n        /* \"contracts/Voting.sol\":1302:1617  function createVoting(string[] memory candidateNames) public onlyAdmin {... */\n    tag_58:\n        /* \"contracts/Voting.sol\":886:891  admin */\n      0x03\n      0x00\n      swap1\n      sload\n      swap1\n      0x0100\n      exp\n      swap1\n      div\n      0xffffffffffffffffffffffffffffffffffffffff\n      and\n        /* \"contracts/Voting.sol\":872:891  msg.sender == admin */\n      0xffffffffffffffffffffffffffffffffffffffff\n      and\n        /* \"contracts/Voting.sol\":872:882  msg.sender */\n      caller\n        /* \"contracts/Voting.sol\":872:891  msg.sender == admin */\n      0xffffffffffffffffffffffffffffffffffffffff\n      and\n      eq\n        /* \"contracts/Voting.sol\":864:930  require(msg.sender == admin, \"Only admin can call this function.\") */\n      tag_135\n      jumpi\n      mload(0x40)\n      0x08c379a000000000000000000000000000000000000000000000000000000000\n      dup2\n      mstore\n      0x04\n      add\n      tag_136\n      swap1\n      tag_70\n      jump\t// in\n    tag_136:\n      mload(0x40)\n      dup1\n      swap2\n      sub\n      swap1\n      revert\n    tag_135:\n        /* \"contracts/Voting.sol\":1384:1395  votingCount */\n      0x02\n      0x00\n        /* \"contracts/Voting.sol\":1384:1397  votingCount++ */\n      dup2\n      sload\n      dup1\n      swap3\n      swap2\n      swap1\n      tag_138\n      swap1\n      tag_105\n      jump\t// in\n    tag_138:\n      swap2\n      swap1\n      pop\n      sstore\n      pop\n        /* \"contracts/Voting.sol\":1408:1429  Voting storage voting */\n      0x00\n        /* \"contracts/Voting.sol\":1432:1439  votings */\n      dup1\n        /* \"contracts/Voting.sol\":1432:1452  votings[votingCount] */\n      0x00\n        /* \"contracts/Voting.sol\":1440:1451  votingCount */\n      sload(0x02)\n        /* \"contracts/Voting.sol\":1432:1452  votings[votingCount] */\n      dup2\n      mstore\n      0x20\n      add\n      swap1\n      dup2\n      mstore\n      0x20\n      add\n      0x00\n      keccak256\n        /* \"contracts/Voting.sol\":1408:1452  Voting storage voting = votings[votingCount] */\n      swap1\n      pop\n        /* \"contracts/Voting.sol\":1479:1484  false */\n      0x00\n        /* \"contracts/Voting.sol\":1463:1469  voting */\n      dup2\n        /* \"contracts/Voting.sol\":1463:1476  voting.active */\n      0x04\n      add\n      0x00\n        /* \"contracts/Voting.sol\":1463:1484  voting.active = false */\n      0x0100\n      exp\n      dup2\n      sload\n      dup2\n      0xff\n      mul\n      not\n      and\n      swap1\n      dup4\n      iszero\n      iszero\n      mul\n      or\n      swap1\n      sstore\n      pop\n        /* \"contracts/Voting.sol\":1500:1506  uint i */\n      0x00\n        /* \"contracts/Voting.sol\":1495:1610  for (uint i = 0; i < candidateNames.length; i++) {... */\n    tag_139:\n        /* \"contracts/Voting.sol\":1516:1530  candidateNames */\n      dup3\n        /* \"contracts/Voting.sol\":1516:1537  candidateNames.length */\n      mload\n        /* \"contracts/Voting.sol\":1512:1513  i */\n      dup2\n        /* \"contracts/Voting.sol\":1512:1537  i < candidateNames.length */\n      lt\n        /* \"contracts/Voting.sol\":1495:1610  for (uint i = 0; i < candidateNames.length; i++) {... */\n      iszero\n      tag_140\n      jumpi\n        /* \"contracts/Voting.sol\":1559:1598  addCandidate(voting, candidateNames[i]) */\n      tag_142\n        /* \"contracts/Voting.sol\":1572:1578  voting */\n      dup3\n        /* \"contracts/Voting.sol\":1580:1594  candidateNames */\n      dup5\n        /* \"contracts/Voting.sol\":1595:1596  i */\n      dup4\n        /* \"contracts/Voting.sol\":1580:1597  candidateNames[i] */\n      dup2\n      mload\n      dup2\n      lt\n      tag_143\n      jumpi\n      tag_144\n      tag_103\n      jump\t// in\n    tag_144:\n    tag_143:\n      0x20\n      mul\n      0x20\n      add\n      add\n      mload\n        /* \"contracts/Voting.sol\":1559:1571  addCandidate */\n      tag_145\n        /* \"contracts/Voting.sol\":1559:1598  addCandidate(voting, candidateNames[i]) */\n      jump\t// in\n    tag_142:\n        /* \"contracts/Voting.sol\":1539:1542  i++ */\n      dup1\n      dup1\n      0x01\n      add\n      swap2\n      pop\n      pop\n        /* \"contracts/Voting.sol\":1495:1610  for (uint i = 0; i < candidateNames.length; i++) {... */\n      jump(tag_139)\n    tag_140:\n      pop\n        /* \"contracts/Voting.sol\":1373:1617  {... */\n      pop\n        /* \"contracts/Voting.sol\":1302:1617  function createVoting(string[] memory candidateNames) public onlyAdmin {... */\n      pop\n      jump\t// out\n        /* \"contracts/Voting.sol\":3517:3788  function getVoteCount(uint votingId, uint candidateId) public view returns (uint) {... */\n    tag_61:\n        /* \"contracts/Voting.sol\":3593:3597  uint */\n      0x00\n        /* \"contracts/Voting.sol\":3632:3633  0 */\n      dup1\n        /* \"contracts/Voting.sol\":3618:3629  candidateId */\n      dup3\n        /* \"contracts/Voting.sol\":3618:3633  candidateId > 0 */\n      gt\n        /* \"contracts/Voting.sol\":3618:3685  candidateId > 0 && candidateId <= votings[votingId].candidatesCount */\n      dup1\n      iszero\n      tag_147\n      jumpi\n      pop\n        /* \"contracts/Voting.sol\":3652:3659  votings */\n      0x00\n        /* \"contracts/Voting.sol\":3652:3669  votings[votingId] */\n      dup1\n        /* \"contracts/Voting.sol\":3660:3668  votingId */\n      dup5\n        /* \"contracts/Voting.sol\":3652:3669  votings[votingId] */\n      dup2\n      mstore\n      0x20\n      add\n      swap1\n      dup2\n      mstore\n      0x20\n      add\n      0x00\n      keccak256\n        /* \"contracts/Voting.sol\":3652:3685  votings[votingId].candidatesCount */\n      0x03\n      add\n      sload\n        /* \"contracts/Voting.sol\":3637:3648  candidateId */\n      dup3\n        /* \"contracts/Voting.sol\":3637:3685  candidateId <= votings[votingId].candidatesCount */\n      gt\n      iszero\n        /* \"contracts/Voting.sol\":3618:3685  candidateId > 0 && candidateId <= votings[votingId].candidatesCount */\n    tag_147:\n        /* \"contracts/Voting.sol\":3610:3711  require(candidateId > 0 && candidateId <= votings[votingId].candidatesCount, \"Invalid candidate ID.\") */\n      tag_148\n      jumpi\n      mload(0x40)\n      0x08c379a000000000000000000000000000000000000000000000000000000000\n      dup2\n      mstore\n      0x04\n      add\n      tag_149\n      swap1\n      tag_131\n      jump\t// in\n    tag_149:\n      mload(0x40)\n      dup1\n      swap2\n      sub\n      swap1\n      revert\n    tag_148:\n        /* \"contracts/Voting.sol\":3729:3736  votings */\n      0x00\n        /* \"contracts/Voting.sol\":3729:3746  votings[votingId] */\n      dup1\n        /* \"contracts/Voting.sol\":3737:3745  votingId */\n      dup5\n        /* \"contracts/Voting.sol\":3729:3746  votings[votingId] */\n      dup2\n      mstore\n      0x20\n      add\n      swap1\n      dup2\n      mstore\n      0x20\n      add\n      0x00\n      keccak256\n        /* \"contracts/Voting.sol\":3729:3757  votings[votingId].candidates */\n      0x00\n      add\n        /* \"contracts/Voting.sol\":3729:3770  votings[votingId].candidates[candidateId] */\n      0x00\n        /* \"contracts/Voting.sol\":3758:3769  candidateId */\n      dup4\n        /* \"contracts/Voting.sol\":3729:3770  votings[votingId].candidates[candidateId] */\n      dup2\n      mstore\n      0x20\n      add\n      swap1\n      dup2\n      mstore\n      0x20\n      add\n      0x00\n      keccak256\n        /* \"contracts/Voting.sol\":3729:3780  votings[votingId].candidates[candidateId].voteCount */\n      0x02\n      add\n      sload\n        /* \"contracts/Voting.sol\":3722:3780  return votings[votingId].candidates[candidateId].voteCount */\n      swap1\n      pop\n        /* \"contracts/Voting.sol\":3517:3788  function getVoteCount(uint votingId, uint candidateId) public view returns (uint) {... */\n      swap3\n      swap2\n      pop\n      pop\n      jump\t// out\n        /* \"contracts/Voting.sol\":545:565  address public admin */\n    tag_64:\n      0x03\n      0x00\n      swap1\n      sload\n      swap1\n      0x0100\n      exp\n      swap1\n      div\n      0xffffffffffffffffffffffffffffffffffffffff\n      and\n      dup2\n      jump\t// out\n        /* \"contracts/Voting.sol\":1625:1838  function addCandidate(Voting storage voting, string memory name) private {... */\n    tag_145:\n        /* \"contracts/Voting.sol\":1709:1715  voting */\n      dup2\n        /* \"contracts/Voting.sol\":1709:1731  voting.candidatesCount */\n      0x03\n      add\n      0x00\n        /* \"contracts/Voting.sol\":1709:1733  voting.candidatesCount++ */\n      dup2\n      sload\n      dup1\n      swap3\n      swap2\n      swap1\n      tag_151\n      swap1\n      tag_105\n      jump\t// in\n    tag_151:\n      swap2\n      swap1\n      pop\n      sstore\n      pop\n        /* \"contracts/Voting.sol\":1788:1830  Candidate(voting.candidatesCount, name, 0) */\n      mload(0x40)\n      dup1\n      0x60\n      add\n      0x40\n      mstore\n      dup1\n        /* \"contracts/Voting.sol\":1798:1804  voting */\n      dup4\n        /* \"contracts/Voting.sol\":1798:1820  voting.candidatesCount */\n      0x03\n      add\n      sload\n        /* \"contracts/Voting.sol\":1788:1830  Candidate(voting.candidatesCount, name, 0) */\n      dup2\n      mstore\n      0x20\n      add\n        /* \"contracts/Voting.sol\":1822:1826  name */\n      dup3\n        /* \"contracts/Voting.sol\":1788:1830  Candidate(voting.candidatesCount, name, 0) */\n      dup2\n      mstore\n      0x20\n      add\n        /* \"contracts/Voting.sol\":1828:1829  0 */\n      0x00\n        /* \"contracts/Voting.sol\":1788:1830  Candidate(voting.candidatesCount, name, 0) */\n      dup2\n      mstore\n      pop\n        /* \"contracts/Voting.sol\":1744:1750  voting */\n      dup3\n        /* \"contracts/Voting.sol\":1744:1761  voting.candidates */\n      0x00\n      add\n        /* \"contracts/Voting.sol\":1744:1785  voting.candidates[voting.candidatesCount] */\n      0x00\n        /* \"contracts/Voting.sol\":1762:1768  voting */\n      dup5\n        /* \"contracts/Voting.sol\":1762:1784  voting.candidatesCount */\n      0x03\n      add\n      sload\n        /* \"contracts/Voting.sol\":1744:1785  voting.candidates[voting.candidatesCount] */\n      dup2\n      mstore\n      0x20\n      add\n      swap1\n      dup2\n      mstore\n      0x20\n      add\n      0x00\n      keccak256\n        /* \"contracts/Voting.sol\":1744:1830  voting.candidates[voting.candidatesCount] = Candidate(voting.candidatesCount, name, 0) */\n      0x00\n      dup3\n      add\n      mload\n      dup2\n      0x00\n      add\n      sstore\n      0x20\n      dup3\n      add\n      mload\n      dup2\n      0x01\n      add\n      swap1\n      dup2\n      tag_152\n      swap2\n      swap1\n      tag_153\n      jump\t// in\n    tag_152:\n      pop\n      0x40\n      dup3\n      add\n      mload\n      dup2\n      0x02\n      add\n      sstore\n      swap1\n      pop\n      pop\n        /* \"contracts/Voting.sol\":1625:1838  function addCandidate(Voting storage voting, string memory name) private {... */\n      pop\n      pop\n      jump\t// out\n    tag_89:\n      mload(0x40)\n      dup1\n      0x60\n      add\n      0x40\n      mstore\n      dup1\n      0x00\n      dup2\n      mstore\n      0x20\n      add\n      0x60\n      dup2\n      mstore\n      0x20\n      add\n      0x00\n      dup2\n      mstore\n      pop\n      swap1\n      jump\t// out\n        /* \"#utility.yul\":7:82   */\n    tag_154:\n        /* \"#utility.yul\":40:46   */\n      0x00\n        /* \"#utility.yul\":73:75   */\n      0x40\n        /* \"#utility.yul\":67:76   */\n      mload\n        /* \"#utility.yul\":57:76   */\n      swap1\n      pop\n        /* \"#utility.yul\":7:82   */\n      swap1\n      jump\t// out\n        /* \"#utility.yul\":88:205   */\n    tag_155:\n        /* \"#utility.yul\":197:198   */\n      0x00\n        /* \"#utility.yul\":194:195   */\n      dup1\n        /* \"#utility.yul\":187:199   */\n      revert\n        /* \"#utility.yul\":211:328   */\n    tag_156:\n        /* \"#utility.yul\":320:321   */\n      0x00\n        /* \"#utility.yul\":317:318   */\n      dup1\n        /* \"#utility.yul\":310:322   */\n      revert\n        /* \"#utility.yul\":334:460   */\n    tag_157:\n        /* \"#utility.yul\":371:378   */\n      0x00\n        /* \"#utility.yul\":411:453   */\n      0xffffffffffffffffffffffffffffffffffffffff\n        /* \"#utility.yul\":404:409   */\n      dup3\n        /* \"#utility.yul\":400:454   */\n      and\n        /* \"#utility.yul\":389:454   */\n      swap1\n      pop\n        /* \"#utility.yul\":334:460   */\n      swap2\n      swap1\n      pop\n      jump\t// out\n        /* \"#utility.yul\":466:562   */\n    tag_158:\n        /* \"#utility.yul\":503:510   */\n      0x00\n        /* \"#utility.yul\":532:556   */\n      tag_233\n        /* \"#utility.yul\":550:555   */\n      dup3\n        /* \"#utility.yul\":532:556   */\n      tag_157\n      jump\t// in\n    tag_233:\n        /* \"#utility.yul\":521:556   */\n      swap1\n      pop\n        /* \"#utility.yul\":466:562   */\n      swap2\n      swap1\n      pop\n      jump\t// out\n        /* \"#utility.yul\":568:690   */\n    tag_159:\n        /* \"#utility.yul\":641:665   */\n      tag_235\n        /* \"#utility.yul\":659:664   */\n      dup2\n        /* \"#utility.yul\":641:665   */\n      tag_158\n      jump\t// in\n    tag_235:\n        /* \"#utility.yul\":634:639   */\n      dup2\n        /* \"#utility.yul\":631:666   */\n      eq\n        /* \"#utility.yul\":621:684   */\n      tag_236\n      jumpi\n        /* \"#utility.yul\":680:681   */\n      0x00\n        /* \"#utility.yul\":677:678   */\n      dup1\n        /* \"#utility.yul\":670:682   */\n      revert\n        /* \"#utility.yul\":621:684   */\n    tag_236:\n        /* \"#utility.yul\":568:690   */\n      pop\n      jump\t// out\n        /* \"#utility.yul\":696:835   */\n    tag_160:\n        /* \"#utility.yul\":742:747   */\n      0x00\n        /* \"#utility.yul\":780:786   */\n      dup2\n        /* \"#utility.yul\":767:787   */\n      calldataload\n        /* \"#utility.yul\":758:787   */\n      swap1\n      pop\n        /* \"#utility.yul\":796:829   */\n      tag_238\n        /* \"#utility.yul\":823:828   */\n      dup2\n        /* \"#utility.yul\":796:829   */\n      tag_159\n      jump\t// in\n    tag_238:\n        /* \"#utility.yul\":696:835   */\n      swap3\n      swap2\n      pop\n      pop\n      jump\t// out\n        /* \"#utility.yul\":841:1170   */\n    tag_18:\n        /* \"#utility.yul\":900:906   */\n      0x00\n        /* \"#utility.yul\":949:951   */\n      0x20\n        /* \"#utility.yul\":937:946   */\n      dup3\n        /* \"#utility.yul\":928:935   */\n      dup5\n        /* \"#utility.yul\":924:947   */\n      sub\n        /* \"#utility.yul\":920:952   */\n      slt\n        /* \"#utility.yul\":917:1036   */\n      iszero\n      tag_240\n      jumpi\n        /* \"#utility.yul\":955:1034   */\n      tag_241\n      tag_155\n      jump\t// in\n    tag_241:\n        /* \"#utility.yul\":917:1036   */\n    tag_240:\n        /* \"#utility.yul\":1075:1076   */\n      0x00\n        /* \"#utility.yul\":1100:1153   */\n      tag_242\n        /* \"#utility.yul\":1145:1152   */\n      dup5\n        /* \"#utility.yul\":1136:1142   */\n      dup3\n        /* \"#utility.yul\":1125:1134   */\n      dup6\n        /* \"#utility.yul\":1121:1143   */\n      add\n        /* \"#utility.yul\":1100:1153   */\n      tag_160\n      jump\t// in\n    tag_242:\n        /* \"#utility.yul\":1090:1153   */\n      swap2\n      pop\n        /* \"#utility.yul\":1046:1163   */\n      pop\n        /* \"#utility.yul\":841:1170   */\n      swap3\n      swap2\n      pop\n      pop\n      jump\t// out\n        /* \"#utility.yul\":1176:1253   */\n    tag_161:\n        /* \"#utility.yul\":1213:1220   */\n      0x00\n        /* \"#utility.yul\":1242:1247   */\n      dup2\n        /* \"#utility.yul\":1231:1247   */\n      swap1\n      pop\n        /* \"#utility.yul\":1176:1253   */\n      swap2\n      swap1\n      pop\n      jump\t// out\n        /* \"#utility.yul\":1259:1381   */\n    tag_162:\n        /* \"#utility.yul\":1332:1356   */\n      tag_245\n        /* \"#utility.yul\":1350:1355   */\n      dup2\n        /* \"#utility.yul\":1332:1356   */\n      tag_161\n      jump\t// in\n    tag_245:\n        /* \"#utility.yul\":1325:1330   */\n      dup2\n        /* \"#utility.yul\":1322:1357   */\n      eq\n        /* \"#utility.yul\":1312:1375   */\n      tag_246\n      jumpi\n        /* \"#utility.yul\":1371:1372   */\n      0x00\n        /* \"#utility.yul\":1368:1369   */\n      dup1\n        /* \"#utility.yul\":1361:1373   */\n      revert\n        /* \"#utility.yul\":1312:1375   */\n    tag_246:\n        /* \"#utility.yul\":1259:1381   */\n      pop\n      jump\t// out\n        /* \"#utility.yul\":1387:1526   */\n    tag_163:\n        /* \"#utility.yul\":1433:1438   */\n      0x00\n        /* \"#utility.yul\":1471:1477   */\n      dup2\n        /* \"#utility.yul\":1458:1478   */\n      calldataload\n        /* \"#utility.yul\":1449:1478   */\n      swap1\n      pop\n        /* \"#utility.yul\":1487:1520   */\n      tag_248\n        /* \"#utility.yul\":1514:1519   */\n      dup2\n        /* \"#utility.yul\":1487:1520   */\n      tag_162\n      jump\t// in\n    tag_248:\n        /* \"#utility.yul\":1387:1526   */\n      swap3\n      swap2\n      pop\n      pop\n      jump\t// out\n        /* \"#utility.yul\":1532:1861   */\n    tag_22:\n        /* \"#utility.yul\":1591:1597   */\n      0x00\n        /* \"#utility.yul\":1640:1642   */\n      0x20\n        /* \"#utility.yul\":1628:1637   */\n      dup3\n        /* \"#utility.yul\":1619:1626   */\n      dup5\n        /* \"#utility.yul\":1615:1638   */\n      sub\n        /* \"#utility.yul\":1611:1643   */\n      slt\n        /* \"#utility.yul\":1608:1727   */\n      iszero\n      tag_250\n      jumpi\n        /* \"#utility.yul\":1646:1725   */\n      tag_251\n      tag_155\n      jump\t// in\n    tag_251:\n        /* \"#utility.yul\":1608:1727   */\n    tag_250:\n        /* \"#utility.yul\":1766:1767   */\n      0x00\n        /* \"#utility.yul\":1791:1844   */\n      tag_252\n        /* \"#utility.yul\":1836:1843   */\n      dup5\n        /* \"#utility.yul\":1827:1833   */\n      dup3\n        /* \"#utility.yul\":1816:1825   */\n      dup6\n        /* \"#utility.yul\":1812:1834   */\n      add\n        /* \"#utility.yul\":1791:1844   */\n      tag_163\n      jump\t// in\n    tag_252:\n        /* \"#utility.yul\":1781:1844   */\n      swap2\n      pop\n        /* \"#utility.yul\":1737:1854   */\n      pop\n        /* \"#utility.yul\":1532:1861   */\n      swap3\n      swap2\n      pop\n      pop\n      jump\t// out\n        /* \"#utility.yul\":1867:2005   */\n    tag_164:\n        /* \"#utility.yul\":1958:1964   */\n      0x00\n        /* \"#utility.yul\":1992:1997   */\n      dup2\n        /* \"#utility.yul\":1986:1998   */\n      mload\n        /* \"#utility.yul\":1976:1998   */\n      swap1\n      pop\n        /* \"#utility.yul\":1867:2005   */\n      swap2\n      swap1\n      pop\n      jump\t// out\n        /* \"#utility.yul\":2011:2219   */\n    tag_165:\n        /* \"#utility.yul\":2134:2145   */\n      0x00\n        /* \"#utility.yul\":2168:2174   */\n      dup3\n        /* \"#utility.yul\":2163:2166   */\n      dup3\n        /* \"#utility.yul\":2156:2175   */\n      mstore\n        /* \"#utility.yul\":2208:2212   */\n      0x20\n        /* \"#utility.yul\":2203:2206   */\n      dup3\n        /* \"#utility.yul\":2199:2213   */\n      add\n        /* \"#utility.yul\":2184:2213   */\n      swap1\n      pop\n        /* \"#utility.yul\":2011:2219   */\n      swap3\n      swap2\n      pop\n      pop\n      jump\t// out\n        /* \"#utility.yul\":2225:2381   */\n    tag_166:\n        /* \"#utility.yul\":2316:2320   */\n      0x00\n        /* \"#utility.yul\":2339:2342   */\n      dup2\n        /* \"#utility.yul\":2331:2342   */\n      swap1\n      pop\n        /* \"#utility.yul\":2369:2373   */\n      0x20\n        /* \"#utility.yul\":2364:2367   */\n      dup3\n        /* \"#utility.yul\":2360:2374   */\n      add\n        /* \"#utility.yul\":2352:2374   */\n      swap1\n      pop\n        /* \"#utility.yul\":2225:2381   */\n      swap2\n      swap1\n      pop\n      jump\t// out\n        /* \"#utility.yul\":2387:2495   */\n    tag_167:\n        /* \"#utility.yul\":2464:2488   */\n      tag_257\n        /* \"#utility.yul\":2482:2487   */\n      dup2\n        /* \"#utility.yul\":2464:2488   */\n      tag_161\n      jump\t// in\n    tag_257:\n        /* \"#utility.yul\":2459:2462   */\n      dup3\n        /* \"#utility.yul\":2452:2489   */\n      mstore\n        /* \"#utility.yul\":2387:2495   */\n      pop\n      pop\n      jump\t// out\n        /* \"#utility.yul\":2501:2600   */\n    tag_168:\n        /* \"#utility.yul\":2553:2559   */\n      0x00\n        /* \"#utility.yul\":2587:2592   */\n      dup2\n        /* \"#utility.yul\":2581:2593   */\n      mload\n        /* \"#utility.yul\":2571:2593   */\n      swap1\n      pop\n        /* \"#utility.yul\":2501:2600   */\n      swap2\n      swap1\n      pop\n      jump\t// out\n        /* \"#utility.yul\":2606:2765   */\n    tag_169:\n        /* \"#utility.yul\":2680:2691   */\n      0x00\n        /* \"#utility.yul\":2714:2720   */\n      dup3\n        /* \"#utility.yul\":2709:2712   */\n      dup3\n        /* \"#utility.yul\":2702:2721   */\n      mstore\n        /* \"#utility.yul\":2754:2758   */\n      0x20\n        /* \"#utility.yul\":2749:2752   */\n      dup3\n        /* \"#utility.yul\":2745:2759   */\n      add\n        /* \"#utility.yul\":2730:2759   */\n      swap1\n      pop\n        /* \"#utility.yul\":2606:2765   */\n      swap3\n      swap2\n      pop\n      pop\n      jump\t// out\n        /* \"#utility.yul\":2771:2910   */\n    tag_170:\n        /* \"#utility.yul\":2860:2866   */\n      dup3\n        /* \"#utility.yul\":2855:2858   */\n      dup2\n        /* \"#utility.yul\":2850:2853   */\n      dup4\n        /* \"#utility.yul\":2844:2867   */\n      mcopy\n        /* \"#utility.yul\":2901:2902   */\n      0x00\n        /* \"#utility.yul\":2892:2898   */\n      dup4\n        /* \"#utility.yul\":2887:2890   */\n      dup4\n        /* \"#utility.yul\":2883:2899   */\n      add\n        /* \"#utility.yul\":2876:2903   */\n      mstore\n        /* \"#utility.yul\":2771:2910   */\n      pop\n      pop\n      pop\n      jump\t// out\n        /* \"#utility.yul\":2916:3018   */\n    tag_171:\n        /* \"#utility.yul\":2957:2963   */\n      0x00\n        /* \"#utility.yul\":3008:3010   */\n      0x1f\n        /* \"#utility.yul\":3004:3011   */\n      not\n        /* \"#utility.yul\":2999:3001   */\n      0x1f\n        /* \"#utility.yul\":2992:2997   */\n      dup4\n        /* \"#utility.yul\":2988:3002   */\n      add\n        /* \"#utility.yul\":2984:3012   */\n      and\n        /* \"#utility.yul\":2974:3012   */\n      swap1\n      pop\n        /* \"#utility.yul\":2916:3018   */\n      swap2\n      swap1\n      pop\n      jump\t// out\n        /* \"#utility.yul\":3024:3381   */\n    tag_172:\n        /* \"#utility.yul\":3102:3105   */\n      0x00\n        /* \"#utility.yul\":3130:3169   */\n      tag_263\n        /* \"#utility.yul\":3163:3168   */\n      dup3\n        /* \"#utility.yul\":3130:3169   */\n      tag_168\n      jump\t// in\n    tag_263:\n        /* \"#utility.yul\":3185:3246   */\n      tag_264\n        /* \"#utility.yul\":3239:3245   */\n      dup2\n        /* \"#utility.yul\":3234:3237   */\n      dup6\n        /* \"#utility.yul\":3185:3246   */\n      tag_169\n      jump\t// in\n    tag_264:\n        /* \"#utility.yul\":3178:3246   */\n      swap4\n      pop\n        /* \"#utility.yul\":3255:3320   */\n      tag_265\n        /* \"#utility.yul\":3313:3319   */\n      dup2\n        /* \"#utility.yul\":3308:3311   */\n      dup6\n        /* \"#utility.yul\":3301:3305   */\n      0x20\n        /* \"#utility.yul\":3294:3299   */\n      dup7\n        /* \"#utility.yul\":3290:3306   */\n      add\n        /* \"#utility.yul\":3255:3320   */\n      tag_170\n      jump\t// in\n    tag_265:\n        /* \"#utility.yul\":3345:3374   */\n      tag_266\n        /* \"#utility.yul\":3367:3373   */\n      dup2\n        /* \"#utility.yul\":3345:3374   */\n      tag_171\n      jump\t// in\n    tag_266:\n        /* \"#utility.yul\":3340:3343   */\n      dup5\n        /* \"#utility.yul\":3336:3375   */\n      add\n        /* \"#utility.yul\":3329:3375   */\n      swap2\n      pop\n        /* \"#utility.yul\":3106:3381   */\n      pop\n        /* \"#utility.yul\":3024:3381   */\n      swap3\n      swap2\n      pop\n      pop\n      jump\t// out\n        /* \"#utility.yul\":3457:4228   */\n    tag_173:\n        /* \"#utility.yul\":3564:3567   */\n      0x00\n        /* \"#utility.yul\":3600:3604   */\n      0x60\n        /* \"#utility.yul\":3595:3598   */\n      dup4\n        /* \"#utility.yul\":3591:3605   */\n      add\n        /* \"#utility.yul\":3685:3689   */\n      0x00\n        /* \"#utility.yul\":3678:3683   */\n      dup4\n        /* \"#utility.yul\":3674:3690   */\n      add\n        /* \"#utility.yul\":3668:3691   */\n      mload\n        /* \"#utility.yul\":3704:3767   */\n      tag_268\n        /* \"#utility.yul\":3761:3765   */\n      0x00\n        /* \"#utility.yul\":3756:3759   */\n      dup7\n        /* \"#utility.yul\":3752:3766   */\n      add\n        /* \"#utility.yul\":3738:3750   */\n      dup3\n        /* \"#utility.yul\":3704:3767   */\n      tag_167\n      jump\t// in\n    tag_268:\n        /* \"#utility.yul\":3615:3777   */\n      pop\n        /* \"#utility.yul\":3859:3863   */\n      0x20\n        /* \"#utility.yul\":3852:3857   */\n      dup4\n        /* \"#utility.yul\":3848:3864   */\n      add\n        /* \"#utility.yul\":3842:3865   */\n      mload\n        /* \"#utility.yul\":3912:3915   */\n      dup5\n        /* \"#utility.yul\":3906:3910   */\n      dup3\n        /* \"#utility.yul\":3902:3916   */\n      sub\n        /* \"#utility.yul\":3895:3899   */\n      0x20\n        /* \"#utility.yul\":3890:3893   */\n      dup7\n        /* \"#utility.yul\":3886:3900   */\n      add\n        /* \"#utility.yul\":3879:3917   */\n      mstore\n        /* \"#utility.yul\":3938:4011   */\n      tag_269\n        /* \"#utility.yul\":4006:4010   */\n      dup3\n        /* \"#utility.yul\":3992:4004   */\n      dup3\n        /* \"#utility.yul\":3938:4011   */\n      tag_172\n      jump\t// in\n    tag_269:\n        /* \"#utility.yul\":3930:4011   */\n      swap2\n      pop\n        /* \"#utility.yul\":3787:4022   */\n      pop\n        /* \"#utility.yul\":4109:4113   */\n      0x40\n        /* \"#utility.yul\":4102:4107   */\n      dup4\n        /* \"#utility.yul\":4098:4114   */\n      add\n        /* \"#utility.yul\":4092:4115   */\n      mload\n        /* \"#utility.yul\":4128:4191   */\n      tag_270\n        /* \"#utility.yul\":4185:4189   */\n      0x40\n        /* \"#utility.yul\":4180:4183   */\n      dup7\n        /* \"#utility.yul\":4176:4190   */\n      add\n        /* \"#utility.yul\":4162:4174   */\n      dup3\n        /* \"#utility.yul\":4128:4191   */\n      tag_167\n      jump\t// in\n    tag_270:\n        /* \"#utility.yul\":4032:4201   */\n      pop\n        /* \"#utility.yul\":4218:4222   */\n      dup1\n        /* \"#utility.yul\":4211:4222   */\n      swap2\n      pop\n        /* \"#utility.yul\":3569:4228   */\n      pop\n        /* \"#utility.yul\":3457:4228   */\n      swap3\n      swap2\n      pop\n      pop\n      jump\t// out\n        /* \"#utility.yul\":4234:4486   */\n    tag_174:\n        /* \"#utility.yul\":4351:4361   */\n      0x00\n        /* \"#utility.yul\":4386:4480   */\n      tag_272\n        /* \"#utility.yul\":4476:4479   */\n      dup4\n        /* \"#utility.yul\":4468:4474   */\n      dup4\n        /* \"#utility.yul\":4386:4480   */\n      tag_173\n      jump\t// in\n    tag_272:\n        /* \"#utility.yul\":4372:4480   */\n      swap1\n      pop\n        /* \"#utility.yul\":4234:4486   */\n      swap3\n      swap2\n      pop\n      pop\n      jump\t// out\n        /* \"#utility.yul\":4492:4629   */\n    tag_175:\n        /* \"#utility.yul\":4586:4590   */\n      0x00\n        /* \"#utility.yul\":4618:4622   */\n      0x20\n        /* \"#utility.yul\":4613:4616   */\n      dup3\n        /* \"#utility.yul\":4609:4623   */\n      add\n        /* \"#utility.yul\":4601:4623   */\n      swap1\n      pop\n        /* \"#utility.yul\":4492:4629   */\n      swap2\n      swap1\n      pop\n      jump\t// out\n        /* \"#utility.yul\":4709:5812   */\n    tag_176:\n        /* \"#utility.yul\":4876:4879   */\n      0x00\n        /* \"#utility.yul\":4905:4983   */\n      tag_275\n        /* \"#utility.yul\":4977:4982   */\n      dup3\n        /* \"#utility.yul\":4905:4983   */\n      tag_164\n      jump\t// in\n    tag_275:\n        /* \"#utility.yul\":4999:5109   */\n      tag_276\n        /* \"#utility.yul\":5102:5108   */\n      dup2\n        /* \"#utility.yul\":5097:5100   */\n      dup6\n        /* \"#utility.yul\":4999:5109   */\n      tag_165\n      jump\t// in\n    tag_276:\n        /* \"#utility.yul\":4992:5109   */\n      swap4\n      pop\n        /* \"#utility.yul\":5135:5138   */\n      dup4\n        /* \"#utility.yul\":5180:5184   */\n      0x20\n        /* \"#utility.yul\":5172:5178   */\n      dup3\n        /* \"#utility.yul\":5168:5185   */\n      mul\n        /* \"#utility.yul\":5163:5166   */\n      dup6\n        /* \"#utility.yul\":5159:5186   */\n      add\n        /* \"#utility.yul\":5210:5290   */\n      tag_277\n        /* \"#utility.yul\":5284:5289   */\n      dup6\n        /* \"#utility.yul\":5210:5290   */\n      tag_166\n      jump\t// in\n    tag_277:\n        /* \"#utility.yul\":5313:5320   */\n      dup1\n        /* \"#utility.yul\":5344:5345   */\n      0x00\n        /* \"#utility.yul\":5329:5767   */\n    tag_278:\n        /* \"#utility.yul\":5354:5360   */\n      dup6\n        /* \"#utility.yul\":5351:5352   */\n      dup2\n        /* \"#utility.yul\":5348:5361   */\n      lt\n        /* \"#utility.yul\":5329:5767   */\n      iszero\n      tag_280\n      jumpi\n        /* \"#utility.yul\":5425:5434   */\n      dup5\n        /* \"#utility.yul\":5419:5423   */\n      dup5\n        /* \"#utility.yul\":5415:5435   */\n      sub\n        /* \"#utility.yul\":5410:5413   */\n      dup10\n        /* \"#utility.yul\":5403:5436   */\n      mstore\n        /* \"#utility.yul\":5476:5482   */\n      dup2\n        /* \"#utility.yul\":5470:5483   */\n      mload\n        /* \"#utility.yul\":5504:5616   */\n      tag_281\n        /* \"#utility.yul\":5611:5615   */\n      dup6\n        /* \"#utility.yul\":5596:5609   */\n      dup3\n        /* \"#utility.yul\":5504:5616   */\n      tag_174\n      jump\t// in\n    tag_281:\n        /* \"#utility.yul\":5496:5616   */\n      swap5\n      pop\n        /* \"#utility.yul\":5639:5723   */\n      tag_282\n        /* \"#utility.yul\":5716:5722   */\n      dup4\n        /* \"#utility.yul\":5639:5723   */\n      tag_175\n      jump\t// in\n    tag_282:\n        /* \"#utility.yul\":5629:5723   */\n      swap3\n      pop\n        /* \"#utility.yul\":5752:5756   */\n      0x20\n        /* \"#utility.yul\":5747:5750   */\n      dup11\n        /* \"#utility.yul\":5743:5757   */\n      add\n        /* \"#utility.yul\":5736:5757   */\n      swap10\n      pop\n        /* \"#utility.yul\":5389:5767   */\n      pop\n        /* \"#utility.yul\":5376:5377   */\n      0x01\n        /* \"#utility.yul\":5373:5374   */\n      dup2\n        /* \"#utility.yul\":5369:5378   */\n      add\n        /* \"#utility.yul\":5364:5378   */\n      swap1\n      pop\n        /* \"#utility.yul\":5329:5767   */\n      jump(tag_278)\n    tag_280:\n        /* \"#utility.yul\":5333:5347   */\n      pop\n        /* \"#utility.yul\":5783:5787   */\n      dup3\n        /* \"#utility.yul\":5776:5787   */\n      swap8\n      pop\n        /* \"#utility.yul\":5803:5806   */\n      dup8\n        /* \"#utility.yul\":5796:5806   */\n      swap6\n      pop\n        /* \"#utility.yul\":4881:5812   */\n      pop\n      pop\n      pop\n      pop\n      pop\n        /* \"#utility.yul\":4709:5812   */\n      swap3\n      swap2\n      pop\n      pop\n      jump\t// out\n        /* \"#utility.yul\":5818:6287   */\n    tag_28:\n        /* \"#utility.yul\":6009:6013   */\n      0x00\n        /* \"#utility.yul\":6047:6049   */\n      0x20\n        /* \"#utility.yul\":6036:6045   */\n      dup3\n        /* \"#utility.yul\":6032:6050   */\n      add\n        /* \"#utility.yul\":6024:6050   */\n      swap1\n      pop\n        /* \"#utility.yul\":6096:6105   */\n      dup2\n        /* \"#utility.yul\":6090:6094   */\n      dup2\n        /* \"#utility.yul\":6086:6106   */\n      sub\n        /* \"#utility.yul\":6082:6083   */\n      0x00\n        /* \"#utility.yul\":6071:6080   */\n      dup4\n        /* \"#utility.yul\":6067:6084   */\n      add\n        /* \"#utility.yul\":6060:6107   */\n      mstore\n        /* \"#utility.yul\":6124:6280   */\n      tag_284\n        /* \"#utility.yul\":6275:6279   */\n      dup2\n        /* \"#utility.yul\":6266:6272   */\n      dup5\n        /* \"#utility.yul\":6124:6280   */\n      tag_176\n      jump\t// in\n    tag_284:\n        /* \"#utility.yul\":6116:6280   */\n      swap1\n      pop\n        /* \"#utility.yul\":5818:6287   */\n      swap3\n      swap2\n      pop\n      pop\n      jump\t// out\n        /* \"#utility.yul\":6293:6767   */\n    tag_31:\n        /* \"#utility.yul\":6361:6367   */\n      0x00\n        /* \"#utility.yul\":6369:6375   */\n      dup1\n        /* \"#utility.yul\":6418:6420   */\n      0x40\n        /* \"#utility.yul\":6406:6415   */\n      dup4\n        /* \"#utility.yul\":6397:6404   */\n      dup6\n        /* \"#utility.yul\":6393:6416   */\n      sub\n        /* \"#utility.yul\":6389:6421   */\n      slt\n        /* \"#utility.yul\":6386:6505   */\n      iszero\n      tag_286\n      jumpi\n        /* \"#utility.yul\":6424:6503   */\n      tag_287\n      tag_155\n      jump\t// in\n    tag_287:\n        /* \"#utility.yul\":6386:6505   */\n    tag_286:\n        /* \"#utility.yul\":6544:6545   */\n      0x00\n        /* \"#utility.yul\":6569:6622   */\n      tag_288\n        /* \"#utility.yul\":6614:6621   */\n      dup6\n        /* \"#utility.yul\":6605:6611   */\n      dup3\n        /* \"#utility.yul\":6594:6603   */\n      dup7\n        /* \"#utility.yul\":6590:6612   */\n      add\n        /* \"#utility.yul\":6569:6622   */\n      tag_163\n      jump\t// in\n    tag_288:\n        /* \"#utility.yul\":6559:6622   */\n      swap3\n      pop\n        /* \"#utility.yul\":6515:6632   */\n      pop\n        /* \"#utility.yul\":6671:6673   */\n      0x20\n        /* \"#utility.yul\":6697:6750   */\n      tag_289\n        /* \"#utility.yul\":6742:6749   */\n      dup6\n        /* \"#utility.yul\":6733:6739   */\n      dup3\n        /* \"#utility.yul\":6722:6731   */\n      dup7\n        /* \"#utility.yul\":6718:6740   */\n      add\n        /* \"#utility.yul\":6697:6750   */\n      tag_160\n      jump\t// in\n    tag_289:\n        /* \"#utility.yul\":6687:6750   */\n      swap2\n      pop\n        /* \"#utility.yul\":6642:6760   */\n      pop\n        /* \"#utility.yul\":6293:6767   */\n      swap3\n      pop\n      swap3\n      swap1\n      pop\n      jump\t// out\n        /* \"#utility.yul\":6773:6891   */\n    tag_177:\n        /* \"#utility.yul\":6860:6884   */\n      tag_291\n        /* \"#utility.yul\":6878:6883   */\n      dup2\n        /* \"#utility.yul\":6860:6884   */\n      tag_161\n      jump\t// in\n    tag_291:\n        /* \"#utility.yul\":6855:6858   */\n      dup3\n        /* \"#utility.yul\":6848:6885   */\n      mstore\n        /* \"#utility.yul\":6773:6891   */\n      pop\n      pop\n      jump\t// out\n        /* \"#utility.yul\":6897:7119   */\n    tag_34:\n        /* \"#utility.yul\":6990:6994   */\n      0x00\n        /* \"#utility.yul\":7028:7030   */\n      0x20\n        /* \"#utility.yul\":7017:7026   */\n      dup3\n        /* \"#utility.yul\":7013:7031   */\n      add\n        /* \"#utility.yul\":7005:7031   */\n      swap1\n      pop\n        /* \"#utility.yul\":7041:7112   */\n      tag_293\n        /* \"#utility.yul\":7109:7110   */\n      0x00\n        /* \"#utility.yul\":7098:7107   */\n      dup4\n        /* \"#utility.yul\":7094:7111   */\n      add\n        /* \"#utility.yul\":7085:7091   */\n      dup5\n        /* \"#utility.yul\":7041:7112   */\n      tag_177\n      jump\t// in\n    tag_293:\n        /* \"#utility.yul\":6897:7119   */\n      swap3\n      swap2\n      pop\n      pop\n      jump\t// out\n        /* \"#utility.yul\":7125:7215   */\n    tag_178:\n        /* \"#utility.yul\":7159:7166   */\n      0x00\n        /* \"#utility.yul\":7202:7207   */\n      dup2\n        /* \"#utility.yul\":7195:7208   */\n      iszero\n        /* \"#utility.yul\":7188:7209   */\n      iszero\n        /* \"#utility.yul\":7177:7209   */\n      swap1\n      pop\n        /* \"#utility.yul\":7125:7215   */\n      swap2\n      swap1\n      pop\n      jump\t// out\n        /* \"#utility.yul\":7221:7330   */\n    tag_179:\n        /* \"#utility.yul\":7302:7323   */\n      tag_296\n        /* \"#utility.yul\":7317:7322   */\n      dup2\n        /* \"#utility.yul\":7302:7323   */\n      tag_178\n      jump\t// in\n    tag_296:\n        /* \"#utility.yul\":7297:7300   */\n      dup3\n        /* \"#utility.yul\":7290:7324   */\n      mstore\n        /* \"#utility.yul\":7221:7330   */\n      pop\n      pop\n      jump\t// out\n        /* \"#utility.yul\":7336:7656   */\n    tag_42:\n        /* \"#utility.yul\":7451:7455   */\n      0x00\n        /* \"#utility.yul\":7489:7491   */\n      0x40\n        /* \"#utility.yul\":7478:7487   */\n      dup3\n        /* \"#utility.yul\":7474:7492   */\n      add\n        /* \"#utility.yul\":7466:7492   */\n      swap1\n      pop\n        /* \"#utility.yul\":7502:7573   */\n      tag_298\n        /* \"#utility.yul\":7570:7571   */\n      0x00\n        /* \"#utility.yul\":7559:7568   */\n      dup4\n        /* \"#utility.yul\":7555:7572   */\n      add\n        /* \"#utility.yul\":7546:7552   */\n      dup6\n        /* \"#utility.yul\":7502:7573   */\n      tag_177\n      jump\t// in\n    tag_298:\n        /* \"#utility.yul\":7583:7649   */\n      tag_299\n        /* \"#utility.yul\":7645:7647   */\n      0x20\n        /* \"#utility.yul\":7634:7643   */\n      dup4\n        /* \"#utility.yul\":7630:7648   */\n      add\n        /* \"#utility.yul\":7621:7627   */\n      dup5\n        /* \"#utility.yul\":7583:7649   */\n      tag_179\n      jump\t// in\n    tag_299:\n        /* \"#utility.yul\":7336:7656   */\n      swap4\n      swap3\n      pop\n      pop\n      pop\n      jump\t// out\n        /* \"#utility.yul\":7662:7872   */\n    tag_47:\n        /* \"#utility.yul\":7749:7753   */\n      0x00\n        /* \"#utility.yul\":7787:7789   */\n      0x20\n        /* \"#utility.yul\":7776:7785   */\n      dup3\n        /* \"#utility.yul\":7772:7790   */\n      add\n        /* \"#utility.yul\":7764:7790   */\n      swap1\n      pop\n        /* \"#utility.yul\":7800:7865   */\n      tag_301\n        /* \"#utility.yul\":7862:7863   */\n      0x00\n        /* \"#utility.yul\":7851:7860   */\n      dup4\n        /* \"#utility.yul\":7847:7864   */\n      add\n        /* \"#utility.yul\":7838:7844   */\n      dup5\n        /* \"#utility.yul\":7800:7865   */\n      tag_179\n      jump\t// in\n    tag_301:\n        /* \"#utility.yul\":7662:7872   */\n      swap3\n      swap2\n      pop\n      pop\n      jump\t// out\n        /* \"#utility.yul\":7878:8352   */\n    tag_50:\n        /* \"#utility.yul\":7946:7952   */\n      0x00\n        /* \"#utility.yul\":7954:7960   */\n      dup1\n        /* \"#utility.yul\":8003:8005   */\n      0x40\n        /* \"#utility.yul\":7991:8000   */\n      dup4\n        /* \"#utility.yul\":7982:7989   */\n      dup6\n        /* \"#utility.yul\":7978:8001   */\n      sub\n        /* \"#utility.yul\":7974:8006   */\n      slt\n        /* \"#utility.yul\":7971:8090   */\n      iszero\n      tag_303\n      jumpi\n        /* \"#utility.yul\":8009:8088   */\n      tag_304\n      tag_155\n      jump\t// in\n    tag_304:\n        /* \"#utility.yul\":7971:8090   */\n    tag_303:\n        /* \"#utility.yul\":8129:8130   */\n      0x00\n        /* \"#utility.yul\":8154:8207   */\n      tag_305\n        /* \"#utility.yul\":8199:8206   */\n      dup6\n        /* \"#utility.yul\":8190:8196   */\n      dup3\n        /* \"#utility.yul\":8179:8188   */\n      dup7\n        /* \"#utility.yul\":8175:8197   */\n      add\n        /* \"#utility.yul\":8154:8207   */\n      tag_163\n      jump\t// in\n    tag_305:\n        /* \"#utility.yul\":8144:8207   */\n      swap3\n      pop\n        /* \"#utility.yul\":8100:8217   */\n      pop\n        /* \"#utility.yul\":8256:8258   */\n      0x20\n        /* \"#utility.yul\":8282:8335   */\n      tag_306\n        /* \"#utility.yul\":8327:8334   */\n      dup6\n        /* \"#utility.yul\":8318:8324   */\n      dup3\n        /* \"#utility.yul\":8307:8316   */\n      dup7\n        /* \"#utility.yul\":8303:8325   */\n      add\n        /* \"#utility.yul\":8282:8335   */\n      tag_163\n      jump\t// in\n    tag_306:\n        /* \"#utility.yul\":8272:8335   */\n      swap2\n      pop\n        /* \"#utility.yul\":8227:8345   */\n      pop\n        /* \"#utility.yul\":7878:8352   */\n      swap3\n      pop\n      swap3\n      swap1\n      pop\n      jump\t// out\n        /* \"#utility.yul\":8358:8475   */\n    tag_180:\n        /* \"#utility.yul\":8467:8468   */\n      0x00\n        /* \"#utility.yul\":8464:8465   */\n      dup1\n        /* \"#utility.yul\":8457:8469   */\n      revert\n        /* \"#utility.yul\":8481:8661   */\n    tag_85:\n        /* \"#utility.yul\":8529:8606   */\n      0x4e487b7100000000000000000000000000000000000000000000000000000000\n        /* \"#utility.yul\":8526:8527   */\n      0x00\n        /* \"#utility.yul\":8519:8607   */\n      mstore\n        /* \"#utility.yul\":8626:8630   */\n      0x41\n        /* \"#utility.yul\":8623:8624   */\n      0x04\n        /* \"#utility.yul\":8616:8631   */\n      mstore\n        /* \"#utility.yul\":8650:8654   */\n      0x24\n        /* \"#utility.yul\":8647:8648   */\n      0x00\n        /* \"#utility.yul\":8640:8655   */\n      revert\n        /* \"#utility.yul\":8667:8948   */\n    tag_181:\n        /* \"#utility.yul\":8750:8777   */\n      tag_310\n        /* \"#utility.yul\":8772:8776   */\n      dup3\n        /* \"#utility.yul\":8750:8777   */\n      tag_171\n      jump\t// in\n    tag_310:\n        /* \"#utility.yul\":8742:8748   */\n      dup2\n        /* \"#utility.yul\":8738:8778   */\n      add\n        /* \"#utility.yul\":8880:8886   */\n      dup2\n        /* \"#utility.yul\":8868:8878   */\n      dup2\n        /* \"#utility.yul\":8865:8887   */\n      lt\n        /* \"#utility.yul\":8844:8862   */\n      0xffffffffffffffff\n        /* \"#utility.yul\":8832:8842   */\n      dup3\n        /* \"#utility.yul\":8829:8863   */\n      gt\n        /* \"#utility.yul\":8826:8888   */\n      or\n        /* \"#utility.yul\":8823:8911   */\n      iszero\n      tag_311\n      jumpi\n        /* \"#utility.yul\":8891:8909   */\n      tag_312\n      tag_85\n      jump\t// in\n    tag_312:\n        /* \"#utility.yul\":8823:8911   */\n    tag_311:\n        /* \"#utility.yul\":8931:8941   */\n      dup1\n        /* \"#utility.yul\":8927:8929   */\n      0x40\n        /* \"#utility.yul\":8920:8942   */\n      mstore\n        /* \"#utility.yul\":8710:8948   */\n      pop\n        /* \"#utility.yul\":8667:8948   */\n      pop\n      pop\n      jump\t// out\n        /* \"#utility.yul\":8954:9083   */\n    tag_182:\n        /* \"#utility.yul\":8988:8994   */\n      0x00\n        /* \"#utility.yul\":9015:9035   */\n      tag_314\n      tag_154\n      jump\t// in\n    tag_314:\n        /* \"#utility.yul\":9005:9035   */\n      swap1\n      pop\n        /* \"#utility.yul\":9044:9077   */\n      tag_315\n        /* \"#utility.yul\":9072:9076   */\n      dup3\n        /* \"#utility.yul\":9064:9070   */\n      dup3\n        /* \"#utility.yul\":9044:9077   */\n      tag_181\n      jump\t// in\n    tag_315:\n        /* \"#utility.yul\":8954:9083   */\n      swap2\n      swap1\n      pop\n      jump\t// out\n        /* \"#utility.yul\":9089:9410   */\n    tag_183:\n        /* \"#utility.yul\":9176:9180   */\n      0x00\n        /* \"#utility.yul\":9266:9284   */\n      0xffffffffffffffff\n        /* \"#utility.yul\":9258:9264   */\n      dup3\n        /* \"#utility.yul\":9255:9285   */\n      gt\n        /* \"#utility.yul\":9252:9308   */\n      iszero\n      tag_317\n      jumpi\n        /* \"#utility.yul\":9288:9306   */\n      tag_318\n      tag_85\n      jump\t// in\n    tag_318:\n        /* \"#utility.yul\":9252:9308   */\n    tag_317:\n        /* \"#utility.yul\":9338:9342   */\n      0x20\n        /* \"#utility.yul\":9330:9336   */\n      dup3\n        /* \"#utility.yul\":9326:9343   */\n      mul\n        /* \"#utility.yul\":9318:9343   */\n      swap1\n      pop\n        /* \"#utility.yul\":9398:9402   */\n      0x20\n        /* \"#utility.yul\":9392:9396   */\n      dup2\n        /* \"#utility.yul\":9388:9403   */\n      add\n        /* \"#utility.yul\":9380:9403   */\n      swap1\n      pop\n        /* \"#utility.yul\":9089:9410   */\n      swap2\n      swap1\n      pop\n      jump\t// out\n        /* \"#utility.yul\":9416:9533   */\n    tag_184:\n        /* \"#utility.yul\":9525:9526   */\n      0x00\n        /* \"#utility.yul\":9522:9523   */\n      dup1\n        /* \"#utility.yul\":9515:9527   */\n      revert\n        /* \"#utility.yul\":9539:9656   */\n    tag_185:\n        /* \"#utility.yul\":9648:9649   */\n      0x00\n        /* \"#utility.yul\":9645:9646   */\n      dup1\n        /* \"#utility.yul\":9638:9650   */\n      revert\n        /* \"#utility.yul\":9662:9970   */\n    tag_186:\n        /* \"#utility.yul\":9724:9728   */\n      0x00\n        /* \"#utility.yul\":9814:9832   */\n      0xffffffffffffffff\n        /* \"#utility.yul\":9806:9812   */\n      dup3\n        /* \"#utility.yul\":9803:9833   */\n      gt\n        /* \"#utility.yul\":9800:9856   */\n      iszero\n      tag_322\n      jumpi\n        /* \"#utility.yul\":9836:9854   */\n      tag_323\n      tag_85\n      jump\t// in\n    tag_323:\n        /* \"#utility.yul\":9800:9856   */\n    tag_322:\n        /* \"#utility.yul\":9874:9903   */\n      tag_324\n        /* \"#utility.yul\":9896:9902   */\n      dup3\n        /* \"#utility.yul\":9874:9903   */\n      tag_171\n      jump\t// in\n    tag_324:\n        /* \"#utility.yul\":9866:9903   */\n      swap1\n      pop\n        /* \"#utility.yul\":9958:9962   */\n      0x20\n        /* \"#utility.yul\":9952:9956   */\n      dup2\n        /* \"#utility.yul\":9948:9963   */\n      add\n        /* \"#utility.yul\":9940:9963   */\n      swap1\n      pop\n        /* \"#utility.yul\":9662:9970   */\n      swap2\n      swap1\n      pop\n      jump\t// out\n        /* \"#utility.yul\":9976:10124   */\n    tag_187:\n        /* \"#utility.yul\":10074:10080   */\n      dup3\n        /* \"#utility.yul\":10069:10072   */\n      dup2\n        /* \"#utility.yul\":10064:10067   */\n      dup4\n        /* \"#utility.yul\":10051:10081   */\n      calldatacopy\n        /* \"#utility.yul\":10115:10116   */\n      0x00\n        /* \"#utility.yul\":10106:10112   */\n      dup4\n        /* \"#utility.yul\":10101:10104   */\n      dup4\n        /* \"#utility.yul\":10097:10113   */\n      add\n        /* \"#utility.yul\":10090:10117   */\n      mstore\n        /* \"#utility.yul\":9976:10124   */\n      pop\n      pop\n      pop\n      jump\t// out\n        /* \"#utility.yul\":10130:10555   */\n    tag_188:\n        /* \"#utility.yul\":10208:10213   */\n      0x00\n        /* \"#utility.yul\":10233:10299   */\n      tag_327\n        /* \"#utility.yul\":10249:10298   */\n      tag_328\n        /* \"#utility.yul\":10291:10297   */\n      dup5\n        /* \"#utility.yul\":10249:10298   */\n      tag_186\n      jump\t// in\n    tag_328:\n        /* \"#utility.yul\":10233:10299   */\n      tag_182\n      jump\t// in\n    tag_327:\n        /* \"#utility.yul\":10224:10299   */\n      swap1\n      pop\n        /* \"#utility.yul\":10322:10328   */\n      dup3\n        /* \"#utility.yul\":10315:10320   */\n      dup2\n        /* \"#utility.yul\":10308:10329   */\n      mstore\n        /* \"#utility.yul\":10360:10364   */\n      0x20\n        /* \"#utility.yul\":10353:10358   */\n      dup2\n        /* \"#utility.yul\":10349:10365   */\n      add\n        /* \"#utility.yul\":10398:10401   */\n      dup5\n        /* \"#utility.yul\":10389:10395   */\n      dup5\n        /* \"#utility.yul\":10384:10387   */\n      dup5\n        /* \"#utility.yul\":10380:10396   */\n      add\n        /* \"#utility.yul\":10377:10402   */\n      gt\n        /* \"#utility.yul\":10374:10486   */\n      iszero\n      tag_329\n      jumpi\n        /* \"#utility.yul\":10405:10484   */\n      tag_330\n      tag_185\n      jump\t// in\n    tag_330:\n        /* \"#utility.yul\":10374:10486   */\n    tag_329:\n        /* \"#utility.yul\":10495:10549   */\n      tag_331\n        /* \"#utility.yul\":10542:10548   */\n      dup5\n        /* \"#utility.yul\":10537:10540   */\n      dup3\n        /* \"#utility.yul\":10532:10535   */\n      dup6\n        /* \"#utility.yul\":10495:10549   */\n      tag_187\n      jump\t// in\n    tag_331:\n        /* \"#utility.yul\":10214:10555   */\n      pop\n        /* \"#utility.yul\":10130:10555   */\n      swap4\n      swap3\n      pop\n      pop\n      pop\n      jump\t// out\n        /* \"#utility.yul\":10575:10915   */\n    tag_189:\n        /* \"#utility.yul\":10631:10636   */\n      0x00\n        /* \"#utility.yul\":10680:10683   */\n      dup3\n        /* \"#utility.yul\":10673:10677   */\n      0x1f\n        /* \"#utility.yul\":10665:10671   */\n      dup4\n        /* \"#utility.yul\":10661:10678   */\n      add\n        /* \"#utility.yul\":10657:10684   */\n      slt\n        /* \"#utility.yul\":10647:10769   */\n      tag_333\n      jumpi\n        /* \"#utility.yul\":10688:10767   */\n      tag_334\n      tag_180\n      jump\t// in\n    tag_334:\n        /* \"#utility.yul\":10647:10769   */\n    tag_333:\n        /* \"#utility.yul\":10805:10811   */\n      dup2\n        /* \"#utility.yul\":10792:10812   */\n      calldataload\n        /* \"#utility.yul\":10830:10909   */\n      tag_335\n        /* \"#utility.yul\":10905:10908   */\n      dup5\n        /* \"#utility.yul\":10897:10903   */\n      dup3\n        /* \"#utility.yul\":10890:10894   */\n      0x20\n        /* \"#utility.yul\":10882:10888   */\n      dup7\n        /* \"#utility.yul\":10878:10895   */\n      add\n        /* \"#utility.yul\":10830:10909   */\n      tag_188\n      jump\t// in\n    tag_335:\n        /* \"#utility.yul\":10821:10909   */\n      swap2\n      pop\n        /* \"#utility.yul\":10637:10915   */\n      pop\n        /* \"#utility.yul\":10575:10915   */\n      swap3\n      swap2\n      pop\n      pop\n      jump\t// out\n        /* \"#utility.yul\":10937:11882   */\n    tag_190:\n        /* \"#utility.yul\":11043:11048   */\n      0x00\n        /* \"#utility.yul\":11068:11159   */\n      tag_337\n        /* \"#utility.yul\":11084:11158   */\n      tag_338\n        /* \"#utility.yul\":11151:11157   */\n      dup5\n        /* \"#utility.yul\":11084:11158   */\n      tag_183\n      jump\t// in\n    tag_338:\n        /* \"#utility.yul\":11068:11159   */\n      tag_182\n      jump\t// in\n    tag_337:\n        /* \"#utility.yul\":11059:11159   */\n      swap1\n      pop\n        /* \"#utility.yul\":11179:11184   */\n      dup1\n        /* \"#utility.yul\":11208:11214   */\n      dup4\n        /* \"#utility.yul\":11201:11206   */\n      dup3\n        /* \"#utility.yul\":11194:11215   */\n      mstore\n        /* \"#utility.yul\":11242:11246   */\n      0x20\n        /* \"#utility.yul\":11235:11240   */\n      dup3\n        /* \"#utility.yul\":11231:11247   */\n      add\n        /* \"#utility.yul\":11224:11247   */\n      swap1\n      pop\n        /* \"#utility.yul\":11295:11299   */\n      0x20\n        /* \"#utility.yul\":11287:11293   */\n      dup5\n        /* \"#utility.yul\":11283:11300   */\n      mul\n        /* \"#utility.yul\":11275:11281   */\n      dup4\n        /* \"#utility.yul\":11271:11301   */\n      add\n        /* \"#utility.yul\":11324:11327   */\n      dup6\n        /* \"#utility.yul\":11316:11322   */\n      dup2\n        /* \"#utility.yul\":11313:11328   */\n      gt\n        /* \"#utility.yul\":11310:11432   */\n      iszero\n      tag_339\n      jumpi\n        /* \"#utility.yul\":11343:11422   */\n      tag_340\n      tag_184\n      jump\t// in\n    tag_340:\n        /* \"#utility.yul\":11310:11432   */\n    tag_339:\n        /* \"#utility.yul\":11458:11464   */\n      dup4\n        /* \"#utility.yul\":11441:11876   */\n    tag_341:\n        /* \"#utility.yul\":11475:11481   */\n      dup2\n        /* \"#utility.yul\":11470:11473   */\n      dup2\n        /* \"#utility.yul\":11467:11482   */\n      lt\n        /* \"#utility.yul\":11441:11876   */\n      iszero\n      tag_343\n      jumpi\n        /* \"#utility.yul\":11564:11567   */\n      dup1\n        /* \"#utility.yul\":11551:11568   */\n      calldataload\n        /* \"#utility.yul\":11600:11618   */\n      0xffffffffffffffff\n        /* \"#utility.yul\":11587:11598   */\n      dup2\n        /* \"#utility.yul\":11584:11619   */\n      gt\n        /* \"#utility.yul\":11581:11703   */\n      iszero\n      tag_344\n      jumpi\n        /* \"#utility.yul\":11622:11701   */\n      tag_345\n      tag_180\n      jump\t// in\n    tag_345:\n        /* \"#utility.yul\":11581:11703   */\n    tag_344:\n        /* \"#utility.yul\":11746:11757   */\n      dup1\n        /* \"#utility.yul\":11738:11744   */\n      dup7\n        /* \"#utility.yul\":11734:11758   */\n      add\n        /* \"#utility.yul\":11784:11831   */\n      tag_346\n        /* \"#utility.yul\":11827:11830   */\n      dup10\n        /* \"#utility.yul\":11815:11825   */\n      dup3\n        /* \"#utility.yul\":11784:11831   */\n      tag_189\n      jump\t// in\n    tag_346:\n        /* \"#utility.yul\":11779:11782   */\n      dup6\n        /* \"#utility.yul\":11772:11832   */\n      mstore\n        /* \"#utility.yul\":11861:11865   */\n      0x20\n        /* \"#utility.yul\":11856:11859   */\n      dup6\n        /* \"#utility.yul\":11852:11866   */\n      add\n        /* \"#utility.yul\":11845:11866   */\n      swap5\n      pop\n        /* \"#utility.yul\":11517:11876   */\n      pop\n      pop\n        /* \"#utility.yul\":11501:11505   */\n      0x20\n        /* \"#utility.yul\":11496:11499   */\n      dup2\n        /* \"#utility.yul\":11492:11506   */\n      add\n        /* \"#utility.yul\":11485:11506   */\n      swap1\n      pop\n        /* \"#utility.yul\":11441:11876   */\n      jump(tag_341)\n    tag_343:\n        /* \"#utility.yul\":11445:11466   */\n      pop\n        /* \"#utility.yul\":11049:11882   */\n      pop\n      pop\n        /* \"#utility.yul\":10937:11882   */\n      swap4\n      swap3\n      pop\n      pop\n      pop\n      jump\t// out\n        /* \"#utility.yul\":11904:12294   */\n    tag_191:\n        /* \"#utility.yul\":11985:11990   */\n      0x00\n        /* \"#utility.yul\":12034:12037   */\n      dup3\n        /* \"#utility.yul\":12027:12031   */\n      0x1f\n        /* \"#utility.yul\":12019:12025   */\n      dup4\n        /* \"#utility.yul\":12015:12032   */\n      add\n        /* \"#utility.yul\":12011:12038   */\n      slt\n        /* \"#utility.yul\":12001:12123   */\n      tag_348\n      jumpi\n        /* \"#utility.yul\":12042:12121   */\n      tag_349\n      tag_180\n      jump\t// in\n    tag_349:\n        /* \"#utility.yul\":12001:12123   */\n    tag_348:\n        /* \"#utility.yul\":12159:12165   */\n      dup2\n        /* \"#utility.yul\":12146:12166   */\n      calldataload\n        /* \"#utility.yul\":12184:12288   */\n      tag_350\n        /* \"#utility.yul\":12284:12287   */\n      dup5\n        /* \"#utility.yul\":12276:12282   */\n      dup3\n        /* \"#utility.yul\":12269:12273   */\n      0x20\n        /* \"#utility.yul\":12261:12267   */\n      dup7\n        /* \"#utility.yul\":12257:12274   */\n      add\n        /* \"#utility.yul\":12184:12288   */\n      tag_190\n      jump\t// in\n    tag_350:\n        /* \"#utility.yul\":12175:12288   */\n      swap2\n      pop\n        /* \"#utility.yul\":11991:12294   */\n      pop\n        /* \"#utility.yul\":11904:12294   */\n      swap3\n      swap2\n      pop\n      pop\n      jump\t// out\n        /* \"#utility.yul\":12300:12859   */\n    tag_57:\n        /* \"#utility.yul\":12394:12400   */\n      0x00\n        /* \"#utility.yul\":12443:12445   */\n      0x20\n        /* \"#utility.yul\":12431:12440   */\n      dup3\n        /* \"#utility.yul\":12422:12429   */\n      dup5\n        /* \"#utility.yul\":12418:12441   */\n      sub\n        /* \"#utility.yul\":12414:12446   */\n      slt\n        /* \"#utility.yul\":12411:12530   */\n      iszero\n      tag_352\n      jumpi\n        /* \"#utility.yul\":12449:12528   */\n      tag_353\n      tag_155\n      jump\t// in\n    tag_353:\n        /* \"#utility.yul\":12411:12530   */\n    tag_352:\n        /* \"#utility.yul\":12597:12598   */\n      0x00\n        /* \"#utility.yul\":12586:12595   */\n      dup3\n        /* \"#utility.yul\":12582:12599   */\n      add\n        /* \"#utility.yul\":12569:12600   */\n      calldataload\n        /* \"#utility.yul\":12627:12645   */\n      0xffffffffffffffff\n        /* \"#utility.yul\":12619:12625   */\n      dup2\n        /* \"#utility.yul\":12616:12646   */\n      gt\n        /* \"#utility.yul\":12613:12730   */\n      iszero\n      tag_354\n      jumpi\n        /* \"#utility.yul\":12649:12728   */\n      tag_355\n      tag_156\n      jump\t// in\n    tag_355:\n        /* \"#utility.yul\":12613:12730   */\n    tag_354:\n        /* \"#utility.yul\":12754:12842   */\n      tag_356\n        /* \"#utility.yul\":12834:12841   */\n      dup5\n        /* \"#utility.yul\":12825:12831   */\n      dup3\n        /* \"#utility.yul\":12814:12823   */\n      dup6\n        /* \"#utility.yul\":12810:12832   */\n      add\n        /* \"#utility.yul\":12754:12842   */\n      tag_191\n      jump\t// in\n    tag_356:\n        /* \"#utility.yul\":12744:12842   */\n      swap2\n      pop\n        /* \"#utility.yul\":12540:12852   */\n      pop\n        /* \"#utility.yul\":12300:12859   */\n      swap3\n      swap2\n      pop\n      pop\n      jump\t// out\n        /* \"#utility.yul\":12865:12983   */\n    tag_192:\n        /* \"#utility.yul\":12952:12976   */\n      tag_358\n        /* \"#utility.yul\":12970:12975   */\n      dup2\n        /* \"#utility.yul\":12952:12976   */\n      tag_158\n      jump\t// in\n    tag_358:\n        /* \"#utility.yul\":12947:12950   */\n      dup3\n        /* \"#utility.yul\":12940:12977   */\n      mstore\n        /* \"#utility.yul\":12865:12983   */\n      pop\n      pop\n      jump\t// out\n        /* \"#utility.yul\":12989:13211   */\n    tag_66:\n        /* \"#utility.yul\":13082:13086   */\n      0x00\n        /* \"#utility.yul\":13120:13122   */\n      0x20\n        /* \"#utility.yul\":13109:13118   */\n      dup3\n        /* \"#utility.yul\":13105:13123   */\n      add\n        /* \"#utility.yul\":13097:13123   */\n      swap1\n      pop\n        /* \"#utility.yul\":13133:13204   */\n      tag_360\n        /* \"#utility.yul\":13201:13202   */\n      0x00\n        /* \"#utility.yul\":13190:13199   */\n      dup4\n        /* \"#utility.yul\":13186:13203   */\n      add\n        /* \"#utility.yul\":13177:13183   */\n      dup5\n        /* \"#utility.yul\":13133:13204   */\n      tag_192\n      jump\t// in\n    tag_360:\n        /* \"#utility.yul\":12989:13211   */\n      swap3\n      swap2\n      pop\n      pop\n      jump\t// out\n        /* \"#utility.yul\":13217:13386   */\n    tag_193:\n        /* \"#utility.yul\":13301:13312   */\n      0x00\n        /* \"#utility.yul\":13335:13341   */\n      dup3\n        /* \"#utility.yul\":13330:13333   */\n      dup3\n        /* \"#utility.yul\":13323:13342   */\n      mstore\n        /* \"#utility.yul\":13375:13379   */\n      0x20\n        /* \"#utility.yul\":13370:13373   */\n      dup3\n        /* \"#utility.yul\":13366:13380   */\n      add\n        /* \"#utility.yul\":13351:13380   */\n      swap1\n      pop\n        /* \"#utility.yul\":13217:13386   */\n      swap3\n      swap2\n      pop\n      pop\n      jump\t// out\n        /* \"#utility.yul\":13392:13613   */\n    tag_194:\n        /* \"#utility.yul\":13532:13566   */\n      0x4f6e6c792061646d696e2063616e2063616c6c20746869732066756e6374696f\n        /* \"#utility.yul\":13528:13529   */\n      0x00\n        /* \"#utility.yul\":13520:13526   */\n      dup3\n        /* \"#utility.yul\":13516:13530   */\n      add\n        /* \"#utility.yul\":13509:13567   */\n      mstore\n        /* \"#utility.yul\":13601:13605   */\n      0x6e2e000000000000000000000000000000000000000000000000000000000000\n        /* \"#utility.yul\":13596:13598   */\n      0x20\n        /* \"#utility.yul\":13588:13594   */\n      dup3\n        /* \"#utility.yul\":13584:13599   */\n      add\n        /* \"#utility.yul\":13577:13606   */\n      mstore\n        /* \"#utility.yul\":13392:13613   */\n      pop\n      jump\t// out\n        /* \"#utility.yul\":13619:13985   */\n    tag_195:\n        /* \"#utility.yul\":13761:13764   */\n      0x00\n        /* \"#utility.yul\":13782:13849   */\n      tag_364\n        /* \"#utility.yul\":13846:13848   */\n      0x22\n        /* \"#utility.yul\":13841:13844   */\n      dup4\n        /* \"#utility.yul\":13782:13849   */\n      tag_193\n      jump\t// in\n    tag_364:\n        /* \"#utility.yul\":13775:13849   */\n      swap2\n      pop\n        /* \"#utility.yul\":13858:13951   */\n      tag_365\n        /* \"#utility.yul\":13947:13950   */\n      dup3\n        /* \"#utility.yul\":13858:13951   */\n      tag_194\n      jump\t// in\n    tag_365:\n        /* \"#utility.yul\":13976:13978   */\n      0x40\n        /* \"#utility.yul\":13971:13974   */\n      dup3\n        /* \"#utility.yul\":13967:13979   */\n      add\n        /* \"#utility.yul\":13960:13979   */\n      swap1\n      pop\n        /* \"#utility.yul\":13619:13985   */\n      swap2\n      swap1\n      pop\n      jump\t// out\n        /* \"#utility.yul\":13991:14410   */\n    tag_70:\n        /* \"#utility.yul\":14157:14161   */\n      0x00\n        /* \"#utility.yul\":14195:14197   */\n      0x20\n        /* \"#utility.yul\":14184:14193   */\n      dup3\n        /* \"#utility.yul\":14180:14198   */\n      add\n        /* \"#utility.yul\":14172:14198   */\n      swap1\n      pop\n        /* \"#utility.yul\":14244:14253   */\n      dup2\n        /* \"#utility.yul\":14238:14242   */\n      dup2\n        /* \"#utility.yul\":14234:14254   */\n      sub\n        /* \"#utility.yul\":14230:14231   */\n      0x00\n        /* \"#utility.yul\":14219:14228   */\n      dup4\n        /* \"#utility.yul\":14215:14232   */\n      add\n        /* \"#utility.yul\":14208:14255   */\n      mstore\n        /* \"#utility.yul\":14272:14403   */\n      tag_367\n        /* \"#utility.yul\":14398:14402   */\n      dup2\n        /* \"#utility.yul\":14272:14403   */\n      tag_195\n      jump\t// in\n    tag_367:\n        /* \"#utility.yul\":14264:14403   */\n      swap1\n      pop\n        /* \"#utility.yul\":13991:14410   */\n      swap2\n      swap1\n      pop\n      jump\t// out\n        /* \"#utility.yul\":14416:14594   */\n    tag_196:\n        /* \"#utility.yul\":14556:14586   */\n      0x566f74657220697320616c726561647920726567697374657265642e00000000\n        /* \"#utility.yul\":14552:14553   */\n      0x00\n        /* \"#utility.yul\":14544:14550   */\n      dup3\n        /* \"#utility.yul\":14540:14554   */\n      add\n        /* \"#utility.yul\":14533:14587   */\n      mstore\n        /* \"#utility.yul\":14416:14594   */\n      pop\n      jump\t// out\n        /* \"#utility.yul\":14600:14966   */\n    tag_197:\n        /* \"#utility.yul\":14742:14745   */\n      0x00\n        /* \"#utility.yul\":14763:14830   */\n      tag_370\n        /* \"#utility.yul\":14827:14829   */\n      0x1c\n        /* \"#utility.yul\":14822:14825   */\n      dup4\n        /* \"#utility.yul\":14763:14830   */\n      tag_193\n      jump\t// in\n    tag_370:\n        /* \"#utility.yul\":14756:14830   */\n      swap2\n      pop\n        /* \"#utility.yul\":14839:14932   */\n      tag_371\n        /* \"#utility.yul\":14928:14931   */\n      dup3\n        /* \"#utility.yul\":14839:14932   */\n      tag_196\n      jump\t// in\n    tag_371:\n        /* \"#utility.yul\":14957:14959   */\n      0x20\n        /* \"#utility.yul\":14952:14955   */\n      dup3\n        /* \"#utility.yul\":14948:14960   */\n      add\n        /* \"#utility.yul\":14941:14960   */\n      swap1\n      pop\n        /* \"#utility.yul\":14600:14966   */\n      swap2\n      swap1\n      pop\n      jump\t// out\n        /* \"#utility.yul\":14972:15391   */\n    tag_74:\n        /* \"#utility.yul\":15138:15142   */\n      0x00\n        /* \"#utility.yul\":15176:15178   */\n      0x20\n        /* \"#utility.yul\":15165:15174   */\n      dup3\n        /* \"#utility.yul\":15161:15179   */\n      add\n        /* \"#utility.yul\":15153:15179   */\n      swap1\n      pop\n        /* \"#utility.yul\":15225:15234   */\n      dup2\n        /* \"#utility.yul\":15219:15223   */\n      dup2\n        /* \"#utility.yul\":15215:15235   */\n      sub\n        /* \"#utility.yul\":15211:15212   */\n      0x00\n        /* \"#utility.yul\":15200:15209   */\n      dup4\n        /* \"#utility.yul\":15196:15213   */\n      add\n        /* \"#utility.yul\":15189:15236   */\n      mstore\n        /* \"#utility.yul\":15253:15384   */\n      tag_373\n        /* \"#utility.yul\":15379:15383   */\n      dup2\n        /* \"#utility.yul\":15253:15384   */\n      tag_197\n      jump\t// in\n    tag_373:\n        /* \"#utility.yul\":15245:15384   */\n      swap1\n      pop\n        /* \"#utility.yul\":14972:15391   */\n      swap2\n      swap1\n      pop\n      jump\t// out\n        /* \"#utility.yul\":15397:15572   */\n    tag_198:\n        /* \"#utility.yul\":15537:15564   */\n      0x566f74696e6720697320616c7265616479206163746976652e00000000000000\n        /* \"#utility.yul\":15533:15534   */\n      0x00\n        /* \"#utility.yul\":15525:15531   */\n      dup3\n        /* \"#utility.yul\":15521:15535   */\n      add\n        /* \"#utility.yul\":15514:15565   */\n      mstore\n        /* \"#utility.yul\":15397:15572   */\n      pop\n      jump\t// out\n        /* \"#utility.yul\":15578:15944   */\n    tag_199:\n        /* \"#utility.yul\":15720:15723   */\n      0x00\n        /* \"#utility.yul\":15741:15808   */\n      tag_376\n        /* \"#utility.yul\":15805:15807   */\n      0x19\n        /* \"#utility.yul\":15800:15803   */\n      dup4\n        /* \"#utility.yul\":15741:15808   */\n      tag_193\n      jump\t// in\n    tag_376:\n        /* \"#utility.yul\":15734:15808   */\n      swap2\n      pop\n        /* \"#utility.yul\":15817:15910   */\n      tag_377\n        /* \"#utility.yul\":15906:15909   */\n      dup3\n        /* \"#utility.yul\":15817:15910   */\n      tag_198\n      jump\t// in\n    tag_377:\n        /* \"#utility.yul\":15935:15937   */\n      0x20\n        /* \"#utility.yul\":15930:15933   */\n      dup3\n        /* \"#utility.yul\":15926:15938   */\n      add\n        /* \"#utility.yul\":15919:15938   */\n      swap1\n      pop\n        /* \"#utility.yul\":15578:15944   */\n      swap2\n      swap1\n      pop\n      jump\t// out\n        /* \"#utility.yul\":15950:16369   */\n    tag_81:\n        /* \"#utility.yul\":16116:16120   */\n      0x00\n        /* \"#utility.yul\":16154:16156   */\n      0x20\n        /* \"#utility.yul\":16143:16152   */\n      dup3\n        /* \"#utility.yul\":16139:16157   */\n      add\n        /* \"#utility.yul\":16131:16157   */\n      swap1\n      pop\n        /* \"#utility.yul\":16203:16212   */\n      dup2\n        /* \"#utility.yul\":16197:16201   */\n      dup2\n        /* \"#utility.yul\":16193:16213   */\n      sub\n        /* \"#utility.yul\":16189:16190   */\n      0x00\n        /* \"#utility.yul\":16178:16187   */\n      dup4\n        /* \"#utility.yul\":16174:16191   */\n      add\n        /* \"#utility.yul\":16167:16214   */\n      mstore\n        /* \"#utility.yul\":16231:16362   */\n      tag_379\n        /* \"#utility.yul\":16357:16361   */\n      dup2\n        /* \"#utility.yul\":16231:16362   */\n      tag_199\n      jump\t// in\n    tag_379:\n        /* \"#utility.yul\":16223:16362   */\n      swap1\n      pop\n        /* \"#utility.yul\":15950:16369   */\n      swap2\n      swap1\n      pop\n      jump\t// out\n        /* \"#utility.yul\":16375:16555   */\n    tag_200:\n        /* \"#utility.yul\":16423:16500   */\n      0x4e487b7100000000000000000000000000000000000000000000000000000000\n        /* \"#utility.yul\":16420:16421   */\n      0x00\n        /* \"#utility.yul\":16413:16501   */\n      mstore\n        /* \"#utility.yul\":16520:16524   */\n      0x22\n        /* \"#utility.yul\":16517:16518   */\n      0x04\n        /* \"#utility.yul\":16510:16525   */\n      mstore\n        /* \"#utility.yul\":16544:16548   */\n      0x24\n        /* \"#utility.yul\":16541:16542   */\n      0x00\n        /* \"#utility.yul\":16534:16549   */\n      revert\n        /* \"#utility.yul\":16561:16881   */\n    tag_94:\n        /* \"#utility.yul\":16605:16611   */\n      0x00\n        /* \"#utility.yul\":16642:16643   */\n      0x02\n        /* \"#utility.yul\":16636:16640   */\n      dup3\n        /* \"#utility.yul\":16632:16644   */\n      div\n        /* \"#utility.yul\":16622:16644   */\n      swap1\n      pop\n        /* \"#utility.yul\":16689:16690   */\n      0x01\n        /* \"#utility.yul\":16683:16687   */\n      dup3\n        /* \"#utility.yul\":16679:16691   */\n      and\n        /* \"#utility.yul\":16710:16728   */\n      dup1\n        /* \"#utility.yul\":16700:16781   */\n      tag_382\n      jumpi\n        /* \"#utility.yul\":16766:16770   */\n      0x7f\n        /* \"#utility.yul\":16758:16764   */\n      dup3\n        /* \"#utility.yul\":16754:16771   */\n      and\n        /* \"#utility.yul\":16744:16771   */\n      swap2\n      pop\n        /* \"#utility.yul\":16700:16781   */\n    tag_382:\n        /* \"#utility.yul\":16828:16830   */\n      0x20\n        /* \"#utility.yul\":16820:16826   */\n      dup3\n        /* \"#utility.yul\":16817:16831   */\n      lt\n        /* \"#utility.yul\":16797:16815   */\n      dup2\n        /* \"#utility.yul\":16794:16832   */\n      sub\n        /* \"#utility.yul\":16791:16875   */\n      tag_383\n      jumpi\n        /* \"#utility.yul\":16847:16865   */\n      tag_384\n      tag_200\n      jump\t// in\n    tag_384:\n        /* \"#utility.yul\":16791:16875   */\n    tag_383:\n        /* \"#utility.yul\":16612:16881   */\n      pop\n        /* \"#utility.yul\":16561:16881   */\n      swap2\n      swap1\n      pop\n      jump\t// out\n        /* \"#utility.yul\":16887:17067   */\n    tag_201:\n        /* \"#utility.yul\":16935:17012   */\n      0x4e487b7100000000000000000000000000000000000000000000000000000000\n        /* \"#utility.yul\":16932:16933   */\n      0x00\n        /* \"#utility.yul\":16925:17013   */\n      mstore\n        /* \"#utility.yul\":17032:17036   */\n      0x11\n        /* \"#utility.yul\":17029:17030   */\n      0x04\n        /* \"#utility.yul\":17022:17037   */\n      mstore\n        /* \"#utility.yul\":17056:17060   */\n      0x24\n        /* \"#utility.yul\":17053:17054   */\n      0x00\n        /* \"#utility.yul\":17046:17061   */\n      revert\n        /* \"#utility.yul\":17073:17267   */\n    tag_100:\n        /* \"#utility.yul\":17113:17117   */\n      0x00\n        /* \"#utility.yul\":17133:17153   */\n      tag_387\n        /* \"#utility.yul\":17151:17152   */\n      dup3\n        /* \"#utility.yul\":17133:17153   */\n      tag_161\n      jump\t// in\n    tag_387:\n        /* \"#utility.yul\":17128:17153   */\n      swap2\n      pop\n        /* \"#utility.yul\":17167:17187   */\n      tag_388\n        /* \"#utility.yul\":17185:17186   */\n      dup4\n        /* \"#utility.yul\":17167:17187   */\n      tag_161\n      jump\t// in\n    tag_388:\n        /* \"#utility.yul\":17162:17187   */\n      swap3\n      pop\n        /* \"#utility.yul\":17211:17212   */\n      dup3\n        /* \"#utility.yul\":17208:17209   */\n      dup3\n        /* \"#utility.yul\":17204:17213   */\n      sub\n        /* \"#utility.yul\":17196:17213   */\n      swap1\n      pop\n        /* \"#utility.yul\":17235:17236   */\n      dup2\n        /* \"#utility.yul\":17229:17233   */\n      dup2\n        /* \"#utility.yul\":17226:17237   */\n      gt\n        /* \"#utility.yul\":17223:17260   */\n      iszero\n      tag_389\n      jumpi\n        /* \"#utility.yul\":17240:17258   */\n      tag_390\n      tag_201\n      jump\t// in\n    tag_390:\n        /* \"#utility.yul\":17223:17260   */\n    tag_389:\n        /* \"#utility.yul\":17073:17267   */\n      swap3\n      swap2\n      pop\n      pop\n      jump\t// out\n        /* \"#utility.yul\":17273:17453   */\n    tag_103:\n        /* \"#utility.yul\":17321:17398   */\n      0x4e487b7100000000000000000000000000000000000000000000000000000000\n        /* \"#utility.yul\":17318:17319   */\n      0x00\n        /* \"#utility.yul\":17311:17399   */\n      mstore\n        /* \"#utility.yul\":17418:17422   */\n      0x32\n        /* \"#utility.yul\":17415:17416   */\n      0x04\n        /* \"#utility.yul\":17408:17423   */\n      mstore\n        /* \"#utility.yul\":17442:17446   */\n      0x24\n        /* \"#utility.yul\":17439:17440   */\n      0x00\n        /* \"#utility.yul\":17432:17447   */\n      revert\n        /* \"#utility.yul\":17459:17692   */\n    tag_105:\n        /* \"#utility.yul\":17498:17501   */\n      0x00\n        /* \"#utility.yul\":17521:17545   */\n      tag_393\n        /* \"#utility.yul\":17539:17544   */\n      dup3\n        /* \"#utility.yul\":17521:17545   */\n      tag_161\n      jump\t// in\n    tag_393:\n        /* \"#utility.yul\":17512:17545   */\n      swap2\n      pop\n        /* \"#utility.yul\":17567:17633   */\n      0xffffffffffffffffffffffffffffffffffffffffffffffffffffffffffffffff\n        /* \"#utility.yul\":17560:17565   */\n      dup3\n        /* \"#utility.yul\":17557:17634   */\n      sub\n        /* \"#utility.yul\":17554:17657   */\n      tag_394\n      jumpi\n        /* \"#utility.yul\":17637:17655   */\n      tag_395\n      tag_201\n      jump\t// in\n    tag_395:\n        /* \"#utility.yul\":17554:17657   */\n    tag_394:\n        /* \"#utility.yul\":17684:17685   */\n      0x01\n        /* \"#utility.yul\":17677:17682   */\n      dup3\n        /* \"#utility.yul\":17673:17686   */\n      add\n        /* \"#utility.yul\":17666:17686   */\n      swap1\n      pop\n        /* \"#utility.yul\":17459:17692   */\n      swap2\n      swap1\n      pop\n      jump\t// out\n        /* \"#utility.yul\":17698:17925   */\n    tag_202:\n        /* \"#utility.yul\":17838:17872   */\n      0x5468697320766f74657220686173206e6f7420766f74656420696e2074686973\n        /* \"#utility.yul\":17834:17835   */\n      0x00\n        /* \"#utility.yul\":17826:17832   */\n      dup3\n        /* \"#utility.yul\":17822:17836   */\n      add\n        /* \"#utility.yul\":17815:17873   */\n      mstore\n        /* \"#utility.yul\":17907:17917   */\n      0x20766f74696e672e000000000000000000000000000000000000000000000000\n        /* \"#utility.yul\":17902:17904   */\n      0x20\n        /* \"#utility.yul\":17894:17900   */\n      dup3\n        /* \"#utility.yul\":17890:17905   */\n      add\n        /* \"#utility.yul\":17883:17918   */\n      mstore\n        /* \"#utility.yul\":17698:17925   */\n      pop\n      jump\t// out\n        /* \"#utility.yul\":17931:18297   */\n    tag_203:\n        /* \"#utility.yul\":18073:18076   */\n      0x00\n        /* \"#utility.yul\":18094:18161   */\n      tag_398\n        /* \"#utility.yul\":18158:18160   */\n      0x28\n        /* \"#utility.yul\":18153:18156   */\n      dup4\n        /* \"#utility.yul\":18094:18161   */\n      tag_193\n      jump\t// in\n    tag_398:\n        /* \"#utility.yul\":18087:18161   */\n      swap2\n      pop\n        /* \"#utility.yul\":18170:18263   */\n      tag_399\n        /* \"#utility.yul\":18259:18262   */\n      dup3\n        /* \"#utility.yul\":18170:18263   */\n      tag_202\n      jump\t// in\n    tag_399:\n        /* \"#utility.yul\":18288:18290   */\n      0x40\n        /* \"#utility.yul\":18283:18286   */\n      dup3\n        /* \"#utility.yul\":18279:18291   */\n      add\n        /* \"#utility.yul\":18272:18291   */\n      swap1\n      pop\n        /* \"#utility.yul\":17931:18297   */\n      swap2\n      swap1\n      pop\n      jump\t// out\n        /* \"#utility.yul\":18303:18722   */\n    tag_109:\n        /* \"#utility.yul\":18469:18473   */\n      0x00\n        /* \"#utility.yul\":18507:18509   */\n      0x20\n        /* \"#utility.yul\":18496:18505   */\n      dup3\n        /* \"#utility.yul\":18492:18510   */\n      add\n        /* \"#utility.yul\":18484:18510   */\n      swap1\n      pop\n        /* \"#utility.yul\":18556:18565   */\n      dup2\n        /* \"#utility.yul\":18550:18554   */\n      dup2\n        /* \"#utility.yul\":18546:18566   */\n      sub\n        /* \"#utility.yul\":18542:18543   */\n      0x00\n        /* \"#utility.yul\":18531:18540   */\n      dup4\n        /* \"#utility.yul\":18527:18544   */\n      add\n        /* \"#utility.yul\":18520:18567   */\n      mstore\n        /* \"#utility.yul\":18584:18715   */\n      tag_401\n        /* \"#utility.yul\":18710:18714   */\n      dup2\n        /* \"#utility.yul\":18584:18715   */\n      tag_203\n      jump\t// in\n    tag_401:\n        /* \"#utility.yul\":18576:18715   */\n      swap1\n      pop\n        /* \"#utility.yul\":18303:18722   */\n      swap2\n      swap1\n      pop\n      jump\t// out\n        /* \"#utility.yul\":18728:18909   */\n    tag_204:\n        /* \"#utility.yul\":18868:18901   */\n      0x566f74696e67206973206e6f742063757272656e746c79206163746976652e00\n        /* \"#utility.yul\":18864:18865   */\n      0x00\n        /* \"#utility.yul\":18856:18862   */\n      dup3\n        /* \"#utility.yul\":18852:18866   */\n      add\n        /* \"#utility.yul\":18845:18902   */\n      mstore\n        /* \"#utility.yul\":18728:18909   */\n      pop\n      jump\t// out\n        /* \"#utility.yul\":18915:19281   */\n    tag_205:\n        /* \"#utility.yul\":19057:19060   */\n      0x00\n        /* \"#utility.yul\":19078:19145   */\n      tag_404\n        /* \"#utility.yul\":19142:19144   */\n      0x1f\n        /* \"#utility.yul\":19137:19140   */\n      dup4\n        /* \"#utility.yul\":19078:19145   */\n      tag_193\n      jump\t// in\n    tag_404:\n        /* \"#utility.yul\":19071:19145   */\n      swap2\n      pop\n        /* \"#utility.yul\":19154:19247   */\n      tag_405\n        /* \"#utility.yul\":19243:19246   */\n      dup3\n        /* \"#utility.yul\":19154:19247   */\n      tag_204\n      jump\t// in\n    tag_405:\n        /* \"#utility.yul\":19272:19274   */\n      0x20\n        /* \"#utility.yul\":19267:19270   */\n      dup3\n        /* \"#utility.yul\":19263:19275   */\n      add\n        /* \"#utility.yul\":19256:19275   */\n      swap1\n      pop\n        /* \"#utility.yul\":18915:19281   */\n      swap2\n      swap1\n      pop\n      jump\t// out\n        /* \"#utility.yul\":19287:19706   */\n    tag_116:\n        /* \"#utility.yul\":19453:19457   */\n      0x00\n        /* \"#utility.yul\":19491:19493   */\n      0x20\n        /* \"#utility.yul\":19480:19489   */\n      dup3\n        /* \"#utility.yul\":19476:19494   */\n      add\n        /* \"#utility.yul\":19468:19494   */\n      swap1\n      pop\n        /* \"#utility.yul\":19540:19549   */\n      dup2\n        /* \"#utility.yul\":19534:19538   */\n      dup2\n        /* \"#utility.yul\":19530:19550   */\n      sub\n        /* \"#utility.yul\":19526:19527   */\n      0x00\n        /* \"#utility.yul\":19515:19524   */\n      dup4\n        /* \"#utility.yul\":19511:19528   */\n      add\n        /* \"#utility.yul\":19504:19551   */\n      mstore\n        /* \"#utility.yul\":19568:19699   */\n      tag_407\n        /* \"#utility.yul\":19694:19698   */\n      dup2\n        /* \"#utility.yul\":19568:19699   */\n      tag_205\n      jump\t// in\n    tag_407:\n        /* \"#utility.yul\":19560:19699   */\n      swap1\n      pop\n        /* \"#utility.yul\":19287:19706   */\n      swap2\n      swap1\n      pop\n      jump\t// out\n        /* \"#utility.yul\":19712:19893   */\n    tag_206:\n        /* \"#utility.yul\":19852:19885   */\n      0x596f75206d7573742062652061207265676973746572656420766f7465722e00\n        /* \"#utility.yul\":19848:19849   */\n      0x00\n        /* \"#utility.yul\":19840:19846   */\n      dup3\n        /* \"#utility.yul\":19836:19850   */\n      add\n        /* \"#utility.yul\":19829:19886   */\n      mstore\n        /* \"#utility.yul\":19712:19893   */\n      pop\n      jump\t// out\n        /* \"#utility.yul\":19899:20265   */\n    tag_207:\n        /* \"#utility.yul\":20041:20044   */\n      0x00\n        /* \"#utility.yul\":20062:20129   */\n      tag_410\n        /* \"#utility.yul\":20126:20128   */\n      0x1f\n        /* \"#utility.yul\":20121:20124   */\n      dup4\n        /* \"#utility.yul\":20062:20129   */\n      tag_193\n      jump\t// in\n    tag_410:\n        /* \"#utility.yul\":20055:20129   */\n      swap2\n      pop\n        /* \"#utility.yul\":20138:20231   */\n      tag_411\n        /* \"#utility.yul\":20227:20230   */\n      dup3\n        /* \"#utility.yul\":20138:20231   */\n      tag_206\n      jump\t// in\n    tag_411:\n        /* \"#utility.yul\":20256:20258   */\n      0x20\n        /* \"#utility.yul\":20251:20254   */\n      dup3\n        /* \"#utility.yul\":20247:20259   */\n      add\n        /* \"#utility.yul\":20240:20259   */\n      swap1\n      pop\n        /* \"#utility.yul\":19899:20265   */\n      swap2\n      swap1\n      pop\n      jump\t// out\n        /* \"#utility.yul\":20271:20690   */\n    tag_120:\n        /* \"#utility.yul\":20437:20441   */\n      0x00\n        /* \"#utility.yul\":20475:20477   */\n      0x20\n        /* \"#utility.yul\":20464:20473   */\n      dup3\n        /* \"#utility.yul\":20460:20478   */\n      add\n        /* \"#utility.yul\":20452:20478   */\n      swap1\n      pop\n        /* \"#utility.yul\":20524:20533   */\n      dup2\n        /* \"#utility.yul\":20518:20522   */\n      dup2\n        /* \"#utility.yul\":20514:20534   */\n      sub\n        /* \"#utility.yul\":20510:20511   */\n      0x00\n        /* \"#utility.yul\":20499:20508   */\n      dup4\n        /* \"#utility.yul\":20495:20512   */\n      add\n        /* \"#utility.yul\":20488:20535   */\n      mstore\n        /* \"#utility.yul\":20552:20683   */\n      tag_413\n        /* \"#utility.yul\":20678:20682   */\n      dup2\n        /* \"#utility.yul\":20552:20683   */\n      tag_207\n      jump\t// in\n    tag_413:\n        /* \"#utility.yul\":20544:20683   */\n      swap1\n      pop\n        /* \"#utility.yul\":20271:20690   */\n      swap2\n      swap1\n      pop\n      jump\t// out\n        /* \"#utility.yul\":20696:20921   */\n    tag_208:\n        /* \"#utility.yul\":20836:20870   */\n      0x596f75206861766520616c726561647920766f74656420696e20746869732076\n        /* \"#utility.yul\":20832:20833   */\n      0x00\n        /* \"#utility.yul\":20824:20830   */\n      dup3\n        /* \"#utility.yul\":20820:20834   */\n      add\n        /* \"#utility.yul\":20813:20871   */\n      mstore\n        /* \"#utility.yul\":20905:20913   */\n      0x6f74696e672e0000000000000000000000000000000000000000000000000000\n        /* \"#utility.yul\":20900:20902   */\n      0x20\n        /* \"#utility.yul\":20892:20898   */\n      dup3\n        /* \"#utility.yul\":20888:20903   */\n      add\n        /* \"#utility.yul\":20881:20914   */\n      mstore\n        /* \"#utility.yul\":20696:20921   */\n      pop\n      jump\t// out\n        /* \"#utility.yul\":20927:21293   */\n    tag_209:\n        /* \"#utility.yul\":21069:21072   */\n      0x00\n        /* \"#utility.yul\":21090:21157   */\n      tag_416\n        /* \"#utility.yul\":21154:21156   */\n      0x26\n        /* \"#utility.yul\":21149:21152   */\n      dup4\n        /* \"#utility.yul\":21090:21157   */\n      tag_193\n      jump\t// in\n    tag_416:\n        /* \"#utility.yul\":21083:21157   */\n      swap2\n      pop\n        /* \"#utility.yul\":21166:21259   */\n      tag_417\n        /* \"#utility.yul\":21255:21258   */\n      dup3\n        /* \"#utility.yul\":21166:21259   */\n      tag_208\n      jump\t// in\n    tag_417:\n        /* \"#utility.yul\":21284:21286   */\n      0x40\n        /* \"#utility.yul\":21279:21282   */\n      dup3\n        /* \"#utility.yul\":21275:21287   */\n      add\n        /* \"#utility.yul\":21268:21287   */\n      swap1\n      pop\n        /* \"#utility.yul\":20927:21293   */\n      swap2\n      swap1\n      pop\n      jump\t// out\n        /* \"#utility.yul\":21299:21718   */\n    tag_127:\n        /* \"#utility.yul\":21465:21469   */\n      0x00\n        /* \"#utility.yul\":21503:21505   */\n      0x20\n        /* \"#utility.yul\":21492:21501   */\n      dup3\n        /* \"#utility.yul\":21488:21506   */\n      add\n        /* \"#utility.yul\":21480:21506   */\n      swap1\n      pop\n        /* \"#utility.yul\":21552:21561   */\n      dup2\n        /* \"#utility.yul\":21546:21550   */\n      dup2\n        /* \"#utility.yul\":21542:21562   */\n      sub\n        /* \"#utility.yul\":21538:21539   */\n      0x00\n        /* \"#utility.yul\":21527:21536   */\n      dup4\n        /* \"#utility.yul\":21523:21540   */\n      add\n        /* \"#utility.yul\":21516:21563   */\n      mstore\n        /* \"#utility.yul\":21580:21711   */\n      tag_419\n        /* \"#utility.yul\":21706:21710   */\n      dup2\n        /* \"#utility.yul\":21580:21711   */\n      tag_209\n      jump\t// in\n    tag_419:\n        /* \"#utility.yul\":21572:21711   */\n      swap1\n      pop\n        /* \"#utility.yul\":21299:21718   */\n      swap2\n      swap1\n      pop\n      jump\t// out\n        /* \"#utility.yul\":21724:21895   */\n    tag_210:\n        /* \"#utility.yul\":21864:21887   */\n      0x496e76616c69642063616e6469646174652049442e0000000000000000000000\n        /* \"#utility.yul\":21860:21861   */\n      0x00\n        /* \"#utility.yul\":21852:21858   */\n      dup3\n        /* \"#utility.yul\":21848:21862   */\n      add\n        /* \"#utility.yul\":21841:21888   */\n      mstore\n        /* \"#utility.yul\":21724:21895   */\n      pop\n      jump\t// out\n        /* \"#utility.yul\":21901:22267   */\n    tag_211:\n        /* \"#utility.yul\":22043:22046   */\n      0x00\n        /* \"#utility.yul\":22064:22131   */\n      tag_422\n        /* \"#utility.yul\":22128:22130   */\n      0x15\n        /* \"#utility.yul\":22123:22126   */\n      dup4\n        /* \"#utility.yul\":22064:22131   */\n      tag_193\n      jump\t// in\n    tag_422:\n        /* \"#utility.yul\":22057:22131   */\n      swap2\n      pop\n        /* \"#utility.yul\":22140:22233   */\n      tag_423\n        /* \"#utility.yul\":22229:22232   */\n      dup3\n        /* \"#utility.yul\":22140:22233   */\n      tag_210\n      jump\t// in\n    tag_423:\n        /* \"#utility.yul\":22258:22260   */\n      0x20\n        /* \"#utility.yul\":22253:22256   */\n      dup3\n        /* \"#utility.yul\":22249:22261   */\n      add\n        /* \"#utility.yul\":22242:22261   */\n      swap1\n      pop\n        /* \"#utility.yul\":21901:22267   */\n      swap2\n      swap1\n      pop\n      jump\t// out\n        /* \"#utility.yul\":22273:22692   */\n    tag_131:\n        /* \"#utility.yul\":22439:22443   */\n      0x00\n        /* \"#utility.yul\":22477:22479   */\n      0x20\n        /* \"#utility.yul\":22466:22475   */\n      dup3\n        /* \"#utility.yul\":22462:22480   */\n      add\n        /* \"#utility.yul\":22454:22480   */\n      swap1\n      pop\n        /* \"#utility.yul\":22526:22535   */\n      dup2\n        /* \"#utility.yul\":22520:22524   */\n      dup2\n        /* \"#utility.yul\":22516:22536   */\n      sub\n        /* \"#utility.yul\":22512:22513   */\n      0x00\n        /* \"#utility.yul\":22501:22510   */\n      dup4\n        /* \"#utility.yul\":22497:22514   */\n      add\n        /* \"#utility.yul\":22490:22537   */\n      mstore\n        /* \"#utility.yul\":22554:22685   */\n      tag_425\n        /* \"#utility.yul\":22680:22684   */\n      dup2\n        /* \"#utility.yul\":22554:22685   */\n      tag_211\n      jump\t// in\n    tag_425:\n        /* \"#utility.yul\":22546:22685   */\n      swap1\n      pop\n        /* \"#utility.yul\":22273:22692   */\n      swap2\n      swap1\n      pop\n      jump\t// out\n        /* \"#utility.yul\":22698:22839   */\n    tag_212:\n        /* \"#utility.yul\":22747:22751   */\n      0x00\n        /* \"#utility.yul\":22770:22773   */\n      dup2\n        /* \"#utility.yul\":22762:22773   */\n      swap1\n      pop\n        /* \"#utility.yul\":22793:22796   */\n      dup2\n        /* \"#utility.yul\":22790:22791   */\n      0x00\n        /* \"#utility.yul\":22783:22797   */\n      mstore\n        /* \"#utility.yul\":22827:22831   */\n      0x20\n        /* \"#utility.yul\":22824:22825   */\n      0x00\n        /* \"#utility.yul\":22814:22832   */\n      keccak256\n        /* \"#utility.yul\":22806:22832   */\n      swap1\n      pop\n        /* \"#utility.yul\":22698:22839   */\n      swap2\n      swap1\n      pop\n      jump\t// out\n        /* \"#utility.yul\":22845:22938   */\n    tag_213:\n        /* \"#utility.yul\":22882:22888   */\n      0x00\n        /* \"#utility.yul\":22929:22931   */\n      0x20\n        /* \"#utility.yul\":22924:22926   */\n      0x1f\n        /* \"#utility.yul\":22917:22922   */\n      dup4\n        /* \"#utility.yul\":22913:22927   */\n      add\n        /* \"#utility.yul\":22909:22932   */\n      div\n        /* \"#utility.yul\":22899:22932   */\n      swap1\n      pop\n        /* \"#utility.yul\":22845:22938   */\n      swap2\n      swap1\n      pop\n      jump\t// out\n        /* \"#utility.yul\":22944:23051   */\n    tag_214:\n        /* \"#utility.yul\":22988:22996   */\n      0x00\n        /* \"#utility.yul\":23038:23043   */\n      dup3\n        /* \"#utility.yul\":23032:23036   */\n      dup3\n        /* \"#utility.yul\":23028:23044   */\n      shl\n        /* \"#utility.yul\":23007:23044   */\n      swap1\n      pop\n        /* \"#utility.yul\":22944:23051   */\n      swap3\n      swap2\n      pop\n      pop\n      jump\t// out\n        /* \"#utility.yul\":23057:23450   */\n    tag_215:\n        /* \"#utility.yul\":23126:23132   */\n      0x00\n        /* \"#utility.yul\":23176:23177   */\n      0x08\n        /* \"#utility.yul\":23164:23174   */\n      dup4\n        /* \"#utility.yul\":23160:23178   */\n      mul\n        /* \"#utility.yul\":23199:23296   */\n      tag_430\n        /* \"#utility.yul\":23229:23295   */\n      0xffffffffffffffffffffffffffffffffffffffffffffffffffffffffffffffff\n        /* \"#utility.yul\":23218:23227   */\n      dup3\n        /* \"#utility.yul\":23199:23296   */\n      tag_214\n      jump\t// in\n    tag_430:\n        /* \"#utility.yul\":23317:23356   */\n      tag_431\n        /* \"#utility.yul\":23347:23355   */\n      dup7\n        /* \"#utility.yul\":23336:23345   */\n      dup4\n        /* \"#utility.yul\":23317:23356   */\n      tag_214\n      jump\t// in\n    tag_431:\n        /* \"#utility.yul\":23305:23356   */\n      swap6\n      pop\n        /* \"#utility.yul\":23389:23393   */\n      dup1\n        /* \"#utility.yul\":23385:23394   */\n      not\n        /* \"#utility.yul\":23378:23383   */\n      dup5\n        /* \"#utility.yul\":23374:23395   */\n      and\n        /* \"#utility.yul\":23365:23395   */\n      swap4\n      pop\n        /* \"#utility.yul\":23438:23442   */\n      dup1\n        /* \"#utility.yul\":23428:23436   */\n      dup7\n        /* \"#utility.yul\":23424:23443   */\n      and\n        /* \"#utility.yul\":23417:23422   */\n      dup5\n        /* \"#utility.yul\":23414:23444   */\n      or\n        /* \"#utility.yul\":23404:23444   */\n      swap3\n      pop\n        /* \"#utility.yul\":23133:23450   */\n      pop\n      pop\n        /* \"#utility.yul\":23057:23450   */\n      swap4\n      swap3\n      pop\n      pop\n      pop\n      jump\t// out\n        /* \"#utility.yul\":23456:23516   */\n    tag_216:\n        /* \"#utility.yul\":23484:23487   */\n      0x00\n        /* \"#utility.yul\":23505:23510   */\n      dup2\n        /* \"#utility.yul\":23498:23510   */\n      swap1\n      pop\n        /* \"#utility.yul\":23456:23516   */\n      swap2\n      swap1\n      pop\n      jump\t// out\n        /* \"#utility.yul\":23522:23664   */\n    tag_217:\n        /* \"#utility.yul\":23572:23581   */\n      0x00\n        /* \"#utility.yul\":23605:23658   */\n      tag_434\n        /* \"#utility.yul\":23623:23657   */\n      tag_435\n        /* \"#utility.yul\":23632:23656   */\n      tag_436\n        /* \"#utility.yul\":23650:23655   */\n      dup5\n        /* \"#utility.yul\":23632:23656   */\n      tag_161\n      jump\t// in\n    tag_436:\n        /* \"#utility.yul\":23623:23657   */\n      tag_216\n      jump\t// in\n    tag_435:\n        /* \"#utility.yul\":23605:23658   */\n      tag_161\n      jump\t// in\n    tag_434:\n        /* \"#utility.yul\":23592:23658   */\n      swap1\n      pop\n        /* \"#utility.yul\":23522:23664   */\n      swap2\n      swap1\n      pop\n      jump\t// out\n        /* \"#utility.yul\":23670:23745   */\n    tag_218:\n        /* \"#utility.yul\":23713:23716   */\n      0x00\n        /* \"#utility.yul\":23734:23739   */\n      dup2\n        /* \"#utility.yul\":23727:23739   */\n      swap1\n      pop\n        /* \"#utility.yul\":23670:23745   */\n      swap2\n      swap1\n      pop\n      jump\t// out\n        /* \"#utility.yul\":23751:24020   */\n    tag_219:\n        /* \"#utility.yul\":23861:23900   */\n      tag_439\n        /* \"#utility.yul\":23892:23899   */\n      dup4\n        /* \"#utility.yul\":23861:23900   */\n      tag_217\n      jump\t// in\n    tag_439:\n        /* \"#utility.yul\":23922:24013   */\n      tag_440\n        /* \"#utility.yul\":23971:24012   */\n      tag_441\n        /* \"#utility.yul\":23995:24011   */\n      dup3\n        /* \"#utility.yul\":23971:24012   */\n      tag_218\n      jump\t// in\n    tag_441:\n        /* \"#utility.yul\":23963:23969   */\n      dup5\n        /* \"#utility.yul\":23956:23960   */\n      dup5\n        /* \"#utility.yul\":23950:23961   */\n      sload\n        /* \"#utility.yul\":23922:24013   */\n      tag_215\n      jump\t// in\n    tag_440:\n        /* \"#utility.yul\":23916:23920   */\n      dup3\n        /* \"#utility.yul\":23909:24014   */\n      sstore\n        /* \"#utility.yul\":23827:24020   */\n      pop\n        /* \"#utility.yul\":23751:24020   */\n      pop\n      pop\n      pop\n      jump\t// out\n        /* \"#utility.yul\":24026:24099   */\n    tag_220:\n        /* \"#utility.yul\":24071:24074   */\n      0x00\n        /* \"#utility.yul\":24026:24099   */\n      swap1\n      jump\t// out\n        /* \"#utility.yul\":24105:24294   */\n    tag_221:\n        /* \"#utility.yul\":24182:24214   */\n      tag_444\n      tag_220\n      jump\t// in\n    tag_444:\n        /* \"#utility.yul\":24223:24288   */\n      tag_445\n        /* \"#utility.yul\":24281:24287   */\n      dup2\n        /* \"#utility.yul\":24273:24279   */\n      dup5\n        /* \"#utility.yul\":24267:24271   */\n      dup5\n        /* \"#utility.yul\":24223:24288   */\n      tag_219\n      jump\t// in\n    tag_445:\n        /* \"#utility.yul\":24158:24294   */\n      pop\n        /* \"#utility.yul\":24105:24294   */\n      pop\n      pop\n      jump\t// out\n        /* \"#utility.yul\":24300:24486   */\n    tag_222:\n        /* \"#utility.yul\":24360:24480   */\n    tag_447:\n        /* \"#utility.yul\":24377:24380   */\n      dup2\n        /* \"#utility.yul\":24370:24375   */\n      dup2\n        /* \"#utility.yul\":24367:24381   */\n      lt\n        /* \"#utility.yul\":24360:24480   */\n      iszero\n      tag_449\n      jumpi\n        /* \"#utility.yul\":24431:24470   */\n      tag_450\n        /* \"#utility.yul\":24468:24469   */\n      0x00\n        /* \"#utility.yul\":24461:24466   */\n      dup3\n        /* \"#utility.yul\":24431:24470   */\n      tag_221\n      jump\t// in\n    tag_450:\n        /* \"#utility.yul\":24404:24405   */\n      0x01\n        /* \"#utility.yul\":24397:24402   */\n      dup2\n        /* \"#utility.yul\":24393:24406   */\n      add\n        /* \"#utility.yul\":24384:24406   */\n      swap1\n      pop\n        /* \"#utility.yul\":24360:24480   */\n      jump(tag_447)\n    tag_449:\n        /* \"#utility.yul\":24300:24486   */\n      pop\n      pop\n      jump\t// out\n        /* \"#utility.yul\":24492:25035   */\n    tag_223:\n        /* \"#utility.yul\":24593:24595   */\n      0x1f\n        /* \"#utility.yul\":24588:24591   */\n      dup3\n        /* \"#utility.yul\":24585:24596   */\n      gt\n        /* \"#utility.yul\":24582:25028   */\n      iszero\n      tag_452\n      jumpi\n        /* \"#utility.yul\":24627:24665   */\n      tag_453\n        /* \"#utility.yul\":24659:24664   */\n      dup2\n        /* \"#utility.yul\":24627:24665   */\n      tag_212\n      jump\t// in\n    tag_453:\n        /* \"#utility.yul\":24711:24740   */\n      tag_454\n        /* \"#utility.yul\":24729:24739   */\n      dup5\n        /* \"#utility.yul\":24711:24740   */\n      tag_213\n      jump\t// in\n    tag_454:\n        /* \"#utility.yul\":24701:24709   */\n      dup2\n        /* \"#utility.yul\":24697:24741   */\n      add\n        /* \"#utility.yul\":24894:24896   */\n      0x20\n        /* \"#utility.yul\":24882:24892   */\n      dup6\n        /* \"#utility.yul\":24879:24897   */\n      lt\n        /* \"#utility.yul\":24876:24925   */\n      iszero\n      tag_455\n      jumpi\n        /* \"#utility.yul\":24915:24923   */\n      dup2\n        /* \"#utility.yul\":24900:24923   */\n      swap1\n      pop\n        /* \"#utility.yul\":24876:24925   */\n    tag_455:\n        /* \"#utility.yul\":24938:25018   */\n      tag_456\n        /* \"#utility.yul\":24994:25016   */\n      tag_457\n        /* \"#utility.yul\":25012:25015   */\n      dup6\n        /* \"#utility.yul\":24994:25016   */\n      tag_213\n      jump\t// in\n    tag_457:\n        /* \"#utility.yul\":24984:24992   */\n      dup4\n        /* \"#utility.yul\":24980:25017   */\n      add\n        /* \"#utility.yul\":24967:24978   */\n      dup3\n        /* \"#utility.yul\":24938:25018   */\n      tag_222\n      jump\t// in\n    tag_456:\n        /* \"#utility.yul\":24597:25028   */\n      pop\n      pop\n        /* \"#utility.yul\":24582:25028   */\n    tag_452:\n        /* \"#utility.yul\":24492:25035   */\n      pop\n      pop\n      pop\n      jump\t// out\n        /* \"#utility.yul\":25041:25158   */\n    tag_224:\n        /* \"#utility.yul\":25095:25103   */\n      0x00\n        /* \"#utility.yul\":25145:25150   */\n      dup3\n        /* \"#utility.yul\":25139:25143   */\n      dup3\n        /* \"#utility.yul\":25135:25151   */\n      shr\n        /* \"#utility.yul\":25114:25151   */\n      swap1\n      pop\n        /* \"#utility.yul\":25041:25158   */\n      swap3\n      swap2\n      pop\n      pop\n      jump\t// out\n        /* \"#utility.yul\":25164:25333   */\n    tag_225:\n        /* \"#utility.yul\":25208:25214   */\n      0x00\n        /* \"#utility.yul\":25241:25292   */\n      tag_460\n        /* \"#utility.yul\":25289:25290   */\n      0x00\n        /* \"#utility.yul\":25285:25291   */\n      not\n        /* \"#utility.yul\":25277:25282   */\n      dup5\n        /* \"#utility.yul\":25274:25275   */\n      0x08\n        /* \"#utility.yul\":25270:25283   */\n      mul\n        /* \"#utility.yul\":25241:25292   */\n      tag_224\n      jump\t// in\n    tag_460:\n        /* \"#utility.yul\":25237:25293   */\n      not\n        /* \"#utility.yul\":25322:25326   */\n      dup1\n        /* \"#utility.yul\":25316:25320   */\n      dup4\n        /* \"#utility.yul\":25312:25327   */\n      and\n        /* \"#utility.yul\":25302:25327   */\n      swap2\n      pop\n        /* \"#utility.yul\":25215:25333   */\n      pop\n        /* \"#utility.yul\":25164:25333   */\n      swap3\n      swap2\n      pop\n      pop\n      jump\t// out\n        /* \"#utility.yul\":25338:25633   */\n    tag_226:\n        /* \"#utility.yul\":25414:25418   */\n      0x00\n        /* \"#utility.yul\":25560:25589   */\n      tag_462\n        /* \"#utility.yul\":25585:25588   */\n      dup4\n        /* \"#utility.yul\":25579:25583   */\n      dup4\n        /* \"#utility.yul\":25560:25589   */\n      tag_225\n      jump\t// in\n    tag_462:\n        /* \"#utility.yul\":25552:25589   */\n      swap2\n      pop\n        /* \"#utility.yul\":25622:25625   */\n      dup3\n        /* \"#utility.yul\":25619:25620   */\n      0x02\n        /* \"#utility.yul\":25615:25626   */\n      mul\n        /* \"#utility.yul\":25609:25613   */\n      dup3\n        /* \"#utility.yul\":25606:25627   */\n      or\n        /* \"#utility.yul\":25598:25627   */\n      swap1\n      pop\n        /* \"#utility.yul\":25338:25633   */\n      swap3\n      swap2\n      pop\n      pop\n      jump\t// out\n        /* \"#utility.yul\":25638:27033   */\n    tag_153:\n        /* \"#utility.yul\":25755:25792   */\n      tag_464\n        /* \"#utility.yul\":25788:25791   */\n      dup3\n        /* \"#utility.yul\":25755:25792   */\n      tag_168\n      jump\t// in\n    tag_464:\n        /* \"#utility.yul\":25857:25875   */\n      0xffffffffffffffff\n        /* \"#utility.yul\":25849:25855   */\n      dup2\n        /* \"#utility.yul\":25846:25876   */\n      gt\n        /* \"#utility.yul\":25843:25899   */\n      iszero\n      tag_465\n      jumpi\n        /* \"#utility.yul\":25879:25897   */\n      tag_466\n      tag_85\n      jump\t// in\n    tag_466:\n        /* \"#utility.yul\":25843:25899   */\n    tag_465:\n        /* \"#utility.yul\":25923:25961   */\n      tag_467\n        /* \"#utility.yul\":25955:25959   */\n      dup3\n        /* \"#utility.yul\":25949:25960   */\n      sload\n        /* \"#utility.yul\":25923:25961   */\n      tag_94\n      jump\t// in\n    tag_467:\n        /* \"#utility.yul\":26008:26075   */\n      tag_468\n        /* \"#utility.yul\":26068:26074   */\n      dup3\n        /* \"#utility.yul\":26060:26066   */\n      dup3\n        /* \"#utility.yul\":26054:26058   */\n      dup6\n        /* \"#utility.yul\":26008:26075   */\n      tag_223\n      jump\t// in\n    tag_468:\n        /* \"#utility.yul\":26102:26103   */\n      0x00\n        /* \"#utility.yul\":26126:26130   */\n      0x20\n        /* \"#utility.yul\":26113:26130   */\n      swap1\n      pop\n        /* \"#utility.yul\":26158:26160   */\n      0x1f\n        /* \"#utility.yul\":26150:26156   */\n      dup4\n        /* \"#utility.yul\":26147:26161   */\n      gt\n        /* \"#utility.yul\":26175:26176   */\n      0x01\n        /* \"#utility.yul\":26170:26788   */\n      dup2\n      eq\n      tag_470\n      jumpi\n        /* \"#utility.yul\":26832:26833   */\n      0x00\n        /* \"#utility.yul\":26849:26855   */\n      dup5\n        /* \"#utility.yul\":26846:26923   */\n      iszero\n      tag_471\n      jumpi\n        /* \"#utility.yul\":26898:26907   */\n      dup3\n        /* \"#utility.yul\":26893:26896   */\n      dup8\n        /* \"#utility.yul\":26889:26908   */\n      add\n        /* \"#utility.yul\":26883:26909   */\n      mload\n        /* \"#utility.yul\":26874:26909   */\n      swap1\n      pop\n        /* \"#utility.yul\":26846:26923   */\n    tag_471:\n        /* \"#utility.yul\":26949:27016   */\n      tag_472\n        /* \"#utility.yul\":27009:27015   */\n      dup6\n        /* \"#utility.yul\":27002:27007   */\n      dup3\n        /* \"#utility.yul\":26949:27016   */\n      tag_226\n      jump\t// in\n    tag_472:\n        /* \"#utility.yul\":26943:26947   */\n      dup7\n        /* \"#utility.yul\":26936:27017   */\n      sstore\n        /* \"#utility.yul\":26805:27027   */\n      pop\n        /* \"#utility.yul\":26140:27027   */\n      jump(tag_469)\n        /* \"#utility.yul\":26170:26788   */\n    tag_470:\n        /* \"#utility.yul\":26222:26226   */\n      0x1f\n        /* \"#utility.yul\":26218:26227   */\n      not\n        /* \"#utility.yul\":26210:26216   */\n      dup5\n        /* \"#utility.yul\":26206:26228   */\n      and\n        /* \"#utility.yul\":26256:26293   */\n      tag_473\n        /* \"#utility.yul\":26288:26292   */\n      dup7\n        /* \"#utility.yul\":26256:26293   */\n      tag_212\n      jump\t// in\n    tag_473:\n        /* \"#utility.yul\":26315:26316   */\n      0x00\n        /* \"#utility.yul\":26329:26537   */\n    tag_474:\n        /* \"#utility.yul\":26343:26350   */\n      dup3\n        /* \"#utility.yul\":26340:26341   */\n      dup2\n        /* \"#utility.yul\":26337:26351   */\n      lt\n        /* \"#utility.yul\":26329:26537   */\n      iszero\n      tag_476\n      jumpi\n        /* \"#utility.yul\":26422:26431   */\n      dup5\n        /* \"#utility.yul\":26417:26420   */\n      dup10\n        /* \"#utility.yul\":26413:26432   */\n      add\n        /* \"#utility.yul\":26407:26433   */\n      mload\n        /* \"#utility.yul\":26399:26405   */\n      dup3\n        /* \"#utility.yul\":26392:26434   */\n      sstore\n        /* \"#utility.yul\":26473:26474   */\n      0x01\n        /* \"#utility.yul\":26465:26471   */\n      dup3\n        /* \"#utility.yul\":26461:26475   */\n      add\n        /* \"#utility.yul\":26451:26475   */\n      swap2\n      pop\n        /* \"#utility.yul\":26520:26522   */\n      0x20\n        /* \"#utility.yul\":26509:26518   */\n      dup6\n        /* \"#utility.yul\":26505:26523   */\n      add\n        /* \"#utility.yul\":26492:26523   */\n      swap5\n      pop\n        /* \"#utility.yul\":26366:26370   */\n      0x20\n        /* \"#utility.yul\":26363:26364   */\n      dup2\n        /* \"#utility.yul\":26359:26371   */\n      add\n        /* \"#utility.yul\":26354:26371   */\n      swap1\n      pop\n        /* \"#utility.yul\":26329:26537   */\n      jump(tag_474)\n    tag_476:\n        /* \"#utility.yul\":26565:26571   */\n      dup7\n        /* \"#utility.yul\":26556:26563   */\n      dup4\n        /* \"#utility.yul\":26553:26572   */\n      lt\n        /* \"#utility.yul\":26550:26729   */\n      iszero\n      tag_477\n      jumpi\n        /* \"#utility.yul\":26623:26632   */\n      dup5\n        /* \"#utility.yul\":26618:26621   */\n      dup10\n        /* \"#utility.yul\":26614:26633   */\n      add\n        /* \"#utility.yul\":26608:26634   */\n      mload\n        /* \"#utility.yul\":26666:26714   */\n      tag_478\n        /* \"#utility.yul\":26708:26712   */\n      0x1f\n        /* \"#utility.yul\":26700:26706   */\n      dup10\n        /* \"#utility.yul\":26696:26713   */\n      and\n        /* \"#utility.yul\":26685:26694   */\n      dup3\n        /* \"#utility.yul\":26666:26714   */\n      tag_225\n      jump\t// in\n    tag_478:\n        /* \"#utility.yul\":26658:26664   */\n      dup4\n        /* \"#utility.yul\":26651:26715   */\n      sstore\n        /* \"#utility.yul\":26573:26729   */\n      pop\n        /* \"#utility.yul\":26550:26729   */\n    tag_477:\n        /* \"#utility.yul\":26775:26776   */\n      0x01\n        /* \"#utility.yul\":26771:26772   */\n      0x02\n        /* \"#utility.yul\":26763:26769   */\n      dup9\n        /* \"#utility.yul\":26759:26773   */\n      mul\n        /* \"#utility.yul\":26755:26777   */\n      add\n        /* \"#utility.yul\":26749:26753   */\n      dup9\n        /* \"#utility.yul\":26742:26778   */\n      sstore\n        /* \"#utility.yul\":26177:26788   */\n      pop\n      pop\n      pop\n        /* \"#utility.yul\":26140:27027   */\n    tag_469:\n      pop\n        /* \"#utility.yul\":25730:27033   */\n      pop\n      pop\n      pop\n        /* \"#utility.yul\":25638:27033   */\n      pop\n      pop\n      jump\t// out\n\n    auxdata: 0xa26469706673582212202bbdc3179ec96d8858daefa5e9ca8e7de5c60f0d57717312f87a42d6c03edf6564736f6c634300081a0033\n}\n",
				"bytecode": {
					"linkReferences": {},
					"object": "6080604052348015600e575f80fd5b503360035f6101000a81548173ffffffffffffffffffffffffffffffffffffffff021916908373ffffffffffffffffffffffffffffffffffffffff160217905550611c7b8061005c5f395ff3fe608060405234801561000f575f80fd5b50600436106100b2575f3560e01c8063a9ff6df11161006f578063a9ff6df11461019b578063b384abef146101cb578063b424ab84146101e7578063ba53804314610205578063de2e19a014610221578063f851a44014610251576100b2565b806338db6dd3146100b65780633d2f5bda146100d25780633e39a7a5146100ee578063464fcbc31461011e578063649f89a51461014e578063a598d03c1461016a575b5f80fd5b6100d060048036038101906100cb9190610f3b565b61026f565b005b6100ec60048036038101906100e79190610f99565b610422565b005b61010860048036038101906101039190610f99565b61056c565b604051610115919061114b565b60405180910390f35b6101386004803603810190610133919061116b565b6106f5565b60405161014591906111b8565b60405180910390f35b61016860048036038101906101639190610f99565b6107dd565b005b610184600480360381019061017f9190610f99565b610925565b6040516101929291906111eb565b60405180910390f35b6101b560048036038101906101b09190610f3b565b610951565b6040516101c29190611212565b60405180910390f35b6101e560048036038101906101e0919061122b565b61096e565b005b6101ef610c63565b6040516101fc91906111b8565b60405180910390f35b61021f600480360381019061021a9190611477565b610c69565b005b61023b6004803603810190610236919061122b565b610d80565b60405161024891906111b8565b60405180910390f35b610259610e0f565b60405161026691906114cd565b60405180910390f35b60035f9054906101000a900473ffffffffffffffffffffffffffffffffffffffff1673ffffffffffffffffffffffffffffffffffffffff163373ffffffffffffffffffffffffffffffffffffffff16146102fe576040517f08c379a00000000000000000000000000000000000000000000000000000000081526004016102f590611566565b60405180910390fd5b60015f8273ffffffffffffffffffffffffffffffffffffffff1673ffffffffffffffffffffffffffffffffffffffff1681526020019081526020015f205f9054906101000a900460ff1615610388576040517f08c379a000000000000000000000000000000000000000000000000000000000815260040161037f906115ce565b60405180910390fd5b6001805f8373ffffffffffffffffffffffffffffffffffffffff1673ffffffffffffffffffffffffffffffffffffffff1681526020019081526020015f205f6101000a81548160ff0219169083151502179055508073ffffffffffffffffffffffffffffffffffffffff167fb6be2187d059cc2a55fe29e0e503b566e1e0f8c8780096e185429350acffd3dd60405160405180910390a250565b60035f9054906101000a900473ffffffffffffffffffffffffffffffffffffffff1673ffffffffffffffffffffffffffffffffffffffff163373ffffffffffffffffffffffffffffffffffffffff16146104b1576040517f08c379a00000000000000000000000000000000000000000000000000000000081526004016104a890611566565b60405180910390fd5b5f808281526020019081526020015f206004015f9054906101000a900460ff1615610511576040517f08c379a000000000000000000000000000000000000000000000000000000000815260040161050890611636565b60405180910390fd5b60015f808381526020019081526020015f206004015f6101000a81548160ff021916908315150217905550807fcf33babc496bb6dc2942b39cb7b75766bbbadf7da50d176ff8c513e99114023960405160405180910390a250565b60605f805f8481526020019081526020015f2090505f816003015467ffffffffffffffff8111156105a05761059f61126d565b5b6040519080825280602002602001820160405280156105d957816020015b6105c6610eb1565b8152602001906001900390816105be5790505b5090505f600190505b826003015481116106ea57825f015f8281526020019081526020015f206040518060600160405290815f820154815260200160018201805461062390611681565b80601f016020809104026020016040519081016040528092919081815260200182805461064f90611681565b801561069a5780601f106106715761010080835404028352916020019161069a565b820191905f5260205f20905b81548152906001019060200180831161067d57829003601f168201915b50505050508152602001600282015481525050826001836106bb91906116de565b815181106106cc576106cb611711565b5b602002602001018190525080806106e29061173e565b9150506105e2565b508092505050919050565b5f805f808581526020019081526020015f209050806001015f8473ffffffffffffffffffffffffffffffffffffffff1673ffffffffffffffffffffffffffffffffffffffff1681526020019081526020015f205f9054906101000a900460ff16610794576040517f08c379a000000000000000000000000000000000000000000000000000000000815260040161078b906117f5565b60405180910390fd5b806002015f8473ffffffffffffffffffffffffffffffffffffffff1673ffffffffffffffffffffffffffffffffffffffff1681526020019081526020015f205491505092915050565b60035f9054906101000a900473ffffffffffffffffffffffffffffffffffffffff1673ffffffffffffffffffffffffffffffffffffffff163373ffffffffffffffffffffffffffffffffffffffff161461086c576040517f08c379a000000000000000000000000000000000000000000000000000000000815260040161086390611566565b60405180910390fd5b5f808281526020019081526020015f206004015f9054906101000a900460ff166108cb576040517f08c379a00000000000000000000000000000000000000000000000000000000081526004016108c29061185d565b60405180910390fd5b5f805f8381526020019081526020015f206004015f6101000a81548160ff021916908315150217905550807f81eb7415440ff8e6c8e92606fd3b0e5e6a5c99ea90cdb63b41aec54e897312b360405160405180910390a250565b5f602052805f5260405f205f91509050806003015490806004015f9054906101000a900460ff16905082565b6001602052805f5260405f205f915054906101000a900460ff1681565b60015f3373ffffffffffffffffffffffffffffffffffffffff1673ffffffffffffffffffffffffffffffffffffffff1681526020019081526020015f205f9054906101000a900460ff166109f7576040517f08c379a00000000000000000000000000000000000000000000000000000000081526004016109ee906118c5565b60405180910390fd5b815f808281526020019081526020015f206004015f9054906101000a900460ff16610a57576040517f08c379a0000000000000000000000000000000000000000000000000000000008152600401610a4e9061185d565b60405180910390fd5b5f805f8581526020019081526020015f209050806001015f3373ffffffffffffffffffffffffffffffffffffffff1673ffffffffffffffffffffffffffffffffffffffff1681526020019081526020015f205f9054906101000a900460ff1615610af6576040517f08c379a0000000000000000000000000000000000000000000000000000000008152600401610aed90611953565b60405180910390fd5b5f83118015610b09575080600301548311155b610b48576040517f08c379a0000000000000000000000000000000000000000000000000000000008152600401610b3f906119bb565b60405180910390fd5b6001816001015f3373ffffffffffffffffffffffffffffffffffffffff1673ffffffffffffffffffffffffffffffffffffffff1681526020019081526020015f205f6101000a81548160ff021916908315150217905550805f015f8481526020019081526020015f206002015f815480929190610bc49061173e565b919050555042816002015f3373ffffffffffffffffffffffffffffffffffffffff1673ffffffffffffffffffffffffffffffffffffffff1681526020019081526020015f208190555082843373ffffffffffffffffffffffffffffffffffffffff167fc32b42768a47a585121e9b8d7a2ab9d3f34c326a192dee11ee1732e3d18313f342604051610c5591906111b8565b60405180910390a450505050565b60025481565b60035f9054906101000a900473ffffffffffffffffffffffffffffffffffffffff1673ffffffffffffffffffffffffffffffffffffffff163373ffffffffffffffffffffffffffffffffffffffff1614610cf8576040517f08c379a0000000000000000000000000000000000000000000000000000000008152600401610cef90611566565b60405180910390fd5b60025f815480929190610d0a9061173e565b91905055505f805f60025481526020019081526020015f2090505f816004015f6101000a81548160ff0219169083151502179055505f5b8251811015610d7b57610d6e82848381518110610d6157610d60611711565b5b6020026020010151610e34565b8080600101915050610d41565b505050565b5f8082118015610da357505f808481526020019081526020015f20600301548211155b610de2576040517f08c379a0000000000000000000000000000000000000000000000000000000008152600401610dd9906119bb565b60405180910390fd5b5f808481526020019081526020015f205f015f8381526020019081526020015f2060020154905092915050565b60035f9054906101000a900473ffffffffffffffffffffffffffffffffffffffff1681565b816003015f815480929190610e489061173e565b91905055506040518060600160405280836003015481526020018281526020015f815250825f015f846003015481526020019081526020015f205f820151815f01556020820151816001019081610e9f9190611b76565b50604082015181600201559050505050565b60405180606001604052805f8152602001606081526020015f81525090565b5f604051905090565b5f80fd5b5f80fd5b5f73ffffffffffffffffffffffffffffffffffffffff82169050919050565b5f610f0a82610ee1565b9050919050565b610f1a81610f00565b8114610f24575f80fd5b50565b5f81359050610f3581610f11565b92915050565b5f60208284031215610f5057610f4f610ed9565b5b5f610f5d84828501610f27565b91505092915050565b5f819050919050565b610f7881610f66565b8114610f82575f80fd5b50565b5f81359050610f9381610f6f565b92915050565b5f60208284031215610fae57610fad610ed9565b5b5f610fbb84828501610f85565b91505092915050565b5f81519050919050565b5f82825260208201905092915050565b5f819050602082019050919050565b610ff681610f66565b82525050565b5f81519050919050565b5f82825260208201905092915050565b8281835e5f83830152505050565b5f601f19601f8301169050919050565b5f61103e82610ffc565b6110488185611006565b9350611058818560208601611016565b61106181611024565b840191505092915050565b5f606083015f8301516110815f860182610fed565b50602083015184820360208601526110998282611034565b91505060408301516110ae6040860182610fed565b508091505092915050565b5f6110c4838361106c565b905092915050565b5f602082019050919050565b5f6110e282610fc4565b6110ec8185610fce565b9350836020820285016110fe85610fde565b805f5b85811015611139578484038952815161111a85826110b9565b9450611125836110cc565b925060208a01995050600181019050611101565b50829750879550505050505092915050565b5f6020820190508181035f83015261116381846110d8565b905092915050565b5f806040838503121561118157611180610ed9565b5b5f61118e85828601610f85565b925050602061119f85828601610f27565b9150509250929050565b6111b281610f66565b82525050565b5f6020820190506111cb5f8301846111a9565b92915050565b5f8115159050919050565b6111e5816111d1565b82525050565b5f6040820190506111fe5f8301856111a9565b61120b60208301846111dc565b9392505050565b5f6020820190506112255f8301846111dc565b92915050565b5f806040838503121561124157611240610ed9565b5b5f61124e85828601610f85565b925050602061125f85828601610f85565b9150509250929050565b5f80fd5b7f4e487b71000000000000000000000000000000000000000000000000000000005f52604160045260245ffd5b6112a382611024565b810181811067ffffffffffffffff821117156112c2576112c161126d565b5b80604052505050565b5f6112d4610ed0565b90506112e0828261129a565b919050565b5f67ffffffffffffffff8211156112ff576112fe61126d565b5b602082029050602081019050919050565b5f80fd5b5f80fd5b5f67ffffffffffffffff8211156113325761133161126d565b5b61133b82611024565b9050602081019050919050565b828183375f83830152505050565b5f61136861136384611318565b6112cb565b90508281526020810184848401111561138457611383611314565b5b61138f848285611348565b509392505050565b5f82601f8301126113ab576113aa611269565b5b81356113bb848260208601611356565b91505092915050565b5f6113d66113d1846112e5565b6112cb565b905080838252602082019050602084028301858111156113f9576113f8611310565b5b835b8181101561144057803567ffffffffffffffff81111561141e5761141d611269565b5b80860161142b8982611397565b855260208501945050506020810190506113fb565b5050509392505050565b5f82601f83011261145e5761145d611269565b5b813561146e8482602086016113c4565b91505092915050565b5f6020828403121561148c5761148b610ed9565b5b5f82013567ffffffffffffffff8111156114a9576114a8610edd565b5b6114b58482850161144a565b91505092915050565b6114c781610f00565b82525050565b5f6020820190506114e05f8301846114be565b92915050565b5f82825260208201905092915050565b7f4f6e6c792061646d696e2063616e2063616c6c20746869732066756e6374696f5f8201527f6e2e000000000000000000000000000000000000000000000000000000000000602082015250565b5f6115506022836114e6565b915061155b826114f6565b604082019050919050565b5f6020820190508181035f83015261157d81611544565b9050919050565b7f566f74657220697320616c726561647920726567697374657265642e000000005f82015250565b5f6115b8601c836114e6565b91506115c382611584565b602082019050919050565b5f6020820190508181035f8301526115e5816115ac565b9050919050565b7f566f74696e6720697320616c7265616479206163746976652e000000000000005f82015250565b5f6116206019836114e6565b915061162b826115ec565b602082019050919050565b5f6020820190508181035f83015261164d81611614565b9050919050565b7f4e487b71000000000000000000000000000000000000000000000000000000005f52602260045260245ffd5b5f600282049050600182168061169857607f821691505b6020821081036116ab576116aa611654565b5b50919050565b7f4e487b71000000000000000000000000000000000000000000000000000000005f52601160045260245ffd5b5f6116e882610f66565b91506116f383610f66565b925082820390508181111561170b5761170a6116b1565b5b92915050565b7f4e487b71000000000000000000000000000000000000000000000000000000005f52603260045260245ffd5b5f61174882610f66565b91507fffffffffffffffffffffffffffffffffffffffffffffffffffffffffffffffff820361177a576117796116b1565b5b600182019050919050565b7f5468697320766f74657220686173206e6f7420766f74656420696e20746869735f8201527f20766f74696e672e000000000000000000000000000000000000000000000000602082015250565b5f6117df6028836114e6565b91506117ea82611785565b604082019050919050565b5f6020820190508181035f83015261180c816117d3565b9050919050565b7f566f74696e67206973206e6f742063757272656e746c79206163746976652e005f82015250565b5f611847601f836114e6565b915061185282611813565b602082019050919050565b5f6020820190508181035f8301526118748161183b565b9050919050565b7f596f75206d7573742062652061207265676973746572656420766f7465722e005f82015250565b5f6118af601f836114e6565b91506118ba8261187b565b602082019050919050565b5f6020820190508181035f8301526118dc816118a3565b9050919050565b7f596f75206861766520616c726561647920766f74656420696e207468697320765f8201527f6f74696e672e0000000000000000000000000000000000000000000000000000602082015250565b5f61193d6026836114e6565b9150611948826118e3565b604082019050919050565b5f6020820190508181035f83015261196a81611931565b9050919050565b7f496e76616c69642063616e6469646174652049442e00000000000000000000005f82015250565b5f6119a56015836114e6565b91506119b082611971565b602082019050919050565b5f6020820190508181035f8301526119d281611999565b9050919050565b5f819050815f5260205f209050919050565b5f6020601f8301049050919050565b5f82821b905092915050565b5f60088302611a357fffffffffffffffffffffffffffffffffffffffffffffffffffffffffffffffff826119fa565b611a3f86836119fa565b95508019841693508086168417925050509392505050565b5f819050919050565b5f611a7a611a75611a7084610f66565b611a57565b610f66565b9050919050565b5f819050919050565b611a9383611a60565b611aa7611a9f82611a81565b848454611a06565b825550505050565b5f90565b611abb611aaf565b611ac6818484611a8a565b505050565b5b81811015611ae957611ade5f82611ab3565b600181019050611acc565b5050565b601f821115611b2e57611aff816119d9565b611b08846119eb565b81016020851015611b17578190505b611b2b611b23856119eb565b830182611acb565b50505b505050565b5f82821c905092915050565b5f611b4e5f1984600802611b33565b1980831691505092915050565b5f611b668383611b3f565b9150826002028217905092915050565b611b7f82610ffc565b67ffffffffffffffff811115611b9857611b9761126d565b5b611ba28254611681565b611bad828285611aed565b5f60209050601f831160018114611bde575f8415611bcc578287015190505b611bd68582611b5b565b865550611c3d565b601f198416611bec866119d9565b5f5b82811015611c1357848901518255600182019150602085019450602081019050611bee565b86831015611c305784890151611c2c601f891682611b3f565b8355505b6001600288020188555050505b50505050505056fea26469706673582212202bbdc3179ec96d8858daefa5e9ca8e7de5c60f0d57717312f87a42d6c03edf6564736f6c634300081a0033",
					"opcodes": "PUSH1 0x80 PUSH1 0x40 MSTORE CALLVALUE DUP1 ISZERO PUSH1 0xE JUMPI PUSH0 DUP1 REVERT JUMPDEST POP CALLER PUSH1 0x3 PUSH0 PUSH2 0x100 EXP DUP2 SLOAD DUP2 PUSH20 0xFFFFFFFFFFFFFFFFFFFFFFFFFFFFFFFFFFFFFFFF MUL NOT AND SWAP1 DUP4 PUSH20 0xFFFFFFFFFFFFFFFFFFFFFFFFFFFFFFFFFFFFFFFF AND MUL OR SWAP1 SSTORE POP PUSH2 0x1C7B DUP1 PUSH2 0x5C PUSH0 CODECOPY PUSH0 RETURN INVALID PUSH1 0x80 PUSH1 0x40 MSTORE CALLVALUE DUP1 ISZERO PUSH2 0xF JUMPI PUSH0 DUP1 REVERT JUMPDEST POP PUSH1 0x4 CALLDATASIZE LT PUSH2 0xB2 JUMPI PUSH0 CALLDATALOAD PUSH1 0xE0 SHR DUP1 PUSH4 0xA9FF6DF1 GT PUSH2 0x6F JUMPI DUP1 PUSH4 0xA9FF6DF1 EQ PUSH2 0x19B JUMPI DUP1 PUSH4 0xB384ABEF EQ PUSH2 0x1CB JUMPI DUP1 PUSH4 0xB424AB84 EQ PUSH2 0x1E7 JUMPI DUP1 PUSH4 0xBA538043 EQ PUSH2 0x205 JUMPI DUP1 PUSH4 0xDE2E19A0 EQ PUSH2 0x221 JUMPI DUP1 PUSH4 0xF851A440 EQ PUSH2 0x251 JUMPI PUSH2 0xB2 JUMP JUMPDEST DUP1 PUSH4 0x38DB6DD3 EQ PUSH2 0xB6 JUMPI DUP1 PUSH4 0x3D2F5BDA EQ PUSH2 0xD2 JUMPI DUP1 PUSH4 0x3E39A7A5 EQ PUSH2 0xEE JUMPI DUP1 PUSH4 0x464FCBC3 EQ PUSH2 0x11E JUMPI DUP1 PUSH4 0x649F89A5 EQ PUSH2 0x14E JUMPI DUP1 PUSH4 0xA598D03C EQ PUSH2 0x16A JUMPI JUMPDEST PUSH0 DUP1 REVERT JUMPDEST PUSH2 0xD0 PUSH1 0x4 DUP1 CALLDATASIZE SUB DUP2 ADD SWAP1 PUSH2 0xCB SWAP2 SWAP1 PUSH2 0xF3B JUMP JUMPDEST PUSH2 0x26F JUMP JUMPDEST STOP JUMPDEST PUSH2 0xEC PUSH1 0x4 DUP1 CALLDATASIZE SUB DUP2 ADD SWAP1 PUSH2 0xE7 SWAP2 SWAP1 PUSH2 0xF99 JUMP JUMPDEST PUSH2 0x422 JUMP JUMPDEST STOP JUMPDEST PUSH2 0x108 PUSH1 0x4 DUP1 CALLDATASIZE SUB DUP2 ADD SWAP1 PUSH2 0x103 SWAP2 SWAP1 PUSH2 0xF99 JUMP JUMPDEST PUSH2 0x56C JUMP JUMPDEST PUSH1 0x40 MLOAD PUSH2 0x115 SWAP2 SWAP1 PUSH2 0x114B JUMP JUMPDEST PUSH1 0x40 MLOAD DUP1 SWAP2 SUB SWAP1 RETURN JUMPDEST PUSH2 0x138 PUSH1 0x4 DUP1 CALLDATASIZE SUB DUP2 ADD SWAP1 PUSH2 0x133 SWAP2 SWAP1 PUSH2 0x116B JUMP JUMPDEST PUSH2 0x6F5 JUMP JUMPDEST PUSH1 0x40 MLOAD PUSH2 0x145 SWAP2 SWAP1 PUSH2 0x11B8 JUMP JUMPDEST PUSH1 0x40 MLOAD DUP1 SWAP2 SUB SWAP1 RETURN JUMPDEST PUSH2 0x168 PUSH1 0x4 DUP1 CALLDATASIZE SUB DUP2 ADD SWAP1 PUSH2 0x163 SWAP2 SWAP1 PUSH2 0xF99 JUMP JUMPDEST PUSH2 0x7DD JUMP JUMPDEST STOP JUMPDEST PUSH2 0x184 PUSH1 0x4 DUP1 CALLDATASIZE SUB DUP2 ADD SWAP1 PUSH2 0x17F SWAP2 SWAP1 PUSH2 0xF99 JUMP JUMPDEST PUSH2 0x925 JUMP JUMPDEST PUSH1 0x40 MLOAD PUSH2 0x192 SWAP3 SWAP2 SWAP1 PUSH2 0x11EB JUMP JUMPDEST PUSH1 0x40 MLOAD DUP1 SWAP2 SUB SWAP1 RETURN JUMPDEST PUSH2 0x1B5 PUSH1 0x4 DUP1 CALLDATASIZE SUB DUP2 ADD SWAP1 PUSH2 0x1B0 SWAP2 SWAP1 PUSH2 0xF3B JUMP JUMPDEST PUSH2 0x951 JUMP JUMPDEST PUSH1 0x40 MLOAD PUSH2 0x1C2 SWAP2 SWAP1 PUSH2 0x1212 JUMP JUMPDEST PUSH1 0x40 MLOAD DUP1 SWAP2 SUB SWAP1 RETURN JUMPDEST PUSH2 0x1E5 PUSH1 0x4 DUP1 CALLDATASIZE SUB DUP2 ADD SWAP1 PUSH2 0x1E0 SWAP2 SWAP1 PUSH2 0x122B JUMP JUMPDEST PUSH2 0x96E JUMP JUMPDEST STOP JUMPDEST PUSH2 0x1EF PUSH2 0xC63 JUMP JUMPDEST PUSH1 0x40 MLOAD PUSH2 0x1FC SWAP2 SWAP1 PUSH2 0x11B8 JUMP JUMPDEST PUSH1 0x40 MLOAD DUP1 SWAP2 SUB SWAP1 RETURN JUMPDEST PUSH2 0x21F PUSH1 0x4 DUP1 CALLDATASIZE SUB DUP2 ADD SWAP1 PUSH2 0x21A SWAP2 SWAP1 PUSH2 0x1477 JUMP JUMPDEST PUSH2 0xC69 JUMP JUMPDEST STOP JUMPDEST PUSH2 0x23B PUSH1 0x4 DUP1 CALLDATASIZE SUB DUP2 ADD SWAP1 PUSH2 0x236 SWAP2 SWAP1 PUSH2 0x122B JUMP JUMPDEST PUSH2 0xD80 JUMP JUMPDEST PUSH1 0x40 MLOAD PUSH2 0x248 SWAP2 SWAP1 PUSH2 0x11B8 JUMP JUMPDEST PUSH1 0x40 MLOAD DUP1 SWAP2 SUB SWAP1 RETURN JUMPDEST PUSH2 0x259 PUSH2 0xE0F JUMP JUMPDEST PUSH1 0x40 MLOAD PUSH2 0x266 SWAP2 SWAP1 PUSH2 0x14CD JUMP JUMPDEST PUSH1 0x40 MLOAD DUP1 SWAP2 SUB SWAP1 RETURN JUMPDEST PUSH1 0x3 PUSH0 SWAP1 SLOAD SWAP1 PUSH2 0x100 EXP SWAP1 DIV PUSH20 0xFFFFFFFFFFFFFFFFFFFFFFFFFFFFFFFFFFFFFFFF AND PUSH20 0xFFFFFFFFFFFFFFFFFFFFFFFFFFFFFFFFFFFFFFFF AND CALLER PUSH20 0xFFFFFFFFFFFFFFFFFFFFFFFFFFFFFFFFFFFFFFFF AND EQ PUSH2 0x2FE JUMPI PUSH1 0x40 MLOAD PUSH32 0x8C379A000000000000000000000000000000000000000000000000000000000 DUP2 MSTORE PUSH1 0x4 ADD PUSH2 0x2F5 SWAP1 PUSH2 0x1566 JUMP JUMPDEST PUSH1 0x40 MLOAD DUP1 SWAP2 SUB SWAP1 REVERT JUMPDEST PUSH1 0x1 PUSH0 DUP3 PUSH20 0xFFFFFFFFFFFFFFFFFFFFFFFFFFFFFFFFFFFFFFFF AND PUSH20 0xFFFFFFFFFFFFFFFFFFFFFFFFFFFFFFFFFFFFFFFF AND DUP2 MSTORE PUSH1 0x20 ADD SWAP1 DUP2 MSTORE PUSH1 0x20 ADD PUSH0 KECCAK256 PUSH0 SWAP1 SLOAD SWAP1 PUSH2 0x100 EXP SWAP1 DIV PUSH1 0xFF AND ISZERO PUSH2 0x388 JUMPI PUSH1 0x40 MLOAD PUSH32 0x8C379A000000000000000000000000000000000000000000000000000000000 DUP2 MSTORE PUSH1 0x4 ADD PUSH2 0x37F SWAP1 PUSH2 0x15CE JUMP JUMPDEST PUSH1 0x40 MLOAD DUP1 SWAP2 SUB SWAP1 REVERT JUMPDEST PUSH1 0x1 DUP1 PUSH0 DUP4 PUSH20 0xFFFFFFFFFFFFFFFFFFFFFFFFFFFFFFFFFFFFFFFF AND PUSH20 0xFFFFFFFFFFFFFFFFFFFFFFFFFFFFFFFFFFFFFFFF AND DUP2 MSTORE PUSH1 0x20 ADD SWAP1 DUP2 MSTORE PUSH1 0x20 ADD PUSH0 KECCAK256 PUSH0 PUSH2 0x100 EXP DUP2 SLOAD DUP2 PUSH1 0xFF MUL NOT AND SWAP1 DUP4 ISZERO ISZERO MUL OR SWAP1 SSTORE POP DUP1 PUSH20 0xFFFFFFFFFFFFFFFFFFFFFFFFFFFFFFFFFFFFFFFF AND PUSH32 0xB6BE2187D059CC2A55FE29E0E503B566E1E0F8C8780096E185429350ACFFD3DD PUSH1 0x40 MLOAD PUSH1 0x40 MLOAD DUP1 SWAP2 SUB SWAP1 LOG2 POP JUMP JUMPDEST PUSH1 0x3 PUSH0 SWAP1 SLOAD SWAP1 PUSH2 0x100 EXP SWAP1 DIV PUSH20 0xFFFFFFFFFFFFFFFFFFFFFFFFFFFFFFFFFFFFFFFF AND PUSH20 0xFFFFFFFFFFFFFFFFFFFFFFFFFFFFFFFFFFFFFFFF AND CALLER PUSH20 0xFFFFFFFFFFFFFFFFFFFFFFFFFFFFFFFFFFFFFFFF AND EQ PUSH2 0x4B1 JUMPI PUSH1 0x40 MLOAD PUSH32 0x8C379A000000000000000000000000000000000000000000000000000000000 DUP2 MSTORE PUSH1 0x4 ADD PUSH2 0x4A8 SWAP1 PUSH2 0x1566 JUMP JUMPDEST PUSH1 0x40 MLOAD DUP1 SWAP2 SUB SWAP1 REVERT JUMPDEST PUSH0 DUP1 DUP3 DUP2 MSTORE PUSH1 0x20 ADD SWAP1 DUP2 MSTORE PUSH1 0x20 ADD PUSH0 KECCAK256 PUSH1 0x4 ADD PUSH0 SWAP1 SLOAD SWAP1 PUSH2 0x100 EXP SWAP1 DIV PUSH1 0xFF AND ISZERO PUSH2 0x511 JUMPI PUSH1 0x40 MLOAD PUSH32 0x8C379A000000000000000000000000000000000000000000000000000000000 DUP2 MSTORE PUSH1 0x4 ADD PUSH2 0x508 SWAP1 PUSH2 0x1636 JUMP JUMPDEST PUSH1 0x40 MLOAD DUP1 SWAP2 SUB SWAP1 REVERT JUMPDEST PUSH1 0x1 PUSH0 DUP1 DUP4 DUP2 MSTORE PUSH1 0x20 ADD SWAP1 DUP2 MSTORE PUSH1 0x20 ADD PUSH0 KECCAK256 PUSH1 0x4 ADD PUSH0 PUSH2 0x100 EXP DUP2 SLOAD DUP2 PUSH1 0xFF MUL NOT AND SWAP1 DUP4 ISZERO ISZERO MUL OR SWAP1 SSTORE POP DUP1 PUSH32 0xCF33BABC496BB6DC2942B39CB7B75766BBBADF7DA50D176FF8C513E991140239 PUSH1 0x40 MLOAD PUSH1 0x40 MLOAD DUP1 SWAP2 SUB SWAP1 LOG2 POP JUMP JUMPDEST PUSH1 0x60 PUSH0 DUP1 PUSH0 DUP5 DUP2 MSTORE PUSH1 0x20 ADD SWAP1 DUP2 MSTORE PUSH1 0x20 ADD PUSH0 KECCAK256 SWAP1 POP PUSH0 DUP2 PUSH1 0x3 ADD SLOAD PUSH8 0xFFFFFFFFFFFFFFFF DUP2 GT ISZERO PUSH2 0x5A0 JUMPI PUSH2 0x59F PUSH2 0x126D JUMP JUMPDEST JUMPDEST PUSH1 0x40 MLOAD SWAP1 DUP1 DUP3 MSTORE DUP1 PUSH1 0x20 MUL PUSH1 0x20 ADD DUP3 ADD PUSH1 0x40 MSTORE DUP1 ISZERO PUSH2 0x5D9 JUMPI DUP2 PUSH1 0x20 ADD JUMPDEST PUSH2 0x5C6 PUSH2 0xEB1 JUMP JUMPDEST DUP2 MSTORE PUSH1 0x20 ADD SWAP1 PUSH1 0x1 SWAP1 SUB SWAP1 DUP2 PUSH2 0x5BE JUMPI SWAP1 POP JUMPDEST POP SWAP1 POP PUSH0 PUSH1 0x1 SWAP1 POP JUMPDEST DUP3 PUSH1 0x3 ADD SLOAD DUP2 GT PUSH2 0x6EA JUMPI DUP3 PUSH0 ADD PUSH0 DUP3 DUP2 MSTORE PUSH1 0x20 ADD SWAP1 DUP2 MSTORE PUSH1 0x20 ADD PUSH0 KECCAK256 PUSH1 0x40 MLOAD DUP1 PUSH1 0x60 ADD PUSH1 0x40 MSTORE SWAP1 DUP2 PUSH0 DUP3 ADD SLOAD DUP2 MSTORE PUSH1 0x20 ADD PUSH1 0x1 DUP3 ADD DUP1 SLOAD PUSH2 0x623 SWAP1 PUSH2 0x1681 JUMP JUMPDEST DUP1 PUSH1 0x1F ADD PUSH1 0x20 DUP1 SWAP2 DIV MUL PUSH1 0x20 ADD PUSH1 0x40 MLOAD SWAP1 DUP2 ADD PUSH1 0x40 MSTORE DUP1 SWAP3 SWAP2 SWAP1 DUP2 DUP2 MSTORE PUSH1 0x20 ADD DUP3 DUP1 SLOAD PUSH2 0x64F SWAP1 PUSH2 0x1681 JUMP JUMPDEST DUP1 ISZERO PUSH2 0x69A JUMPI DUP1 PUSH1 0x1F LT PUSH2 0x671 JUMPI PUSH2 0x100 DUP1 DUP4 SLOAD DIV MUL DUP4 MSTORE SWAP2 PUSH1 0x20 ADD SWAP2 PUSH2 0x69A JUMP JUMPDEST DUP3 ADD SWAP2 SWAP1 PUSH0 MSTORE PUSH1 0x20 PUSH0 KECCAK256 SWAP1 JUMPDEST DUP2 SLOAD DUP2 MSTORE SWAP1 PUSH1 0x1 ADD SWAP1 PUSH1 0x20 ADD DUP1 DUP4 GT PUSH2 0x67D JUMPI DUP3 SWAP1 SUB PUSH1 0x1F AND DUP3 ADD SWAP2 JUMPDEST POP POP POP POP POP DUP2 MSTORE PUSH1 0x20 ADD PUSH1 0x2 DUP3 ADD SLOAD DUP2 MSTORE POP POP DUP3 PUSH1 0x1 DUP4 PUSH2 0x6BB SWAP2 SWAP1 PUSH2 0x16DE JUMP JUMPDEST DUP2 MLOAD DUP2 LT PUSH2 0x6CC JUMPI PUSH2 0x6CB PUSH2 0x1711 JUMP JUMPDEST JUMPDEST PUSH1 0x20 MUL PUSH1 0x20 ADD ADD DUP2 SWAP1 MSTORE POP DUP1 DUP1 PUSH2 0x6E2 SWAP1 PUSH2 0x173E JUMP JUMPDEST SWAP2 POP POP PUSH2 0x5E2 JUMP JUMPDEST POP DUP1 SWAP3 POP POP POP SWAP2 SWAP1 POP JUMP JUMPDEST PUSH0 DUP1 PUSH0 DUP1 DUP6 DUP2 MSTORE PUSH1 0x20 ADD SWAP1 DUP2 MSTORE PUSH1 0x20 ADD PUSH0 KECCAK256 SWAP1 POP DUP1 PUSH1 0x1 ADD PUSH0 DUP5 PUSH20 0xFFFFFFFFFFFFFFFFFFFFFFFFFFFFFFFFFFFFFFFF AND PUSH20 0xFFFFFFFFFFFFFFFFFFFFFFFFFFFFFFFFFFFFFFFF AND DUP2 MSTORE PUSH1 0x20 ADD SWAP1 DUP2 MSTORE PUSH1 0x20 ADD PUSH0 KECCAK256 PUSH0 SWAP1 SLOAD SWAP1 PUSH2 0x100 EXP SWAP1 DIV PUSH1 0xFF AND PUSH2 0x794 JUMPI PUSH1 0x40 MLOAD PUSH32 0x8C379A000000000000000000000000000000000000000000000000000000000 DUP2 MSTORE PUSH1 0x4 ADD PUSH2 0x78B SWAP1 PUSH2 0x17F5 JUMP JUMPDEST PUSH1 0x40 MLOAD DUP1 SWAP2 SUB SWAP1 REVERT JUMPDEST DUP1 PUSH1 0x2 ADD PUSH0 DUP5 PUSH20 0xFFFFFFFFFFFFFFFFFFFFFFFFFFFFFFFFFFFFFFFF AND PUSH20 0xFFFFFFFFFFFFFFFFFFFFFFFFFFFFFFFFFFFFFFFF AND DUP2 MSTORE PUSH1 0x20 ADD SWAP1 DUP2 MSTORE PUSH1 0x20 ADD PUSH0 KECCAK256 SLOAD SWAP2 POP POP SWAP3 SWAP2 POP POP JUMP JUMPDEST PUSH1 0x3 PUSH0 SWAP1 SLOAD SWAP1 PUSH2 0x100 EXP SWAP1 DIV PUSH20 0xFFFFFFFFFFFFFFFFFFFFFFFFFFFFFFFFFFFFFFFF AND PUSH20 0xFFFFFFFFFFFFFFFFFFFFFFFFFFFFFFFFFFFFFFFF AND CALLER PUSH20 0xFFFFFFFFFFFFFFFFFFFFFFFFFFFFFFFFFFFFFFFF AND EQ PUSH2 0x86C JUMPI PUSH1 0x40 MLOAD PUSH32 0x8C379A000000000000000000000000000000000000000000000000000000000 DUP2 MSTORE PUSH1 0x4 ADD PUSH2 0x863 SWAP1 PUSH2 0x1566 JUMP JUMPDEST PUSH1 0x40 MLOAD DUP1 SWAP2 SUB SWAP1 REVERT JUMPDEST PUSH0 DUP1 DUP3 DUP2 MSTORE PUSH1 0x20 ADD SWAP1 DUP2 MSTORE PUSH1 0x20 ADD PUSH0 KECCAK256 PUSH1 0x4 ADD PUSH0 SWAP1 SLOAD SWAP1 PUSH2 0x100 EXP SWAP1 DIV PUSH1 0xFF AND PUSH2 0x8CB JUMPI PUSH1 0x40 MLOAD PUSH32 0x8C379A000000000000000000000000000000000000000000000000000000000 DUP2 MSTORE PUSH1 0x4 ADD PUSH2 0x8C2 SWAP1 PUSH2 0x185D JUMP JUMPDEST PUSH1 0x40 MLOAD DUP1 SWAP2 SUB SWAP1 REVERT JUMPDEST PUSH0 DUP1 PUSH0 DUP4 DUP2 MSTORE PUSH1 0x20 ADD SWAP1 DUP2 MSTORE PUSH1 0x20 ADD PUSH0 KECCAK256 PUSH1 0x4 ADD PUSH0 PUSH2 0x100 EXP DUP2 SLOAD DUP2 PUSH1 0xFF MUL NOT AND SWAP1 DUP4 ISZERO ISZERO MUL OR SWAP1 SSTORE POP DUP1 PUSH32 0x81EB7415440FF8E6C8E92606FD3B0E5E6A5C99EA90CDB63B41AEC54E897312B3 PUSH1 0x40 MLOAD PUSH1 0x40 MLOAD DUP1 SWAP2 SUB SWAP1 LOG2 POP JUMP JUMPDEST PUSH0 PUSH1 0x20 MSTORE DUP1 PUSH0 MSTORE PUSH1 0x40 PUSH0 KECCAK256 PUSH0 SWAP2 POP SWAP1 POP DUP1 PUSH1 0x3 ADD SLOAD SWAP1 DUP1 PUSH1 0x4 ADD PUSH0 SWAP1 SLOAD SWAP1 PUSH2 0x100 EXP SWAP1 DIV PUSH1 0xFF AND SWAP1 POP DUP3 JUMP JUMPDEST PUSH1 0x1 PUSH1 0x20 MSTORE DUP1 PUSH0 MSTORE PUSH1 0x40 PUSH0 KECCAK256 PUSH0 SWAP2 POP SLOAD SWAP1 PUSH2 0x100 EXP SWAP1 DIV PUSH1 0xFF AND DUP2 JUMP JUMPDEST PUSH1 0x1 PUSH0 CALLER PUSH20 0xFFFFFFFFFFFFFFFFFFFFFFFFFFFFFFFFFFFFFFFF AND PUSH20 0xFFFFFFFFFFFFFFFFFFFFFFFFFFFFFFFFFFFFFFFF AND DUP2 MSTORE PUSH1 0x20 ADD SWAP1 DUP2 MSTORE PUSH1 0x20 ADD PUSH0 KECCAK256 PUSH0 SWAP1 SLOAD SWAP1 PUSH2 0x100 EXP SWAP1 DIV PUSH1 0xFF AND PUSH2 0x9F7 JUMPI PUSH1 0x40 MLOAD PUSH32 0x8C379A000000000000000000000000000000000000000000000000000000000 DUP2 MSTORE PUSH1 0x4 ADD PUSH2 0x9EE SWAP1 PUSH2 0x18C5 JUMP JUMPDEST PUSH1 0x40 MLOAD DUP1 SWAP2 SUB SWAP1 REVERT JUMPDEST DUP2 PUSH0 DUP1 DUP3 DUP2 MSTORE PUSH1 0x20 ADD SWAP1 DUP2 MSTORE PUSH1 0x20 ADD PUSH0 KECCAK256 PUSH1 0x4 ADD PUSH0 SWAP1 SLOAD SWAP1 PUSH2 0x100 EXP SWAP1 DIV PUSH1 0xFF AND PUSH2 0xA57 JUMPI PUSH1 0x40 MLOAD PUSH32 0x8C379A000000000000000000000000000000000000000000000000000000000 DUP2 MSTORE PUSH1 0x4 ADD PUSH2 0xA4E SWAP1 PUSH2 0x185D JUMP JUMPDEST PUSH1 0x40 MLOAD DUP1 SWAP2 SUB SWAP1 REVERT JUMPDEST PUSH0 DUP1 PUSH0 DUP6 DUP2 MSTORE PUSH1 0x20 ADD SWAP1 DUP2 MSTORE PUSH1 0x20 ADD PUSH0 KECCAK256 SWAP1 POP DUP1 PUSH1 0x1 ADD PUSH0 CALLER PUSH20 0xFFFFFFFFFFFFFFFFFFFFFFFFFFFFFFFFFFFFFFFF AND PUSH20 0xFFFFFFFFFFFFFFFFFFFFFFFFFFFFFFFFFFFFFFFF AND DUP2 MSTORE PUSH1 0x20 ADD SWAP1 DUP2 MSTORE PUSH1 0x20 ADD PUSH0 KECCAK256 PUSH0 SWAP1 SLOAD SWAP1 PUSH2 0x100 EXP SWAP1 DIV PUSH1 0xFF AND ISZERO PUSH2 0xAF6 JUMPI PUSH1 0x40 MLOAD PUSH32 0x8C379A000000000000000000000000000000000000000000000000000000000 DUP2 MSTORE PUSH1 0x4 ADD PUSH2 0xAED SWAP1 PUSH2 0x1953 JUMP JUMPDEST PUSH1 0x40 MLOAD DUP1 SWAP2 SUB SWAP1 REVERT JUMPDEST PUSH0 DUP4 GT DUP1 ISZERO PUSH2 0xB09 JUMPI POP DUP1 PUSH1 0x3 ADD SLOAD DUP4 GT ISZERO JUMPDEST PUSH2 0xB48 JUMPI PUSH1 0x40 MLOAD PUSH32 0x8C379A000000000000000000000000000000000000000000000000000000000 DUP2 MSTORE PUSH1 0x4 ADD PUSH2 0xB3F SWAP1 PUSH2 0x19BB JUMP JUMPDEST PUSH1 0x40 MLOAD DUP1 SWAP2 SUB SWAP1 REVERT JUMPDEST PUSH1 0x1 DUP2 PUSH1 0x1 ADD PUSH0 CALLER PUSH20 0xFFFFFFFFFFFFFFFFFFFFFFFFFFFFFFFFFFFFFFFF AND PUSH20 0xFFFFFFFFFFFFFFFFFFFFFFFFFFFFFFFFFFFFFFFF AND DUP2 MSTORE PUSH1 0x20 ADD SWAP1 DUP2 MSTORE PUSH1 0x20 ADD PUSH0 KECCAK256 PUSH0 PUSH2 0x100 EXP DUP2 SLOAD DUP2 PUSH1 0xFF MUL NOT AND SWAP1 DUP4 ISZERO ISZERO MUL OR SWAP1 SSTORE POP DUP1 PUSH0 ADD PUSH0 DUP5 DUP2 MSTORE PUSH1 0x20 ADD SWAP1 DUP2 MSTORE PUSH1 0x20 ADD PUSH0 KECCAK256 PUSH1 0x2 ADD PUSH0 DUP2 SLOAD DUP1 SWAP3 SWAP2 SWAP1 PUSH2 0xBC4 SWAP1 PUSH2 0x173E JUMP JUMPDEST SWAP2 SWAP1 POP SSTORE POP TIMESTAMP DUP2 PUSH1 0x2 ADD PUSH0 CALLER PUSH20 0xFFFFFFFFFFFFFFFFFFFFFFFFFFFFFFFFFFFFFFFF AND PUSH20 0xFFFFFFFFFFFFFFFFFFFFFFFFFFFFFFFFFFFFFFFF AND DUP2 MSTORE PUSH1 0x20 ADD SWAP1 DUP2 MSTORE PUSH1 0x20 ADD PUSH0 KECCAK256 DUP2 SWAP1 SSTORE POP DUP3 DUP5 CALLER PUSH20 0xFFFFFFFFFFFFFFFFFFFFFFFFFFFFFFFFFFFFFFFF AND PUSH32 0xC32B42768A47A585121E9B8D7A2AB9D3F34C326A192DEE11EE1732E3D18313F3 TIMESTAMP PUSH1 0x40 MLOAD PUSH2 0xC55 SWAP2 SWAP1 PUSH2 0x11B8 JUMP JUMPDEST PUSH1 0x40 MLOAD DUP1 SWAP2 SUB SWAP1 LOG4 POP POP POP POP JUMP JUMPDEST PUSH1 0x2 SLOAD DUP2 JUMP JUMPDEST PUSH1 0x3 PUSH0 SWAP1 SLOAD SWAP1 PUSH2 0x100 EXP SWAP1 DIV PUSH20 0xFFFFFFFFFFFFFFFFFFFFFFFFFFFFFFFFFFFFFFFF AND PUSH20 0xFFFFFFFFFFFFFFFFFFFFFFFFFFFFFFFFFFFFFFFF AND CALLER PUSH20 0xFFFFFFFFFFFFFFFFFFFFFFFFFFFFFFFFFFFFFFFF AND EQ PUSH2 0xCF8 JUMPI PUSH1 0x40 MLOAD PUSH32 0x8C379A000000000000000000000000000000000000000000000000000000000 DUP2 MSTORE PUSH1 0x4 ADD PUSH2 0xCEF SWAP1 PUSH2 0x1566 JUMP JUMPDEST PUSH1 0x40 MLOAD DUP1 SWAP2 SUB SWAP1 REVERT JUMPDEST PUSH1 0x2 PUSH0 DUP2 SLOAD DUP1 SWAP3 SWAP2 SWAP1 PUSH2 0xD0A SWAP1 PUSH2 0x173E JUMP JUMPDEST SWAP2 SWAP1 POP SSTORE POP PUSH0 DUP1 PUSH0 PUSH1 0x2 SLOAD DUP2 MSTORE PUSH1 0x20 ADD SWAP1 DUP2 MSTORE PUSH1 0x20 ADD PUSH0 KECCAK256 SWAP1 POP PUSH0 DUP2 PUSH1 0x4 ADD PUSH0 PUSH2 0x100 EXP DUP2 SLOAD DUP2 PUSH1 0xFF MUL NOT AND SWAP1 DUP4 ISZERO ISZERO MUL OR SWAP1 SSTORE POP PUSH0 JUMPDEST DUP3 MLOAD DUP2 LT ISZERO PUSH2 0xD7B JUMPI PUSH2 0xD6E DUP3 DUP5 DUP4 DUP2 MLOAD DUP2 LT PUSH2 0xD61 JUMPI PUSH2 0xD60 PUSH2 0x1711 JUMP JUMPDEST JUMPDEST PUSH1 0x20 MUL PUSH1 0x20 ADD ADD MLOAD PUSH2 0xE34 JUMP JUMPDEST DUP1 DUP1 PUSH1 0x1 ADD SWAP2 POP POP PUSH2 0xD41 JUMP JUMPDEST POP POP POP JUMP JUMPDEST PUSH0 DUP1 DUP3 GT DUP1 ISZERO PUSH2 0xDA3 JUMPI POP PUSH0 DUP1 DUP5 DUP2 MSTORE PUSH1 0x20 ADD SWAP1 DUP2 MSTORE PUSH1 0x20 ADD PUSH0 KECCAK256 PUSH1 0x3 ADD SLOAD DUP3 GT ISZERO JUMPDEST PUSH2 0xDE2 JUMPI PUSH1 0x40 MLOAD PUSH32 0x8C379A000000000000000000000000000000000000000000000000000000000 DUP2 MSTORE PUSH1 0x4 ADD PUSH2 0xDD9 SWAP1 PUSH2 0x19BB JUMP JUMPDEST PUSH1 0x40 MLOAD DUP1 SWAP2 SUB SWAP1 REVERT JUMPDEST PUSH0 DUP1 DUP5 DUP2 MSTORE PUSH1 0x20 ADD SWAP1 DUP2 MSTORE PUSH1 0x20 ADD PUSH0 KECCAK256 PUSH0 ADD PUSH0 DUP4 DUP2 MSTORE PUSH1 0x20 ADD SWAP1 DUP2 MSTORE PUSH1 0x20 ADD PUSH0 KECCAK256 PUSH1 0x2 ADD SLOAD SWAP1 POP SWAP3 SWAP2 POP POP JUMP JUMPDEST PUSH1 0x3 PUSH0 SWAP1 SLOAD SWAP1 PUSH2 0x100 EXP SWAP1 DIV PUSH20 0xFFFFFFFFFFFFFFFFFFFFFFFFFFFFFFFFFFFFFFFF AND DUP2 JUMP JUMPDEST DUP2 PUSH1 0x3 ADD PUSH0 DUP2 SLOAD DUP1 SWAP3 SWAP2 SWAP1 PUSH2 0xE48 SWAP1 PUSH2 0x173E JUMP JUMPDEST SWAP2 SWAP1 POP SSTORE POP PUSH1 0x40 MLOAD DUP1 PUSH1 0x60 ADD PUSH1 0x40 MSTORE DUP1 DUP4 PUSH1 0x3 ADD SLOAD DUP2 MSTORE PUSH1 0x20 ADD DUP3 DUP2 MSTORE PUSH1 0x20 ADD PUSH0 DUP2 MSTORE POP DUP3 PUSH0 ADD PUSH0 DUP5 PUSH1 0x3 ADD SLOAD DUP2 MSTORE PUSH1 0x20 ADD SWAP1 DUP2 MSTORE PUSH1 0x20 ADD PUSH0 KECCAK256 PUSH0 DUP3 ADD MLOAD DUP2 PUSH0 ADD SSTORE PUSH1 0x20 DUP3 ADD MLOAD DUP2 PUSH1 0x1 ADD SWAP1 DUP2 PUSH2 0xE9F SWAP2 SWAP1 PUSH2 0x1B76 JUMP JUMPDEST POP PUSH1 0x40 DUP3 ADD MLOAD DUP2 PUSH1 0x2 ADD SSTORE SWAP1 POP POP POP POP JUMP JUMPDEST PUSH1 0x40 MLOAD DUP1 PUSH1 0x60 ADD PUSH1 0x40 MSTORE DUP1 PUSH0 DUP2 MSTORE PUSH1 0x20 ADD PUSH1 0x60 DUP2 MSTORE PUSH1 0x20 ADD PUSH0 DUP2 MSTORE POP SWAP1 JUMP JUMPDEST PUSH0 PUSH1 0x40 MLOAD SWAP1 POP SWAP1 JUMP JUMPDEST PUSH0 DUP1 REVERT JUMPDEST PUSH0 DUP1 REVERT JUMPDEST PUSH0 PUSH20 0xFFFFFFFFFFFFFFFFFFFFFFFFFFFFFFFFFFFFFFFF DUP3 AND SWAP1 POP SWAP2 SWAP1 POP JUMP JUMPDEST PUSH0 PUSH2 0xF0A DUP3 PUSH2 0xEE1 JUMP JUMPDEST SWAP1 POP SWAP2 SWAP1 POP JUMP JUMPDEST PUSH2 0xF1A DUP2 PUSH2 0xF00 JUMP JUMPDEST DUP2 EQ PUSH2 0xF24 JUMPI PUSH0 DUP1 REVERT JUMPDEST POP JUMP JUMPDEST PUSH0 DUP2 CALLDATALOAD SWAP1 POP PUSH2 0xF35 DUP2 PUSH2 0xF11 JUMP JUMPDEST SWAP3 SWAP2 POP POP JUMP JUMPDEST PUSH0 PUSH1 0x20 DUP3 DUP5 SUB SLT ISZERO PUSH2 0xF50 JUMPI PUSH2 0xF4F PUSH2 0xED9 JUMP JUMPDEST JUMPDEST PUSH0 PUSH2 0xF5D DUP5 DUP3 DUP6 ADD PUSH2 0xF27 JUMP JUMPDEST SWAP2 POP POP SWAP3 SWAP2 POP POP JUMP JUMPDEST PUSH0 DUP2 SWAP1 POP SWAP2 SWAP1 POP JUMP JUMPDEST PUSH2 0xF78 DUP2 PUSH2 0xF66 JUMP JUMPDEST DUP2 EQ PUSH2 0xF82 JUMPI PUSH0 DUP1 REVERT JUMPDEST POP JUMP JUMPDEST PUSH0 DUP2 CALLDATALOAD SWAP1 POP PUSH2 0xF93 DUP2 PUSH2 0xF6F JUMP JUMPDEST SWAP3 SWAP2 POP POP JUMP JUMPDEST PUSH0 PUSH1 0x20 DUP3 DUP5 SUB SLT ISZERO PUSH2 0xFAE JUMPI PUSH2 0xFAD PUSH2 0xED9 JUMP JUMPDEST JUMPDEST PUSH0 PUSH2 0xFBB DUP5 DUP3 DUP6 ADD PUSH2 0xF85 JUMP JUMPDEST SWAP2 POP POP SWAP3 SWAP2 POP POP JUMP JUMPDEST PUSH0 DUP2 MLOAD SWAP1 POP SWAP2 SWAP1 POP JUMP JUMPDEST PUSH0 DUP3 DUP3 MSTORE PUSH1 0x20 DUP3 ADD SWAP1 POP SWAP3 SWAP2 POP POP JUMP JUMPDEST PUSH0 DUP2 SWAP1 POP PUSH1 0x20 DUP3 ADD SWAP1 POP SWAP2 SWAP1 POP JUMP JUMPDEST PUSH2 0xFF6 DUP2 PUSH2 0xF66 JUMP JUMPDEST DUP3 MSTORE POP POP JUMP JUMPDEST PUSH0 DUP2 MLOAD SWAP1 POP SWAP2 SWAP1 POP JUMP JUMPDEST PUSH0 DUP3 DUP3 MSTORE PUSH1 0x20 DUP3 ADD SWAP1 POP SWAP3 SWAP2 POP POP JUMP JUMPDEST DUP3 DUP2 DUP4 MCOPY PUSH0 DUP4 DUP4 ADD MSTORE POP POP POP JUMP JUMPDEST PUSH0 PUSH1 0x1F NOT PUSH1 0x1F DUP4 ADD AND SWAP1 POP SWAP2 SWAP1 POP JUMP JUMPDEST PUSH0 PUSH2 0x103E DUP3 PUSH2 0xFFC JUMP JUMPDEST PUSH2 0x1048 DUP2 DUP6 PUSH2 0x1006 JUMP JUMPDEST SWAP4 POP PUSH2 0x1058 DUP2 DUP6 PUSH1 0x20 DUP7 ADD PUSH2 0x1016 JUMP JUMPDEST PUSH2 0x1061 DUP2 PUSH2 0x1024 JUMP JUMPDEST DUP5 ADD SWAP2 POP POP SWAP3 SWAP2 POP POP JUMP JUMPDEST PUSH0 PUSH1 0x60 DUP4 ADD PUSH0 DUP4 ADD MLOAD PUSH2 0x1081 PUSH0 DUP7 ADD DUP3 PUSH2 0xFED JUMP JUMPDEST POP PUSH1 0x20 DUP4 ADD MLOAD DUP5 DUP3 SUB PUSH1 0x20 DUP7 ADD MSTORE PUSH2 0x1099 DUP3 DUP3 PUSH2 0x1034 JUMP JUMPDEST SWAP2 POP POP PUSH1 0x40 DUP4 ADD MLOAD PUSH2 0x10AE PUSH1 0x40 DUP7 ADD DUP3 PUSH2 0xFED JUMP JUMPDEST POP DUP1 SWAP2 POP POP SWAP3 SWAP2 POP POP JUMP JUMPDEST PUSH0 PUSH2 0x10C4 DUP4 DUP4 PUSH2 0x106C JUMP JUMPDEST SWAP1 POP SWAP3 SWAP2 POP POP JUMP JUMPDEST PUSH0 PUSH1 0x20 DUP3 ADD SWAP1 POP SWAP2 SWAP1 POP JUMP JUMPDEST PUSH0 PUSH2 0x10E2 DUP3 PUSH2 0xFC4 JUMP JUMPDEST PUSH2 0x10EC DUP2 DUP6 PUSH2 0xFCE JUMP JUMPDEST SWAP4 POP DUP4 PUSH1 0x20 DUP3 MUL DUP6 ADD PUSH2 0x10FE DUP6 PUSH2 0xFDE JUMP JUMPDEST DUP1 PUSH0 JUMPDEST DUP6 DUP2 LT ISZERO PUSH2 0x1139 JUMPI DUP5 DUP5 SUB DUP10 MSTORE DUP2 MLOAD PUSH2 0x111A DUP6 DUP3 PUSH2 0x10B9 JUMP JUMPDEST SWAP5 POP PUSH2 0x1125 DUP4 PUSH2 0x10CC JUMP JUMPDEST SWAP3 POP PUSH1 0x20 DUP11 ADD SWAP10 POP POP PUSH1 0x1 DUP2 ADD SWAP1 POP PUSH2 0x1101 JUMP JUMPDEST POP DUP3 SWAP8 POP DUP8 SWAP6 POP POP POP POP POP POP SWAP3 SWAP2 POP POP JUMP JUMPDEST PUSH0 PUSH1 0x20 DUP3 ADD SWAP1 POP DUP2 DUP2 SUB PUSH0 DUP4 ADD MSTORE PUSH2 0x1163 DUP2 DUP5 PUSH2 0x10D8 JUMP JUMPDEST SWAP1 POP SWAP3 SWAP2 POP POP JUMP JUMPDEST PUSH0 DUP1 PUSH1 0x40 DUP4 DUP6 SUB SLT ISZERO PUSH2 0x1181 JUMPI PUSH2 0x1180 PUSH2 0xED9 JUMP JUMPDEST JUMPDEST PUSH0 PUSH2 0x118E DUP6 DUP3 DUP7 ADD PUSH2 0xF85 JUMP JUMPDEST SWAP3 POP POP PUSH1 0x20 PUSH2 0x119F DUP6 DUP3 DUP7 ADD PUSH2 0xF27 JUMP JUMPDEST SWAP2 POP POP SWAP3 POP SWAP3 SWAP1 POP JUMP JUMPDEST PUSH2 0x11B2 DUP2 PUSH2 0xF66 JUMP JUMPDEST DUP3 MSTORE POP POP JUMP JUMPDEST PUSH0 PUSH1 0x20 DUP3 ADD SWAP1 POP PUSH2 0x11CB PUSH0 DUP4 ADD DUP5 PUSH2 0x11A9 JUMP JUMPDEST SWAP3 SWAP2 POP POP JUMP JUMPDEST PUSH0 DUP2 ISZERO ISZERO SWAP1 POP SWAP2 SWAP1 POP JUMP JUMPDEST PUSH2 0x11E5 DUP2 PUSH2 0x11D1 JUMP JUMPDEST DUP3 MSTORE POP POP JUMP JUMPDEST PUSH0 PUSH1 0x40 DUP3 ADD SWAP1 POP PUSH2 0x11FE PUSH0 DUP4 ADD DUP6 PUSH2 0x11A9 JUMP JUMPDEST PUSH2 0x120B PUSH1 0x20 DUP4 ADD DUP5 PUSH2 0x11DC JUMP JUMPDEST SWAP4 SWAP3 POP POP POP JUMP JUMPDEST PUSH0 PUSH1 0x20 DUP3 ADD SWAP1 POP PUSH2 0x1225 PUSH0 DUP4 ADD DUP5 PUSH2 0x11DC JUMP JUMPDEST SWAP3 SWAP2 POP POP JUMP JUMPDEST PUSH0 DUP1 PUSH1 0x40 DUP4 DUP6 SUB SLT ISZERO PUSH2 0x1241 JUMPI PUSH2 0x1240 PUSH2 0xED9 JUMP JUMPDEST JUMPDEST PUSH0 PUSH2 0x124E DUP6 DUP3 DUP7 ADD PUSH2 0xF85 JUMP JUMPDEST SWAP3 POP POP PUSH1 0x20 PUSH2 0x125F DUP6 DUP3 DUP7 ADD PUSH2 0xF85 JUMP JUMPDEST SWAP2 POP POP SWAP3 POP SWAP3 SWAP1 POP JUMP JUMPDEST PUSH0 DUP1 REVERT JUMPDEST PUSH32 0x4E487B7100000000000000000000000000000000000000000000000000000000 PUSH0 MSTORE PUSH1 0x41 PUSH1 0x4 MSTORE PUSH1 0x24 PUSH0 REVERT JUMPDEST PUSH2 0x12A3 DUP3 PUSH2 0x1024 JUMP JUMPDEST DUP2 ADD DUP2 DUP2 LT PUSH8 0xFFFFFFFFFFFFFFFF DUP3 GT OR ISZERO PUSH2 0x12C2 JUMPI PUSH2 0x12C1 PUSH2 0x126D JUMP JUMPDEST JUMPDEST DUP1 PUSH1 0x40 MSTORE POP POP POP JUMP JUMPDEST PUSH0 PUSH2 0x12D4 PUSH2 0xED0 JUMP JUMPDEST SWAP1 POP PUSH2 0x12E0 DUP3 DUP3 PUSH2 0x129A JUMP JUMPDEST SWAP2 SWAP1 POP JUMP JUMPDEST PUSH0 PUSH8 0xFFFFFFFFFFFFFFFF DUP3 GT ISZERO PUSH2 0x12FF JUMPI PUSH2 0x12FE PUSH2 0x126D JUMP JUMPDEST JUMPDEST PUSH1 0x20 DUP3 MUL SWAP1 POP PUSH1 0x20 DUP2 ADD SWAP1 POP SWAP2 SWAP1 POP JUMP JUMPDEST PUSH0 DUP1 REVERT JUMPDEST PUSH0 DUP1 REVERT JUMPDEST PUSH0 PUSH8 0xFFFFFFFFFFFFFFFF DUP3 GT ISZERO PUSH2 0x1332 JUMPI PUSH2 0x1331 PUSH2 0x126D JUMP JUMPDEST JUMPDEST PUSH2 0x133B DUP3 PUSH2 0x1024 JUMP JUMPDEST SWAP1 POP PUSH1 0x20 DUP2 ADD SWAP1 POP SWAP2 SWAP1 POP JUMP JUMPDEST DUP3 DUP2 DUP4 CALLDATACOPY PUSH0 DUP4 DUP4 ADD MSTORE POP POP POP JUMP JUMPDEST PUSH0 PUSH2 0x1368 PUSH2 0x1363 DUP5 PUSH2 0x1318 JUMP JUMPDEST PUSH2 0x12CB JUMP JUMPDEST SWAP1 POP DUP3 DUP2 MSTORE PUSH1 0x20 DUP2 ADD DUP5 DUP5 DUP5 ADD GT ISZERO PUSH2 0x1384 JUMPI PUSH2 0x1383 PUSH2 0x1314 JUMP JUMPDEST JUMPDEST PUSH2 0x138F DUP5 DUP3 DUP6 PUSH2 0x1348 JUMP JUMPDEST POP SWAP4 SWAP3 POP POP POP JUMP JUMPDEST PUSH0 DUP3 PUSH1 0x1F DUP4 ADD SLT PUSH2 0x13AB JUMPI PUSH2 0x13AA PUSH2 0x1269 JUMP JUMPDEST JUMPDEST DUP2 CALLDATALOAD PUSH2 0x13BB DUP5 DUP3 PUSH1 0x20 DUP7 ADD PUSH2 0x1356 JUMP JUMPDEST SWAP2 POP POP SWAP3 SWAP2 POP POP JUMP JUMPDEST PUSH0 PUSH2 0x13D6 PUSH2 0x13D1 DUP5 PUSH2 0x12E5 JUMP JUMPDEST PUSH2 0x12CB JUMP JUMPDEST SWAP1 POP DUP1 DUP4 DUP3 MSTORE PUSH1 0x20 DUP3 ADD SWAP1 POP PUSH1 0x20 DUP5 MUL DUP4 ADD DUP6 DUP2 GT ISZERO PUSH2 0x13F9 JUMPI PUSH2 0x13F8 PUSH2 0x1310 JUMP JUMPDEST JUMPDEST DUP4 JUMPDEST DUP2 DUP2 LT ISZERO PUSH2 0x1440 JUMPI DUP1 CALLDATALOAD PUSH8 0xFFFFFFFFFFFFFFFF DUP2 GT ISZERO PUSH2 0x141E JUMPI PUSH2 0x141D PUSH2 0x1269 JUMP JUMPDEST JUMPDEST DUP1 DUP7 ADD PUSH2 0x142B DUP10 DUP3 PUSH2 0x1397 JUMP JUMPDEST DUP6 MSTORE PUSH1 0x20 DUP6 ADD SWAP5 POP POP POP PUSH1 0x20 DUP2 ADD SWAP1 POP PUSH2 0x13FB JUMP JUMPDEST POP POP POP SWAP4 SWAP3 POP POP POP JUMP JUMPDEST PUSH0 DUP3 PUSH1 0x1F DUP4 ADD SLT PUSH2 0x145E JUMPI PUSH2 0x145D PUSH2 0x1269 JUMP JUMPDEST JUMPDEST DUP2 CALLDATALOAD PUSH2 0x146E DUP5 DUP3 PUSH1 0x20 DUP7 ADD PUSH2 0x13C4 JUMP JUMPDEST SWAP2 POP POP SWAP3 SWAP2 POP POP JUMP JUMPDEST PUSH0 PUSH1 0x20 DUP3 DUP5 SUB SLT ISZERO PUSH2 0x148C JUMPI PUSH2 0x148B PUSH2 0xED9 JUMP JUMPDEST JUMPDEST PUSH0 DUP3 ADD CALLDATALOAD PUSH8 0xFFFFFFFFFFFFFFFF DUP2 GT ISZERO PUSH2 0x14A9 JUMPI PUSH2 0x14A8 PUSH2 0xEDD JUMP JUMPDEST JUMPDEST PUSH2 0x14B5 DUP5 DUP3 DUP6 ADD PUSH2 0x144A JUMP JUMPDEST SWAP2 POP POP SWAP3 SWAP2 POP POP JUMP JUMPDEST PUSH2 0x14C7 DUP2 PUSH2 0xF00 JUMP JUMPDEST DUP3 MSTORE POP POP JUMP JUMPDEST PUSH0 PUSH1 0x20 DUP3 ADD SWAP1 POP PUSH2 0x14E0 PUSH0 DUP4 ADD DUP5 PUSH2 0x14BE JUMP JUMPDEST SWAP3 SWAP2 POP POP JUMP JUMPDEST PUSH0 DUP3 DUP3 MSTORE PUSH1 0x20 DUP3 ADD SWAP1 POP SWAP3 SWAP2 POP POP JUMP JUMPDEST PUSH32 0x4F6E6C792061646D696E2063616E2063616C6C20746869732066756E6374696F PUSH0 DUP3 ADD MSTORE PUSH32 0x6E2E000000000000000000000000000000000000000000000000000000000000 PUSH1 0x20 DUP3 ADD MSTORE POP JUMP JUMPDEST PUSH0 PUSH2 0x1550 PUSH1 0x22 DUP4 PUSH2 0x14E6 JUMP JUMPDEST SWAP2 POP PUSH2 0x155B DUP3 PUSH2 0x14F6 JUMP JUMPDEST PUSH1 0x40 DUP3 ADD SWAP1 POP SWAP2 SWAP1 POP JUMP JUMPDEST PUSH0 PUSH1 0x20 DUP3 ADD SWAP1 POP DUP2 DUP2 SUB PUSH0 DUP4 ADD MSTORE PUSH2 0x157D DUP2 PUSH2 0x1544 JUMP JUMPDEST SWAP1 POP SWAP2 SWAP1 POP JUMP JUMPDEST PUSH32 0x566F74657220697320616C726561647920726567697374657265642E00000000 PUSH0 DUP3 ADD MSTORE POP JUMP JUMPDEST PUSH0 PUSH2 0x15B8 PUSH1 0x1C DUP4 PUSH2 0x14E6 JUMP JUMPDEST SWAP2 POP PUSH2 0x15C3 DUP3 PUSH2 0x1584 JUMP JUMPDEST PUSH1 0x20 DUP3 ADD SWAP1 POP SWAP2 SWAP1 POP JUMP JUMPDEST PUSH0 PUSH1 0x20 DUP3 ADD SWAP1 POP DUP2 DUP2 SUB PUSH0 DUP4 ADD MSTORE PUSH2 0x15E5 DUP2 PUSH2 0x15AC JUMP JUMPDEST SWAP1 POP SWAP2 SWAP1 POP JUMP JUMPDEST PUSH32 0x566F74696E6720697320616C7265616479206163746976652E00000000000000 PUSH0 DUP3 ADD MSTORE POP JUMP JUMPDEST PUSH0 PUSH2 0x1620 PUSH1 0x19 DUP4 PUSH2 0x14E6 JUMP JUMPDEST SWAP2 POP PUSH2 0x162B DUP3 PUSH2 0x15EC JUMP JUMPDEST PUSH1 0x20 DUP3 ADD SWAP1 POP SWAP2 SWAP1 POP JUMP JUMPDEST PUSH0 PUSH1 0x20 DUP3 ADD SWAP1 POP DUP2 DUP2 SUB PUSH0 DUP4 ADD MSTORE PUSH2 0x164D DUP2 PUSH2 0x1614 JUMP JUMPDEST SWAP1 POP SWAP2 SWAP1 POP JUMP JUMPDEST PUSH32 0x4E487B7100000000000000000000000000000000000000000000000000000000 PUSH0 MSTORE PUSH1 0x22 PUSH1 0x4 MSTORE PUSH1 0x24 PUSH0 REVERT JUMPDEST PUSH0 PUSH1 0x2 DUP3 DIV SWAP1 POP PUSH1 0x1 DUP3 AND DUP1 PUSH2 0x1698 JUMPI PUSH1 0x7F DUP3 AND SWAP2 POP JUMPDEST PUSH1 0x20 DUP3 LT DUP2 SUB PUSH2 0x16AB JUMPI PUSH2 0x16AA PUSH2 0x1654 JUMP JUMPDEST JUMPDEST POP SWAP2 SWAP1 POP JUMP JUMPDEST PUSH32 0x4E487B7100000000000000000000000000000000000000000000000000000000 PUSH0 MSTORE PUSH1 0x11 PUSH1 0x4 MSTORE PUSH1 0x24 PUSH0 REVERT JUMPDEST PUSH0 PUSH2 0x16E8 DUP3 PUSH2 0xF66 JUMP JUMPDEST SWAP2 POP PUSH2 0x16F3 DUP4 PUSH2 0xF66 JUMP JUMPDEST SWAP3 POP DUP3 DUP3 SUB SWAP1 POP DUP2 DUP2 GT ISZERO PUSH2 0x170B JUMPI PUSH2 0x170A PUSH2 0x16B1 JUMP JUMPDEST JUMPDEST SWAP3 SWAP2 POP POP JUMP JUMPDEST PUSH32 0x4E487B7100000000000000000000000000000000000000000000000000000000 PUSH0 MSTORE PUSH1 0x32 PUSH1 0x4 MSTORE PUSH1 0x24 PUSH0 REVERT JUMPDEST PUSH0 PUSH2 0x1748 DUP3 PUSH2 0xF66 JUMP JUMPDEST SWAP2 POP PUSH32 0xFFFFFFFFFFFFFFFFFFFFFFFFFFFFFFFFFFFFFFFFFFFFFFFFFFFFFFFFFFFFFFFF DUP3 SUB PUSH2 0x177A JUMPI PUSH2 0x1779 PUSH2 0x16B1 JUMP JUMPDEST JUMPDEST PUSH1 0x1 DUP3 ADD SWAP1 POP SWAP2 SWAP1 POP JUMP JUMPDEST PUSH32 0x5468697320766F74657220686173206E6F7420766F74656420696E2074686973 PUSH0 DUP3 ADD MSTORE PUSH32 0x20766F74696E672E000000000000000000000000000000000000000000000000 PUSH1 0x20 DUP3 ADD MSTORE POP JUMP JUMPDEST PUSH0 PUSH2 0x17DF PUSH1 0x28 DUP4 PUSH2 0x14E6 JUMP JUMPDEST SWAP2 POP PUSH2 0x17EA DUP3 PUSH2 0x1785 JUMP JUMPDEST PUSH1 0x40 DUP3 ADD SWAP1 POP SWAP2 SWAP1 POP JUMP JUMPDEST PUSH0 PUSH1 0x20 DUP3 ADD SWAP1 POP DUP2 DUP2 SUB PUSH0 DUP4 ADD MSTORE PUSH2 0x180C DUP2 PUSH2 0x17D3 JUMP JUMPDEST SWAP1 POP SWAP2 SWAP1 POP JUMP JUMPDEST PUSH32 0x566F74696E67206973206E6F742063757272656E746C79206163746976652E00 PUSH0 DUP3 ADD MSTORE POP JUMP JUMPDEST PUSH0 PUSH2 0x1847 PUSH1 0x1F DUP4 PUSH2 0x14E6 JUMP JUMPDEST SWAP2 POP PUSH2 0x1852 DUP3 PUSH2 0x1813 JUMP JUMPDEST PUSH1 0x20 DUP3 ADD SWAP1 POP SWAP2 SWAP1 POP JUMP JUMPDEST PUSH0 PUSH1 0x20 DUP3 ADD SWAP1 POP DUP2 DUP2 SUB PUSH0 DUP4 ADD MSTORE PUSH2 0x1874 DUP2 PUSH2 0x183B JUMP JUMPDEST SWAP1 POP SWAP2 SWAP1 POP JUMP JUMPDEST PUSH32 0x596F75206D7573742062652061207265676973746572656420766F7465722E00 PUSH0 DUP3 ADD MSTORE POP JUMP JUMPDEST PUSH0 PUSH2 0x18AF PUSH1 0x1F DUP4 PUSH2 0x14E6 JUMP JUMPDEST SWAP2 POP PUSH2 0x18BA DUP3 PUSH2 0x187B JUMP JUMPDEST PUSH1 0x20 DUP3 ADD SWAP1 POP SWAP2 SWAP1 POP JUMP JUMPDEST PUSH0 PUSH1 0x20 DUP3 ADD SWAP1 POP DUP2 DUP2 SUB PUSH0 DUP4 ADD MSTORE PUSH2 0x18DC DUP2 PUSH2 0x18A3 JUMP JUMPDEST SWAP1 POP SWAP2 SWAP1 POP JUMP JUMPDEST PUSH32 0x596F75206861766520616C726561647920766F74656420696E20746869732076 PUSH0 DUP3 ADD MSTORE PUSH32 0x6F74696E672E0000000000000000000000000000000000000000000000000000 PUSH1 0x20 DUP3 ADD MSTORE POP JUMP JUMPDEST PUSH0 PUSH2 0x193D PUSH1 0x26 DUP4 PUSH2 0x14E6 JUMP JUMPDEST SWAP2 POP PUSH2 0x1948 DUP3 PUSH2 0x18E3 JUMP JUMPDEST PUSH1 0x40 DUP3 ADD SWAP1 POP SWAP2 SWAP1 POP JUMP JUMPDEST PUSH0 PUSH1 0x20 DUP3 ADD SWAP1 POP DUP2 DUP2 SUB PUSH0 DUP4 ADD MSTORE PUSH2 0x196A DUP2 PUSH2 0x1931 JUMP JUMPDEST SWAP1 POP SWAP2 SWAP1 POP JUMP JUMPDEST PUSH32 0x496E76616C69642063616E6469646174652049442E0000000000000000000000 PUSH0 DUP3 ADD MSTORE POP JUMP JUMPDEST PUSH0 PUSH2 0x19A5 PUSH1 0x15 DUP4 PUSH2 0x14E6 JUMP JUMPDEST SWAP2 POP PUSH2 0x19B0 DUP3 PUSH2 0x1971 JUMP JUMPDEST PUSH1 0x20 DUP3 ADD SWAP1 POP SWAP2 SWAP1 POP JUMP JUMPDEST PUSH0 PUSH1 0x20 DUP3 ADD SWAP1 POP DUP2 DUP2 SUB PUSH0 DUP4 ADD MSTORE PUSH2 0x19D2 DUP2 PUSH2 0x1999 JUMP JUMPDEST SWAP1 POP SWAP2 SWAP1 POP JUMP JUMPDEST PUSH0 DUP2 SWAP1 POP DUP2 PUSH0 MSTORE PUSH1 0x20 PUSH0 KECCAK256 SWAP1 POP SWAP2 SWAP1 POP JUMP JUMPDEST PUSH0 PUSH1 0x20 PUSH1 0x1F DUP4 ADD DIV SWAP1 POP SWAP2 SWAP1 POP JUMP JUMPDEST PUSH0 DUP3 DUP3 SHL SWAP1 POP SWAP3 SWAP2 POP POP JUMP JUMPDEST PUSH0 PUSH1 0x8 DUP4 MUL PUSH2 0x1A35 PUSH32 0xFFFFFFFFFFFFFFFFFFFFFFFFFFFFFFFFFFFFFFFFFFFFFFFFFFFFFFFFFFFFFFFF DUP3 PUSH2 0x19FA JUMP JUMPDEST PUSH2 0x1A3F DUP7 DUP4 PUSH2 0x19FA JUMP JUMPDEST SWAP6 POP DUP1 NOT DUP5 AND SWAP4 POP DUP1 DUP7 AND DUP5 OR SWAP3 POP POP POP SWAP4 SWAP3 POP POP POP JUMP JUMPDEST PUSH0 DUP2 SWAP1 POP SWAP2 SWAP1 POP JUMP JUMPDEST PUSH0 PUSH2 0x1A7A PUSH2 0x1A75 PUSH2 0x1A70 DUP5 PUSH2 0xF66 JUMP JUMPDEST PUSH2 0x1A57 JUMP JUMPDEST PUSH2 0xF66 JUMP JUMPDEST SWAP1 POP SWAP2 SWAP1 POP JUMP JUMPDEST PUSH0 DUP2 SWAP1 POP SWAP2 SWAP1 POP JUMP JUMPDEST PUSH2 0x1A93 DUP4 PUSH2 0x1A60 JUMP JUMPDEST PUSH2 0x1AA7 PUSH2 0x1A9F DUP3 PUSH2 0x1A81 JUMP JUMPDEST DUP5 DUP5 SLOAD PUSH2 0x1A06 JUMP JUMPDEST DUP3 SSTORE POP POP POP POP JUMP JUMPDEST PUSH0 SWAP1 JUMP JUMPDEST PUSH2 0x1ABB PUSH2 0x1AAF JUMP JUMPDEST PUSH2 0x1AC6 DUP2 DUP5 DUP5 PUSH2 0x1A8A JUMP JUMPDEST POP POP POP JUMP JUMPDEST JUMPDEST DUP2 DUP2 LT ISZERO PUSH2 0x1AE9 JUMPI PUSH2 0x1ADE PUSH0 DUP3 PUSH2 0x1AB3 JUMP JUMPDEST PUSH1 0x1 DUP2 ADD SWAP1 POP PUSH2 0x1ACC JUMP JUMPDEST POP POP JUMP JUMPDEST PUSH1 0x1F DUP3 GT ISZERO PUSH2 0x1B2E JUMPI PUSH2 0x1AFF DUP2 PUSH2 0x19D9 JUMP JUMPDEST PUSH2 0x1B08 DUP5 PUSH2 0x19EB JUMP JUMPDEST DUP2 ADD PUSH1 0x20 DUP6 LT ISZERO PUSH2 0x1B17 JUMPI DUP2 SWAP1 POP JUMPDEST PUSH2 0x1B2B PUSH2 0x1B23 DUP6 PUSH2 0x19EB JUMP JUMPDEST DUP4 ADD DUP3 PUSH2 0x1ACB JUMP JUMPDEST POP POP JUMPDEST POP POP POP JUMP JUMPDEST PUSH0 DUP3 DUP3 SHR SWAP1 POP SWAP3 SWAP2 POP POP JUMP JUMPDEST PUSH0 PUSH2 0x1B4E PUSH0 NOT DUP5 PUSH1 0x8 MUL PUSH2 0x1B33 JUMP JUMPDEST NOT DUP1 DUP4 AND SWAP2 POP POP SWAP3 SWAP2 POP POP JUMP JUMPDEST PUSH0 PUSH2 0x1B66 DUP4 DUP4 PUSH2 0x1B3F JUMP JUMPDEST SWAP2 POP DUP3 PUSH1 0x2 MUL DUP3 OR SWAP1 POP SWAP3 SWAP2 POP POP JUMP JUMPDEST PUSH2 0x1B7F DUP3 PUSH2 0xFFC JUMP JUMPDEST PUSH8 0xFFFFFFFFFFFFFFFF DUP2 GT ISZERO PUSH2 0x1B98 JUMPI PUSH2 0x1B97 PUSH2 0x126D JUMP JUMPDEST JUMPDEST PUSH2 0x1BA2 DUP3 SLOAD PUSH2 0x1681 JUMP JUMPDEST PUSH2 0x1BAD DUP3 DUP3 DUP6 PUSH2 0x1AED JUMP JUMPDEST PUSH0 PUSH1 0x20 SWAP1 POP PUSH1 0x1F DUP4 GT PUSH1 0x1 DUP2 EQ PUSH2 0x1BDE JUMPI PUSH0 DUP5 ISZERO PUSH2 0x1BCC JUMPI DUP3 DUP8 ADD MLOAD SWAP1 POP JUMPDEST PUSH2 0x1BD6 DUP6 DUP3 PUSH2 0x1B5B JUMP JUMPDEST DUP7 SSTORE POP PUSH2 0x1C3D JUMP JUMPDEST PUSH1 0x1F NOT DUP5 AND PUSH2 0x1BEC DUP7 PUSH2 0x19D9 JUMP JUMPDEST PUSH0 JUMPDEST DUP3 DUP2 LT ISZERO PUSH2 0x1C13 JUMPI DUP5 DUP10 ADD MLOAD DUP3 SSTORE PUSH1 0x1 DUP3 ADD SWAP2 POP PUSH1 0x20 DUP6 ADD SWAP5 POP PUSH1 0x20 DUP2 ADD SWAP1 POP PUSH2 0x1BEE JUMP JUMPDEST DUP7 DUP4 LT ISZERO PUSH2 0x1C30 JUMPI DUP5 DUP10 ADD MLOAD PUSH2 0x1C2C PUSH1 0x1F DUP10 AND DUP3 PUSH2 0x1B3F JUMP JUMPDEST DUP4 SSTORE POP JUMPDEST PUSH1 0x1 PUSH1 0x2 DUP9 MUL ADD DUP9 SSTORE POP POP POP JUMPDEST POP POP POP POP POP POP JUMP INVALID LOG2 PUSH5 0x6970667358 0x22 SLT KECCAK256 0x2B 0xBD 0xC3 OR SWAP15 0xC9 PUSH14 0x8858DAEFA5E9CA8E7DE5C60F0D57 PUSH18 0x7312F87A42D6C03EDF6564736F6C63430008 BYTE STOP CALLER "
				},
				"gasEstimates": {
					"creation": {
						"codeDepositCost": "1458200",
						"executionCost": "25783",
						"totalCost": "1483983"
					},
					"external": {
						"admin()": "2618",
						"createVoting(string[])": "infinite",
						"endVoting(uint256)": "30395",
						"getCandidates(uint256)": "infinite",
						"getVoteCount(uint256,uint256)": "infinite",
						"getVoteTimestamp(uint256,address)": "infinite",
						"registerVoter(address)": "30377",
						"registeredVoters(address)": "2833",
						"startVoting(uint256)": "30333",
						"vote(uint256,uint256)": "infinite",
						"votingCount()": "2469",
						"votings(uint256)": "infinite"
					},
					"internal": {
						"addCandidate(struct SecureVoting.Voting storage pointer,string memory)": "infinite"
					}
				},
				"methodIdentifiers": {
					"admin()": "f851a440",
					"createVoting(string[])": "ba538043",
					"endVoting(uint256)": "649f89a5",
					"getCandidates(uint256)": "3e39a7a5",
					"getVoteCount(uint256,uint256)": "de2e19a0",
					"getVoteTimestamp(uint256,address)": "464fcbc3",
					"registerVoter(address)": "38db6dd3",
					"registeredVoters(address)": "a9ff6df1",
					"startVoting(uint256)": "3d2f5bda",
					"vote(uint256,uint256)": "b384abef",
					"votingCount()": "b424ab84",
					"votings(uint256)": "a598d03c"
				}
			},
			"storageLayout": {
				"storage": [
					{
						"astId": 31,
						"contract": "contracts/Voting.sol:SecureVoting",
						"label": "votings",
						"offset": 0,
						"slot": "0",
						"type": "t_mapping(t_uint256,t_struct(Voting)26_storage)"
					},
					{
						"astId": 35,
						"contract": "contracts/Voting.sol:SecureVoting",
						"label": "registeredVoters",
						"offset": 0,
						"slot": "1",
						"type": "t_mapping(t_address,t_bool)"
					},
					{
						"astId": 37,
						"contract": "contracts/Voting.sol:SecureVoting",
						"label": "votingCount",
						"offset": 0,
						"slot": "2",
						"type": "t_uint256"
					},
					{
						"astId": 39,
						"contract": "contracts/Voting.sol:SecureVoting",
						"label": "admin",
						"offset": 0,
						"slot": "3",
						"type": "t_address"
					}
				],
				"types": {
					"t_address": {
						"encoding": "inplace",
						"label": "address",
						"numberOfBytes": "20"
					},
					"t_bool": {
						"encoding": "inplace",
						"label": "bool",
						"numberOfBytes": "1"
					},
					"t_mapping(t_address,t_bool)": {
						"encoding": "mapping",
						"key": "t_address",
						"label": "mapping(address => bool)",
						"numberOfBytes": "32",
						"value": "t_bool"
					},
					"t_mapping(t_address,t_uint256)": {
						"encoding": "mapping",
						"key": "t_address",
						"label": "mapping(address => uint256)",
						"numberOfBytes": "32",
						"value": "t_uint256"
					},
					"t_mapping(t_uint256,t_struct(Candidate)8_storage)": {
						"encoding": "mapping",
						"key": "t_uint256",
						"label": "mapping(uint256 => struct SecureVoting.Candidate)",
						"numberOfBytes": "32",
						"value": "t_struct(Candidate)8_storage"
					},
					"t_mapping(t_uint256,t_struct(Voting)26_storage)": {
						"encoding": "mapping",
						"key": "t_uint256",
						"label": "mapping(uint256 => struct SecureVoting.Voting)",
						"numberOfBytes": "32",
						"value": "t_struct(Voting)26_storage"
					},
					"t_string_storage": {
						"encoding": "bytes",
						"label": "string",
						"numberOfBytes": "32"
					},
					"t_struct(Candidate)8_storage": {
						"encoding": "inplace",
						"label": "struct SecureVoting.Candidate",
						"members": [
							{
								"astId": 3,
								"contract": "contracts/Voting.sol:SecureVoting",
								"label": "id",
								"offset": 0,
								"slot": "0",
								"type": "t_uint256"
							},
							{
								"astId": 5,
								"contract": "contracts/Voting.sol:SecureVoting",
								"label": "name",
								"offset": 0,
								"slot": "1",
								"type": "t_string_storage"
							},
							{
								"astId": 7,
								"contract": "contracts/Voting.sol:SecureVoting",
								"label": "voteCount",
								"offset": 0,
								"slot": "2",
								"type": "t_uint256"
							}
						],
						"numberOfBytes": "96"
					},
					"t_struct(Voting)26_storage": {
						"encoding": "inplace",
						"label": "struct SecureVoting.Voting",
						"members": [
							{
								"astId": 13,
								"contract": "contracts/Voting.sol:SecureVoting",
								"label": "candidates",
								"offset": 0,
								"slot": "0",
								"type": "t_mapping(t_uint256,t_struct(Candidate)8_storage)"
							},
							{
								"astId": 17,
								"contract": "contracts/Voting.sol:SecureVoting",
								"label": "voters",
								"offset": 0,
								"slot": "1",
								"type": "t_mapping(t_address,t_bool)"
							},
							{
								"astId": 21,
								"contract": "contracts/Voting.sol:SecureVoting",
								"label": "voteTimestamps",
								"offset": 0,
								"slot": "2",
								"type": "t_mapping(t_address,t_uint256)"
							},
							{
								"astId": 23,
								"contract": "contracts/Voting.sol:SecureVoting",
								"label": "candidatesCount",
								"offset": 0,
								"slot": "3",
								"type": "t_uint256"
							},
							{
								"astId": 25,
								"contract": "contracts/Voting.sol:SecureVoting",
								"label": "active",
								"offset": 0,
								"slot": "4",
								"type": "t_bool"
							}
						],
						"numberOfBytes": "160"
					},
					"t_uint256": {
						"encoding": "inplace",
						"label": "uint256",
						"numberOfBytes": "32"
					}
				}
			},
			"userdoc": {
				"kind": "user",
				"methods": {},
				"version": 1
			}
		}
	}
}